:100000000C94E4000C9434170C9461170C940C01BC
:100010000C940C010C940C010C944A0A0C940C01E5
:100020000C940C010C940C010C940C010C940C011C
:100030000C940C010C940C010C940C010C940C010C
:100040000C948E170C940C010C946D190C94B4192B
:100050000C940C010C940C010C940C010C940C01EC
:100060000C9416150C940C010000000024002700CD
:100070002A0000000000250028002B0000000000DE
:1000800023002600290004040404040404040202DA
:100090000202020203030303030301020408102007
:1000A0004080010204081020010204081020000012
:1000B0000007000201000003040600000000000029
:1000C000000000407A10F35A00A0724E1809001088
:1000D000A5D4E80000E87648170000E40B540200BD
:1000E00000CA9A3B000000E1F505000080969800E8
:1000F000000040420F000000A08601000000102711
:1001000000000000E80300000000640000000000A0
:100110000A00000000000100000000002C76D888D2
:10012000DC674F0823DFC1DFAE59E1B1B796E5E3E5
:10013000E453C63AE651997696E8E6C28426EB89FE
:100140008C9B62ED407C6FFCEFBC9C9F40F2BAA59B
:100150006FA5F490055A2AF75C936B6CF9676DC133
:100160001BFCE0E40D47FEF520E6B500D0ED902E37
:100170000300943577050080841E080000204E0A95
:10018000000000C80C333333330F986E12831141D3
:10019000EF8D2114893BE65516CFFEE6DB18D1849E
:1001A0004B381BF77C1D901DA4BBE42420328472C5
:1001B0005E228100C9F124ECA1E53D27A404320FA1
:1001C000B213F11A9D042B0F11241FBECFEFD8E0FC
:1001D000DEBFCDBF12E0A0E0B1E0EEEFFBE402C075
:1001E00005900D92A035B107D9F714E0A0E5B2E073
:1001F00001C01D92A33AB107E1F711E0C4ECD1E0D0
:1002000004C02297FE010E94AF25CC3BD107C9F75D
:100210000E94471B0C94F2250C940000EF92FF9271
:100220000F931F93F22FF02E47FD02C0E4E001C0B0
:10023000E4E1242F332727FD309537FF03C03095A5
:1002400021953F4F4F2D512F0F2FEE2E0E94390237
:100250008F2D912F1F910F91FF90EF900895A0E0A7
:10026000B0E0E5E3F1E00C94C325EC01A880B9808F
:10027000CA80DB80A114B104C104D10441F484E23A
:10028000A82E89EDB82E8BE5C82E87E0D82EC601A2
:10029000B5012DE133EF41E050E00E947E2527EAD1
:1002A00031E440E050E00E942A257B018C01C60128
:1002B000B5012DE133EF41E050E00E947E25CA01F7
:1002C000B9012CEE34EF4FEF5FEF0E942A256E0D3F
:1002D0007F1D801F911F97FF04C0615070408040B8
:1002E0009048688379838A839B839B01AC015F7705
:1002F000B901CA01CDB7DEB7EAE00C94DF250E9450
:100300002F01089588E092E00E942F0108956093E4
:1003100008027093090280930A0290930B020895D9
:100320001F93FC0199278827BC01E8941191103292
:10033000E9F3193010F01E30C8F31B3251F01D32B2
:1003400049F4689406C00E940E02610F711D811D60
:10035000911D119110531A30B0F33EF49095809591
:10036000709561957F4F8F4F9F4F1F910895FB01AF
:10037000DC0102C001900D9241505040D8F7089521
:10038000FB01DC018D91019080190110D9F3990BCB
:100390000895FB01DC0101900D920020E1F7089522
:1003A000FB01DC014150504030F08D9101908019EB
:1003B00019F40020B9F7881B990B0895FB01DC01A3
:1003C0004150504048F001900D920020C9F701C003
:1003D0001D9241505040E0F70895FB019F01E894C1
:1003E0004230C4F04532B4F44A3029F497FB1EF48D
:1003F000909581959F4F642F77270E949925805D66
:100400008A330CF0895D8193CB010097A1F716F434
:100410005DE251931082C9010C947304592F482F47
:10042000372F262F660F771F881F991F660F771F9C
:10043000881F991F620F731F841F951F660F771FF8
:10044000881F991F0895FB019F01423074F04532C7
:1004500064F4642F77270E949925805D8A330CF01D
:10046000895D8193CB010097A1F71082C9010C949B
:100470007304A9E0B0E0EFE3F2E00C94BF256A0159
:10048000122FA02EBE2C2BE3201718F42CE3922E53
:1004900002C0902E9394AE014F5F5F4F27E0092D6D
:1004A0000E949B03BC018981E82EFF24C70189704B
:1004B0009070019711F4ADE209C0B1FE02C0ABE249
:1004C00005C0B0FC02C0A0E001C0A0E2E3FE3BC05A
:1004D000AA2311F423E001C024E0211710F020E04A
:1004E00002C0121B212FEB2CB4FE02C0322F0AC017
:1004F000F601322F80E202C0819331503323E1F7BD
:10050000C20ED11CAA2319F0F601A1936F01F601C6
:100510003196E2FE05C09EE4D6019C9381E404C0BE
:100520009EE6D6019C9381E611968C939183329638
:10053000DF01832F90E202C09D9381508823E1F771
:10054000E30FF11D40C0E2FE42C0AA2311F423E0F4
:1005500001C024E0211710F020E002C0121B212F5F
:10056000EB2CB4FE02C0922F0AC0F601922F80E25B
:1005700002C0819391509923E1F7C20ED11CAA23A6
:1005800019F0F601A1936F01F6013196E2FE08C061
:1005900089E4D6018C938EE411968C9386E407C08F
:1005A00089E6D6018C938EE611968C9386E681833C
:1005B0003296DF01892F20E202C02D9381508823DB
:1005C000E1F7E90FF11D10822EEF3FEFAFC01616D5
:1005D00017061CF041E050E003C0AB014F5F5F4FD6
:1005E000AA2019F480E090E003C08A2D90E00196E3
:1005F00020E030E0AA2311F021E030E0240F351F85
:10060000280F391F812F90E02817390714F020E0B8
:1006100002C0121B212F4B2D50E0CA018071907037
:10062000B4FC0DC0B3FC0BC0F601322F40E202C097
:10063000419331503323E1F7C20ED11C01C0322F58
:10064000AA2319F0F601A1936F01892B11F0132F42
:100650000AC0F601132F80E302C0819311501123C9
:10066000E1F7C30ED11C092D060FBA8090E1892E47
:10067000912C8E209F20E4FE04C0F1E3BF1609F404
:100680000150101614F001E003C0093008F008E032
:100690009B0177FF02C020E030E0CB010196821B76
:1006A000930BFE013196E80FF91F8EE2F82E3B0105
:1006B000601A71088A2D90E044275527481B590B72
:1006C0008FEF2F3F380719F4D601FD926D016217A5
:1006D00073072CF06216730614F4808101C080E366
:1006E0002150304031962417350724F0D6018D93E0
:1006F0006D01E6CF2617370749F4B5E3BB1528F09F
:10070000BB1621F48114910409F481E3F60181936D
:10071000D601812F90E202C09C93815011968823CC
:10072000D9F7E10FF11D108220E030E0C9012996D0
:10073000EEE00C94DB25283008F027E03327DA01BF
:10074000990F311D87FD916000966105710539F49F
:1007500032602E5F3D9330E32A95E1F708959F3F85
:1007600030F080387105610509F03C5F3C5F3D93D6
:10077000913008F08068911DDF93CF931F930F9302
:10078000FF92EF92192F987F9695E92F969596955F
:10079000E90FFF27E45EFE4F99273327EE24FF245D
:1007A000A701E70105900894079428F4360FE71E87
:1007B000F81E491F511D660F771F881F991F069449
:1007C000A1F70590079428F4E70EF81E491F561F5D
:1007D000C11D770F881F991F661F0694A1F705900A
:1007E000079428F4F80E491F561FC71FD11D880F04
:1007F000991F661F771F0694A1F70590079420F4B0
:10080000490F561FC71FD81F990F661F771F881FD4
:100810000694A9F784911095177041F0D695C79565
:1008200057954795F794E7941A95C1F7E2ECF0E0F5
:1008300068941590159135916591959105907FE299
:100840007395E118F10A430B560BC90BD009C0F799
:10085000E10CF11E431F561FC91FD01D7EF47033DB
:1008600011F48A95E6CFE894015030F0080F0AF4AD
:100870000027021708F4202F2395022F7A3328F03F
:1008800079E37D932A95E9F710C07D932A9589F63F
:10089000069497956795379517951794E118F10A7F
:1008A000430B560BC90BD00998F023957E91739595
:1008B0007A3308F070E37C932013B8F77E9170616F
:1008C0007D9330F0839571E37D9370E32A95E1F792
:1008D0001124EF90FF900F911F91CF91DF919927F5
:1008E00087FD90950895DC01FC01672F71917723B6
:1008F000E1F7329704C07C916D9370836291AE17DB
:10090000BF07C8F308958130910569F46F5F7F4F89
:1009100099F480E592E00E94EF0E8FE592E068E4A2
:100920000E94C5160895892B39F46F5F7F4F21F41B
:1009300080E592E00E94390F089580E090E06FEF2B
:100940007FEF0E948304089581E090E06FEF7FEFD6
:100950000E9483040895EF92FF920F931F9386E005
:1009600061E00E94C61882E692E063E070E040E039
:1009700050E020E030E00E94FC098FE592E00E9408
:10098000F916162F072FF82EE92E86E060E00E9458
:10099000C618212F302F4F2D5E2DB901CA011F918E
:1009A0000F91FF90EF9008956F927F928F929F9298
:1009B000AF92BF92CF92DF92EF92FF920F931F936D
:1009C000DF93CF93CDB7DEB76C970FB6F894DEBF49
:1009D0000FBECDBF782E692E0E94AB0423E1822E7C
:1009E000912C8C0E9D1E42E022E084010E940E019B
:1009F00087E0A82EB12CAC0EBD1EC50160E071E0F1
:100A00000E94E31F6E010894C11CD11CC6016091B5
:100A100058024AE00E944520C501B6010E94931F7A
:100A200062E071E00E94771F7C018E01035F1F4F1F
:100A3000C801B4010E94CA1FC701B8010E94931FD8
:100A400066E071E00E94771FBC01872D962D0E9401
:100A5000D420C8010E94E820C6010E94E820C501F8
:100A60000E94EE20872D962D6C960FB6F894DEBF6F
:100A70000FBECDBFCF91DF911F910F91FF90EF90EF
:100A8000DF90CF90BF90AF909F908F907F906F90AE
:100A900008952F923F924F925F926F927F928F9222
:100AA0009F92AF92BF92CF92DF92EF92FF920F93FD
:100AB0001F93DF93CF93CDB7DEB7E6970FB6F894C9
:100AC000DEBF0FBECDBF8DAB9EAB80E592E00E9436
:100AD0003C0F6C010E94AB04FBE2EF2EF12CEC0EFC
:100AE000FD1E42E022E087010E940E01E7E02E2E6B
:100AF000312C2C0E3D1EC10168E071E00E94E31F05
:100B00002E010894411C511CC201B7010E94CA1F4A
:100B1000C101B2010E94931F7BE0E72E71E0F72E26
:100B2000B7010E94771F8C016DE0662E712C6C0E50
:100B30007D1EC6016AE070E00E944925C3014AE0BB
:100B40000E941520C801B3010E94931F6DE071E05F
:100B50000E94771F8C0153E1852E912C8C0E9D1ED7
:100B6000C6016AE070E00E944925BC01C4014AE068
:100B70000E941520C801B4010E94931FB7010E9472
:100B8000771F8C0149E1A42EB12CAC0EBD1E6091E3
:100B900056028AE0689FB0011124C5014AE00E9414
:100BA0001520C801B5010E94931FB7010E94771F4D
:100BB0008C013FE1C32ED12CCC0EDD1EC60160910D
:100BC00057024AE00E944520C801B6010E94931FC7
:100BD000B7010E94771F7C018E010B5D1F4FC8017A
:100BE000609158024AE00E944520C701B8010E9466
:100BF000931FBC018DA99EA90E94D420C8010E9408
:100C0000E820C6010E94E820C5010E94E820C40136
:100C10000E94E820C3010E94E820C2010E94E8204F
:100C2000C1010E94EE208DA99EA9E6960FB6F89408
:100C3000DEBF0FBECDBFCF91DF911F910F91FF900F
:100C4000EF90DF90CF90BF90AF909F908F907F906C
:100C50006F905F904F903F902F90089580E592E0C5
:100C60006DEF73E00E949B1108959F92AF92BF9227
:100C7000CF92DF92EF92FF920F931F93DF93CF9368
:100C8000CDB7DEB7C854D0400FB6F894DEBF0FBE64
:100C9000CDBFA89580E592E06DEF73E00E94C80F8C
:100CA000882309F420C1EDE3CE2ED12CCC0EDD1E1D
:100CB000C6016BE173E00E94D420C6010E94FB1DB7
:100CC0008E010F5F1F4FC8016FE071E00E94CA1FC5
:100CD000C601B8010E94CB1EF82EC8010E94E82070
:100CE000FF2009F460C080E592E06DEF73E00E94A0
:100CF000910F8DEF93E064E171E00E949C1C8DEFF9
:100D000093E062E371E00E949C1C609156028AE0CD
:100D1000689FB00111248DEF93E04AE050E00E94FB
:100D2000891C8DEF93E06BE371E00E949C1C80E5D1
:100D300092E00E943C0FBC018DEF93E04AE050E04E
:100D40000E94891C8DEF93E065E471E00E949C1C79
:100D50000E94AB04AB01BC018DEF93E022E030E0D8
:100D60000E94831D8DEF93E063E571E00E949C1C5F
:100D70008DEF93E0609157024AE050E00E94371CEB
:100D80008DEF93E063E671E00E949C1C8DEF93E091
:100D9000609158024AE050E00E94371C8DEF93E0CA
:100DA0000E94881B94C08E01095F1F4FC8016DE728
:100DB00071E00E94CA1FC601B8010E94CB1EF82E26
:100DC000C8010E94E820FF20E9F08E01035F1F4F59
:100DD000FE01EF5BFF4F20813181C801B60145E084
:100DE00050E00E947620C8010E94EA1D60935602DE
:100DF000C8010E94E82081E692E062E170E0409143
:100E000056025DC08E010D5E1F4FC80163E871E0A0
:100E10000E94CA1FC601B8010E94CB1EF82EC8014D
:100E20000E94E820FF20E9F08E01075E1F4FFE01BF
:100E3000EF5BFF4F20813181C801B60145E050E0F2
:100E40000E947620C8010E94EA1D60935702C801E3
:100E50000E94E82081E692E063E170E04091570251
:100E60002EC08E01015E1F4FC80169E871E00E942B
:100E7000CA1FC601B8010E94CB1EF82EC8010E94ED
:100E8000E820FF2021F18E010B5D1F4FFE01EF5B7B
:100E9000FF4F20813181C801B60145E050E00E943A
:100EA0007620C8010E94EA1D60935802C8010E9482
:100EB000E82081E692E064E170E0409158020E94EF
:100EC000F00980E592E06DEF73E00E94C20F8BE1C4
:100ED00093E060E971E00E94FC1F10922103CE01B3
:100EE000CD960E94E82080E592E00E942F12882390
:100EF00009F4E6C00E94D61760935B0270935C020F
:100F000080935D0290935E02809163028337E1F4E7
:100F100080E592E00E940C128E01035C1F4FC80115
:100F20000E944905FE01EF5BFF4F40814093B502EF
:100F300050E04F5F5F4FC80166EB72E020E030E0A9
:100F40000E940F1EC801B6C0809163028D3609F061
:100F500078C1809164028D3309F073C18E01035C06
:100F60001F4FC80160E971E00E94CA1F72E0C72EDE
:100F7000D12C6BE2A62EB12CAC0EBD1E902E012FF3
:100F800053E6E52E52E0F52EEC0CFD1CF7018081B6
:100F90008A3021F080818D3009F058C1CE01CD9684
:100FA0000E94EA1DAB016F3F710508F07DC06093A0
:100FB000560281E692E062E170E06FC080916402C7
:100FC0008D3309F05EC18E01035C1F4FC80160E9DB
:100FD00071E00E94CA1F42E0C42ED12C31E3A32E3F
:100FE000B12CAC0EBD1E902E012F23E6E22E22E086
:100FF000F22EEC0CFD1CF70180818A3021F08081FB
:101000008D3009F043C1CE01CD960E94EA1DAB019F
:101010006F3F710508F048C06093570281E692E087
:1010200063E170E03AC080916402833709F049C1FE
:10103000809165028D3309F044C18E01035C1F4F1E
:10104000C80160E971E00E94CA1F93E0C92ED12C4B
:1010500087E3A82EB12CAC0EBD1E902E012F13E6F7
:10106000E12E12E0F12EEC0CFD1CF70180818A309C
:1010700021F080818D3009F029C1CE01CD960E94EA
:10108000EA1DAB01CB0101978E3F910568F44093B7
:10109000580281E692E064E170E00E94F00980E588
:1010A00092E00E94D40E04C080E592E00E94DE0E21
:1010B000CE01CD960E94E82080E592E00E940C12BD
:1010C00080915602882309F41CC10E94D617E09033
:1010D0000C02F0900D0200910E0210910F0220916F
:1010E0005B0230915C0240915D0250915E02621B96
:1010F000730B840B950B6E157F058007910708F421
:1011000000C1F0E6EF16FAEEFF06F0E00F07F0E0A0
:101110001F0761F484E690E0A0E0B0E080930C0249
:1011200090930D02A0930E02B0930F0210925A02F8
:1011300010925902B8E1EB2E08E110E0AFE0FA2E70
:101140008DEA92E00E948B0B0FB6F894E09260005B
:10115000109260000FBE82E692E069E070E040E02D
:1011600050E020E030E00E94FC0982E692E067E077
:1011700070E040E050E020E030E00E94FC090FB653
:10118000F894A895009360000FBEF0926000209143
:10119000560230E08091590290915A020196909344
:1011A0005A02809359022817390709F0C9CF809154
:1011B0005702882301F18E01035C1F4FC8010E9472
:1011C000D404FE01EF5BFF4F40814093B50250E035
:1011D0004F5F5F4FC80166EB72E020E030E00E9495
:1011E0000F1E6091570280E592E070E00E94D011DE
:1011F000C8010E94E8208E010D5B1F4FC8010E94AC
:101200004905F80144814093B50250E04F5F5F4FBC
:10121000C80166EB72E020E030E00E940F1E80E51E
:1012200092E00E9407120E94D61760935B027093AF
:101230005C0280935D0290935E02C8010E94E820E8
:1012400060C0809163028437E1F4B8CEC501692D96
:10125000702F0E94DE20F7016081C5010E94661F89
:10126000BC01892D902F0E94BD20C5010E94EE2057
:101270000894C11CD11CFFEFCF16D10409F080CE19
:101280008DCE809163028437E1F4CDCEC501692D06
:10129000702F0E94DE20F7016081C5010E94661F49
:1012A000BC01892D902F0E94BD20C5010E94EE2017
:1012B0000894C11CD11CFFEFCF16D10409F095CEC4
:1012C000A2CE80E592E00E94DE0EF6CEC501692D29
:1012D000702F0E94DE20F7016081C5010E94661F09
:1012E000BC01892D902F0E94BD20C5010E94EE20D7
:1012F0000894C11CD11CFFEFCF16D10409F0AFCE6A
:10130000BCCEC85BDF4F0FB6F894DEBF0FBECDBFBB
:10131000CF91DF911F910F91FF90EF90DF90CF90D1
:10132000BF90AF909F9008958FE028E130E00FB616
:10133000F894A895209360000FBE809360008DEF15
:1013400093E040E052EC61E070E00E94E41986E72F
:1013500093E00E9452148DEF93E061E971E00E94E6
:10136000861D80E592E00E94721386E061E00E9493
:10137000871886E060E00E94C61881E692E062E18C
:1013800070E00E94E909809356028F3F11F4109299
:10139000560281E692E063E170E00E94E9098093E1
:1013A00057028F3F11F41092570281E692E064E1F8
:1013B00070E00E94E909809358028F3F19F481E0A0
:1013C0008093580264E670E080E090E00E941F186D
:1013D0000895F999FECF72BD61BDF89A80B5089560
:1013E000F999FECF1FBA72BD61BD40BD0FB6F8942A
:1013F000FA9AF99A0FBE08954115510529F4809182
:101400007A008F7780937A006A307105B9F063FDB6
:1014100002C0E8E001C0E8E2862F8770E82B88E18F
:1014200090E00FB6F894A895809360000FBEE0930B
:10143000600080916000806480936000232BA1F4A1
:1014400083B7817F846083BFF89483B7816083BF53
:1014500085B7806685BF8F7D85BF7894889583B773
:101460008E7F83BF78940EC083B7817F846083BFF3
:10147000F89483B7816083BF7894889583B78E7F13
:1014800083BF7894452B29F480917A0080688093FB
:101490007A0008951F920F920FB60F9211248F9326
:1014A00088E10FB6F89480936000109260000FBE40
:1014B0008F910F900FBE0F901F901895E091A90289
:1014C000F091AA02A081B1812D913C91CF01F90147
:1014D00009950895FC01828161E00E94C618789404
:1014E0000895FC01F894828160E00E94C618089576
:1014F0000F931F93CF93DF93EC01162F042F0E94BD
:10150000710A10681EBD0DB407FEFDCF8EB50EBD6D
:101510000DB407FEFDCF8EB5CE010E946A0ADF91A1
:10152000CF911F910F9108951F93CF93DF93EC01FB
:10153000162F662311F445E501C04DE5CE016AE59D
:101540000E94780A112311F440E701C04CE7CE0154
:101550006CE50E94780ADF91CF911F9108951F9347
:10156000CF93DF93EC01162F0E94710A1F771EBDE7
:101570000DB407FEFDCF8EB51EBC0DB407FEFDCF2A
:101580001EB5CE010E946A0A812FDF91CF911F9173
:101590000895CF93DF93EC016F83662311F44AE142
:1015A00001C04FE0CE0163E10E94780A8F81882359
:1015B00041F0CE0161E10E94AF0A482F4F714066B1
:1015C00002C04E814068CE0161E10E94780ADF913D
:1015D000CF910895CF93DF93EC01662351F063E23E
:1015E00041E00E94780ACE0163E20E94AF0A81FFC7
:1015F000FACFCE0164E20E94AF0A282F30E0309586
:1016000021953F4F35952795C901DF91CF910895D9
:101610001F93CF93DF93EC01162F8091A0026817E0
:1016200009F459C0623089F1633030F46623E9F17E
:10163000613009F050C031C06330A1F0643009F06E
:101640004AC0CE0161E00E94AF0A482F437E4C6041
:10165000CE0161E00E94780A8F81882381F1CE015A
:1016600061E010C0CE0161E00E94AF0A482F437EC6
:101670004061CE0161E00E94780A8F818823F9F0F1
:10168000CE0160E00E94940A1AC0CE0161E00E947F
:10169000AF0A482F437E48600EC0CE0161E00E9431
:1016A000AF0A482F437E446006C0CE0161E00E942D
:1016B000AF0A482F437ECE0161E00E94780A8091F4
:1016C000A002882331F4CE0167E20E94AF0A88238A
:1016D000B4F71093A002DF91CF911F910895CF939B
:1016E000DF93EC018091A002833089F48091A40201
:1016F000882369F4CE0160E00E94EA0A865A9F4F6F
:1017000034F4CE0161E00E94080B81E001C080E06A
:10171000DF91CF91089560E00E94080B0895CF9368
:10172000DF93EC011092A1021092A2021092A30288
:101730001092A4021092A5021092A6021092A80282
:101740001092A70268E20E94AF0A82FF0AC0CE018F
:101750006DE30E94AF0A482F4460CE016DE30E9402
:10176000780ACE0165E240E40E94780ACE0163E087
:101770000E94080BDF91CF9108959C01F89480910D
:10178000A002833051F48091A402882331F0C90172
:1017900061E00E94080B81E00895C9010E948F0B4F
:1017A00080E008951F93162F0E94BD0B882361F0DF
:1017B0008091A202811711F0112331F48091A602C9
:1017C000882319F081E001C080E01F9108950F93F4
:1017D0001F93CF93DF93EC018B0161E00E94080B14
:1017E00001151105E1F0CE010E94710A8EEB8EBD4C
:1017F0000DB407FEFDCF8EB520E030E0F801E20F1A
:10180000F31F80818EBD0DB407FEFDCF8EB52F5F17
:101810003F4F2031310591F7CE010E946A0ACE0177
:101820006DE30E94AF0A482F4E7F80E0012B09F044
:1018300081E0482BCE016DE30E94780ADF91CF91C1
:101840001F910F910895CF93DF93EC018091A00237
:10185000833009F067C0CE0168E20E94AF0A82FFC0
:1018600061C0CE0161E00E94080BCE010E94710AA6
:101870001EBC0DB407FEFDCF8EB51EBC0DB407FE19
:10188000FDCF8EB58093A4028091A402833410F022
:1018900082E402C08091A4028093A4021EBC0DB415
:1018A00007FEFDCF8EB58093A3028D81882309F0BA
:1018B00042C09091A3028C819817E9F18091A30214
:1018C0008823C9F11092A402CE010E946A0A3AC08C
:1018D0000DB407FEFDCF8EB58093A2021EBC0DB4E1
:1018E00007FEFDCF8EB5982F90789093A602807456
:1018F0008093A50290E00BC01EBC0DB407FEFDCF87
:101900008EB5E92FF0E0ED59FD4F80839F5F809108
:10191000A102981788F3CE010E946A0ACE0163E003
:101920000E94080BCE0160E00E94EA0A9093A80290
:101930008093A70207C08091A40283508093A102E4
:101940001EBCC6CFDF91CF910895CF92DF92EF9268
:10195000FF920F931F93CF93DF93EC01F62ED42EBB
:10196000C52E122F61E00E94080BCE0167E20E9493
:10197000AF0A87FFFACFCE0165E240E00E94780A05
:101980001E3308F01DE3CE010E94710A80E88EBD6F
:101990000DB407FEFDCF8EB51D5F1EBD13500DB4F7
:1019A00007FEFDCF8EB5FEBC0DB407FEFDCF8EB594
:1019B0008C818EBD0DB407FEFDCF8EB5EE2031F0CB
:1019C00080E88EBD0DB407FEFDCF07C0002361F097
:1019D00080E48EBD0DB407FEFDCF8EB58D2D9C2D00
:1019E0009C01F90190E00DC01EBC0DB407FEFDCFB7
:1019F000F4CF80818EBD0DB407FEFDCF8EB59F5F05
:101A000031969117B0F3CE010E946A0ACE0164E0CC
:101A10000E94080B8B810E941A19892BD9F3CE01E1
:101A200061E00E94080BDF91CF911F910F91FF9011
:101A3000EF90DF90CF900895EF92FF920F931F9356
:101A4000CF93DF93EC018B01F42EE090A20203C050
:101A5000CE010E94BD0BCE010E946F0B8823C1F303
:101A6000CE016E2DA8012F2D00E0EE24E3940E94FC
:101A7000A50CDF91CF911F910F91FF90EF900895EA
:101A8000DF92EF92FF920F931F93CF93DF93EC01BE
:101A9000162F7A01D22E6DE30E94AF0A482F4460C0
:101AA000CE016DE30E94780A03C0CE010E94BD0BF7
:101AB000CE010E946F0B8823C1F3CE01612FA701D5
:101AC0002D2DEE240E94A50CDF91CF911F910F9137
:101AD000FF90EF90DF9008954F925F926F927F9208
:101AE0008F929F92AF92BF92CF92DF92EF92FF922E
:101AF0000F931F93CF93DF93EC01862E3A01422E72
:101B0000502E9924AE2CBB24CC24DD24CE01682D8C
:101B1000A301242D01E00E94400D0E94D6177B01F5
:101B20008C0108C0CE01682D0E94D20B882311F0D1
:101B300081E00FC00E94D6176E197F09800B910BB0
:101B40006A157B058C059D0568F393945914F0F68E
:101B500080E0DF91CF911F910F91FF90EF90DF9088
:101B6000CF90BF90AF909F908F907F906F905F903D
:101B70004F900895CF92DF92EF92FF920F931F93B1
:101B8000DF93CF93CDB7DEB7AA970FB6F894DEBF39
:101B90000FBECDBF7C01042F522F6F3119F430ECF2
:101BA0004EE40EC06B3211F44CE6C6C0663509F047
:101BB000BFC049ED04C0663511F030EC01C030E023
:101BC000FE0131968AE2DF011D928A95E9F781E0F4
:101BD000898394E09A8382E08B8323E02D838E8334
:101BE0009F8390E4988785E089872A8786E08B87A2
:101BF00083E38C8787E08D8788E08F8789E0898BF6
:101C000089E18B8B22E42C8B85E28D8B9E8B89E284
:101C10008F8B8CED888F8EE2898F88E88A8F8FE298
:101C20008B8F8DE28C8F90E39D8F87E38F8F80E980
:101C300088A388E389A32AA38CE38BA38FE88CA3D2
:101C40008DE38DA382E18EA38FE68FA398A78FEFFC
:101C500089A74E87388B5E8FF701828161E00E94F1
:101C6000871880E00E94A70E81E00E949E0E84E00B
:101C70000E94AC0E0E94BD0EC7016FE24AEA0E94AC
:101C8000780AC7016FE20E94AF0A8A3AA9F7C70132
:101C90006FE245E50E94780AC7016FE20E94AF0A31
:101CA0008535A9F710E06E010894C11CD11C05C050
:101CB000C70141810E94780A1F5FE12FF0E0EE0F1B
:101CC000FF1FEC0DFD1D60816F3F91F7C70160E0C4
:101CD00070E00E94E70BC701D70117966C910E9434
:101CE000C90AC70161E00E94080BC70167E20E94B0
:101CF000AF0A87FFFACF80E06EE57AE043E050E07C
:101D00000E941117F092AA02E092A902F70104833F
:101D100081E0AA960FB6F894DEBF0FBECDBFCF917B
:101D2000DF911F910F91FF90EF90DF90CF9008957A
:101D300044EE6B3209F03FCF30E442CF882319F4F0
:101D40008CB5806202C08CB58F7D8CBD08959CB52A
:101D5000937F982B9CBD08952CB5382F33702C7F22
:101D6000322B3CBD2DB590E095958795959587953F
:101D700081702E7F822B8DBD08958AE061E00E94E4
:101D8000C6188AE061E00E9487188CB580618CBD1E
:101D90008CB580648CBD8DE061E00E9487188BE07B
:101DA00061E00E94871808958FE48093B6028BE467
:101DB0008093B70282E08093B502089585E4809312
:101DC000B60292E59093B7029093B8028FE48093A5
:101DD000B9029093BA0285E08093B502089569E94B
:101DE00071E00E94CA1F08958130910531F56F5F3F
:101DF0007F4F81F58DE292E09093AE028093AD0229
:101E00008AE08093AF0282E08093B00281E0809309
:101E1000A0021092B2028FE18093B3021092B4023A
:101E20008BE193E069E971E00E94CA1F83E293E0CD
:101E300069E971E00E94CA1F0895892B59F46F5F08
:101E40007F4F41F483E293E00E94E8208BE193E02E
:101E50000E94E820089580E090E06FEF7FEF0E94FD
:101E6000F40E089581E090E06FEF7FEF0E94F40E92
:101E700008950E94E82008958EE480937C0062E03B
:101E800070E080E090E00E941F1880917A008064EA
:101E900080937A0080917A0086FDFCCF8091780053
:101EA00060917900362F20E090E0282B392B4427D1
:101EB00037FD4095542F65EF7BE280E090E00E9473
:101EC0007E25C901089588E10FB6F89480936000DB
:101ED000109260000FBE8BE193E069E971E00E940F
:101EE000FC1F109221032EE088E190E00FB6F894D9
:101EF000A895809360000FBE20936000FFCFCF9322
:101F0000DF93C0E0D0E081E692E0BE014FEF0E9497
:101F1000F009219684E0C030D807A9F7DF91CF916E
:101F200008950F931F93CF93DF938B01CB016AE941
:101F300071E00E949C1CC8016091AC024AE050E034
:101F40000E94371CC80166EA71E00E949C1CC8010F
:101F50006091AB024AE050E00E94371CC80160EB80
:101F600071E00E949C1CC0E1D2E0C80169910E940E
:101F7000801B82E0C032D807C1F7DF91CF911F915B
:101F80000F910895CB0161EC71E00E94861D0895C8
:101F90008F929F92AF92BF92CF92DF92EF92FF9279
:101FA0000F931F93DF93CF93CDB7DEB7CE54D040BE
:101FB0000FB6F894DEBF0FBECDBF4C015B01809120
:101FC0002103882311F410E0A1C16E010894C11C03
:101FD000D11CC6016BE173E00E94D420C6010E94AF
:101FE000FB1D8BE193E069E971E00E943C1E8823B0
:101FF00071F58E01095F1F4FC80164EC71E00E940A
:10200000CA1FC601B8010E94CB1EF82EC8010E944B
:10201000E820FF20E1F18E01035F1F4F20911F0395
:1020200030912003C8016BE173E045E050E00E946D
:102030007620C8010E94EA1DF62EC8010E94E82001
:10204000FF2071F4C5016BEB71E00E94861D8BE1EE
:1020500093E069E971E00E94FC1F1092210351C1D5
:1020600081E692E061E070E04F2D0E94F009C50129
:1020700061EC71E00E94861D8BE193E069E971E0FB
:102080000E94FC1F10922103F092AB02D4C08E017B
:102090000D5E1F4FC8016AEC71E00E94CA1FC601A5
:1020A000B8010E94CB1EF82EC8010E94E820FF2034
:1020B00089F18E01075E1F4F20911F03309120038D
:1020C000C8016BE173E045E050E00E947620C80152
:1020D0000E94EA1DF62EC8010E94E8208F2D815033
:1020E0008E3F08F0AFCF81E692E060E070E04F2DC8
:1020F0000E94F009C50161EC71E00E94861D8BE130
:1021000093E069E971E00E94FC1F10922103F092B4
:10211000AC0291C08E01015E1F4FC80160ED71E0FD
:102120000E94CA1FC601B8010E94CB1EF82EC8012A
:102130000E94E820FF2009F071C08E010B5D1F4F47
:10214000C80167ED71E00E94CA1FC601B8010E9474
:10215000CB1EF82EC8010E94E820FF20B1F08E01AE
:10216000055D1F4F20911F0330912003C8016BE1D3
:1021700073E049E050E00E947620C8010E94EA1D09
:1021800070932F0360932E032DC08E010F5C1F4FA1
:10219000C80161EE71E00E94CA1FC601B8010E9429
:1021A000CB1EF82EC8010E94E820FF2011F1E0901C
:1021B0002E03F0902F038E01095C1F4F20911F0307
:1021C00030912003C8016BE173E04AE050E00E94C7
:1021D0007620C8010E94EA1D462F81E692E0B701F1
:1021E0000E94F009C8010E94E820C50161EC71E07D
:1021F0002CCF8E01035C1F4FC8016CEE71E00E9472
:10220000CA1FC601B8010E94CB1EF82EC8010E9449
:10221000E820FF20A1F0C4010E947F0FC50161ECFE
:1022200071E00E94861D8BE193E069E971E00E94F4
:10223000FC1F10922103C4010E94630F62C08E0133
:102240000D5B1F4FC80163EF71E00E94CA1FC601FA
:10225000B8010E94CB1EF82EC8010E94E820FF2082
:1022600011F411E04FC08E01075B1F4F20911F0337
:1022700030912003C8016BE173E045E050E00E941B
:102280007620F80184819581409749F505E010E0BA
:102290008BE193E0B8010E94D91D482FF801E55F5A
:1022A000FD4F80830350104081E692E0B8010E9408
:1022B000F0090C5F1F4F0531110551F7C50161ECA5
:1022C00071E00E94861D8BE193E069E971E00E9454
:1022D000FC1F10922103C4010E94630F0DC0C501B1
:1022E0006BEB71E00E94861D8BE193E069E971E080
:1022F0000E94FC1F10922103CE01875B9F4F0E941A
:10230000E82010E0CE0101960E94E820812FC25BF8
:10231000DF4F0FB6F894DEBF0FBECDBFCF91DF9178
:102320001F910F91FF90EF90DF90CF90BF90AF90F3
:102330009F908F9008951F93CF93DF93EB0111E04F
:1023400022C0E881F9810680F781E02DCE01099550
:10235000682F803259F480912203803339F4F89445
:10236000E0912102F0912202099516C060932203A8
:102370006A3011F06D3019F41093210304C08BE121
:1023800093E00E94411FE881F9810480F581E02DEE
:10239000CE010995892BA9F6DF91CF911F91089560
:1023A000EF920F931F93CF93DF93162FC0E0D0E0EF
:1023B0002091B502222321F18DEA92E0612F46EBB4
:1023C00052E002E03FE0E32E0E946C0D882319F0FA
:1023D0001092B50215C02196C930D10521F4109292
:1023E000B50280E00EC063E270E080E090E024E699
:1023F00030E040E050E00E94BB1D0E941F18D8CF83
:1024000081E0DF91CF911F910F91EF9008956FEFD1
:1024100070E00E94D0110895CF93DF93EC0180917A
:10242000A502882339F08DEA92E069E971E040E085
:102430000E941C0D8091B502882329F0CE010E94D4
:1024400007121092630280911A03882329F01092D8
:102450001A03CE010E94630FDF91CF910895EF928E
:10246000FF920F931F93DF93CF9300D000D000D043
:10247000CDB7DEB7F82EE92E0E94D61720912A0399
:1024800030912B0340912C0350912D03621B730B51
:10249000840B950B685E73408040904090F08F2DC8
:1024A0009E2D69E971E00E94FC1F109229030E9491
:1024B000D61760932A0370932B0380932C03909379
:1024C0002D038DEA92E00E94BD0B882311F400E0F9
:1024D0007CC08E010F5F1F4FC80163E672E00E944F
:1024E000CA1FC8016F2D7E2D0E94921E882339F0CD
:1024F0009091A20280912903891709F474C08F2D4D
:102500009E2DBE016F5F7F4F0E94BD208091A20271
:10251000809329030E94D61760932A0370932B039C
:1025200080932C0390932D0380916302803709F0F0
:102530005DC0809164028E3609F058C08FE48093AC
:10254000B6028BE48093B70282E08093B50232C07A
:10255000809164028E3609F04EC045C080916402BD
:10256000853609F04DC080916502833709F048C077
:102570008FE48093B6028BE48093B70282E080936D
:10258000B50215C0809164028536D1F48091650250
:102590008636B1F48FE48093B6028BE48093B70261
:1025A00082E08093B5028F2D9E2D0E947F0F81E0E7
:1025B00080931A038F2D9E2D0E940C1200E001C003
:1025C00001E0CE0101960E94E820802F26960FB6EA
:1025D000F894DEBF0FBECDBFCF91DF911F910F9159
:1025E000FF90EF9008951092B502E4CF80916302BE
:1025F0008E3609F4ADCF80916302823709F4AECFF5
:10260000809163028436E1F6BDCF0F931F93CF9381
:10261000DF93162F042F88E10FB6F89480936000A3
:10262000109260000FBE60E971E080E090E00E94CF
:102630001F1828E288E190E00FB6F894A8958093DF
:1026400060000FBE2093600081E692E060E070E0E1
:102650000E94E9098093AC028F3F11F41093AC0201
:10266000002311F01093AC0281E692E061E070E08B
:102670000E94E9098093AB028F3F19F481E08093B7
:10268000AB0281E692E062E070E00E94E9098F3FD0
:1026900079F0C2E0D0E081E692E0BE010E94E90953
:1026A000FE01E25FFD4F80832196C231D10599F78B
:1026B0008DEA92E06BE24091AC022091AB020E9465
:1026C000BA0D8DEA92E060E172E00E94E70B8BE1C7
:1026D00093E064E670E00E94F81EDF91CF911F91B5
:1026E0000F91089561E070E040E00E9405130895A5
:1026F00081E08093750360935203109273031092EC
:10270000740308952091510330E080915003281BF9
:102710003109C90108954091500380915103481730
:1027200018F02FEF3FEF0AC0E42FF0E0E05DFC4F20
:102730008081282F30E04F5F40935003C9010895F6
:10274000E091500380915103E81718F0EFEFFFEF8D
:1027500006C0F0E0E05DFC4F8081E82FF0E0CF01A3
:1027600008950895109279031092780388EE93E00B
:10277000A0E0B0E080937A0390937B03A0937C0366
:10278000B0937D0383E392E0909377038093760385
:102790000895CF92DF92EF92FF920F931F93CF9302
:1027A000DF937C016B018A01809175038823A1F07E
:1027B000C0E0D0E00DC0D701ED91FC91D601AC0F87
:1027C000BD1F0190F081E02DC7016C910995219604
:1027D000C017D10780F304C0CB01642F0E94FB1403
:1027E000C801DF91CF911F910F91FF90EF90DF9083
:1027F000CF900895DF93CF930F92CDB7DEB7FC0152
:102800006983809175038823C9F0809174038032B5
:1028100038F081E090E09383828320E030E015C0BF
:1028200080917303E82FF0E0ED5AFC4F998190837B
:102830008F5F809373038093740305C0CE0101966C
:1028400061E00E94FB1421E030E0C9010F90CF91BC
:10285000DF9108950F93062F8091520363E573E093
:102860004091740321E00E94A61410927303109209
:102870007403109275030F91089561E00E942A1469
:102880000895413208F040E2862F60E373E00E9431
:102890005D141092500380935103089521E00E942B
:1028A0004114089510925003109251031092730333
:1028B000109274030E94A7160895382F413210F029
:1028C00040E042C0809182038823E1F791E0909339
:1028D0008203209384038FEF8093EF031092AA0367
:1028E00041504093AB034F5F9093830380918303E8
:1028F000330F832B8093830380918503813041F4D0
:1029000010928503809183038093BB0085EC01C006
:1029100085EE8093BC00809182038130E1F3809149
:10292000AA03841710F44091AA0320E030E00AC003
:10293000FB01E20FF31FD901A657BC4F8C91808396
:102940002F5F3F4F2417A0F3842F08950F931F93F9
:10295000582F122F413210F081E04AC0809182033B
:102960008823E1F782E080938203009384038FEF52
:102970008093EF031092AA034093AB03AAE8B3E05D
:10298000FB0102C081918D938E2F861B8417D0F39B
:102990001092830380918303550F852B80938303CB
:1029A00080918503813041F41092850380918303E7
:1029B0008093BB0085EC01C085EE8093BC001123A1
:1029C00021F0809182038230E1F38091EF038F3F09
:1029D00011F480E00DC08091EF03803211F482E0A9
:1029E00007C08091EF03803311F084E001C083E0E1
:1029F0001F910F910895482F613210F081E00895E2
:102A000080918203843011F082E008956093CD03B9
:102A1000ACEAB3E0842F9C01F90102C081918D934F
:102A20008E2F841B8617D0F380E008951F920F929B
:102A30000FB60F9211242F933F934F935F936F9391
:102A40007F938F939F93AF93BF93EF93FF93809167
:102A5000B90090E0887F90708036910509F4F2C04B
:102A600081369105CCF58832910509F47BC0893215
:102A70009105B4F48031910509F46FC0813191055D
:102A80003CF4009709F447C1089709F04FC165C0AD
:102A90008831910509F466C0809709F047C182C06A
:102AA0008034910509F4A4C08134910544F4803345
:102AB000910509F482C0C89709F038C189C08035F2
:102AC000910509F489C08835910509F496C08834C8
:102AD000910509F02BC1AEC08839910509F413C1E5
:102AE00089399105ECF48837910509F4ABC0893731
:102AF00091054CF48836910509F4A4C080379105FE
:102B000009F014C19FC08838910509F4FCC08039D0
:102B1000910509F49DC08038910509F007C198C05E
:102B2000803B910509F4C6C0813B91054CF4803A85
:102B3000910509F49FC0883A910509F0F7C0BAC021
:102B4000803C910509F4E3C0883C910509F4DFC09D
:102B5000883B910509F0EAC0C2C08091830380934D
:102B6000BB00CFC09091AA038091AB03981768F483
:102B70009091AA03E92FF0E0E657FC4F8081809303
:102B8000BB009F5F9093AA03BCC0809184038823FD
:102B900009F44BC085ED8093BC008091BC0084FD9E
:102BA000FCCFC2C080E28093EF0385ED8093BC0030
:102BB0008091BC0084FDFCCFB7C080E38093EF031D
:102BC00085ED8093BC008091BC0084FDFCCFACC03F
:102BD00088E38093EF039BC08091AA039091BB0090
:102BE000E82FF0E0E657FC4F90838F5F8093AA03B5
:102BF0009091AA038091AB0382C08091AA03909127
:102C0000BB00E82FF0E0E657FC4F90838F5F809386
:102C1000AA0380918403882341F085ED8093BC0052
:102C20008091BC0084FDFCCF7FC081E08093850350
:102C300084EA6EC085ED8093BC008091BC0084FD69
:102C4000FCCF72C083E0809382031092EE0359C0E0
:102C50008091EE03803208F056C08091EE0390918F
:102C6000BB00E82FF0E0E253FC4F90838F5F80932E
:102C7000EE0347C08091EE03803230F4E091EE0322
:102C8000F0E0E253FC4F108285ED8093BC00809110
:102C9000BC0084FDFCCF109282036091EE03E091B2
:102CA0008803F09189038EEC93E070E0099510920F
:102CB000EE032DC084E0809382031092CC03109227
:102CC000CD03E0918603F091870309958091CD03B0
:102CD000882329F481E08093CD031092AC03909176
:102CE000CC03E92FF0E0E455FC4F80818093BB00DA
:102CF0009F5F9093CC039091CC038091CD03981764
:102D000010F485EC01C085E88093BC000FC085EC11
:102D10008093BC0009C01092EF0385ED8093BC0046
:102D20008091BC0084FDFCCF10928203FF91EF9153
:102D3000BF91AF919F918F917F916F915F914F91D3
:102D40003F912F910F900FBE0F901F9018951092EA
:102D5000820381E0809384031092850382E161E025
:102D60000E94C61883E161E00E94C618E9EBF0E01A
:102D700080818E7F808380818D7F808388E48093B3
:102D8000B80085E48093BC000895FC016083118243
:102D90000895DF92EF92FF920F931F937C01D62E3E
:102DA00006E713E0FC0160817181C8010E9478137D
:102DB000C8016D2D0E94FA13C8010E943D14F7014D
:102DC00060817181C80142E050E00E944E14C80148
:102DD0000E948B13F82EC8010E948B133F2D20E018
:102DE000282B392BC9011F910F91FF90EF90DF9095
:102DF000089560E00E94C916AA2797FDA095BA2FF2
:102E0000BC01CD010E940F2420E030E040E05DE3F2
:102E10000E94C32420E030E040E05EE30E94C3242F
:102E20000895823000F5E82FF0E0EE0FFF1FE0512B
:102E3000FC4F71836083882319F08130A1F408C0AE
:102E4000809169008C7F842B80936900E89A0895B3
:102E500080916900440F551F440F551F837F842BB9
:102E600080936900E99A08951F920F920FB60F920E
:102E700011242F933F934F935F936F937F938F937F
:102E80009F93AF93BF93EF93FF938091F003909143
:102E9000F103892B29F0E091F003F091F1030995FA
:102EA000FF91EF91BF91AF919F918F917F916F9122
:102EB0005F914F913F912F910F900FBE0F901F90F8
:102EC00018951F920F920FB60F9211242F933F93D4
:102ED0004F935F936F937F938F939F93AF93BF9322
:102EE000EF93FF938091F2039091F303892B29F0E4
:102EF000E091F203F091F3030995FF91EF91BF91F7
:102F0000AF919F918F917F916F915F914F913F9181
:102F10002F910F900FBE0F901F9018951F920F9238
:102F20000FB60F9211242F933F938F939F93AF93DC
:102F3000BF938091F8039091F903A091FA03B091A7
:102F4000FB033091FC030196A11DB11D232F2D5FC2
:102F50002D3720F02D570196A11DB11D2093FC03A4
:102F60008093F8039093F903A093FA03B093FB03C3
:102F70008091F4039091F503A091F603B091F703CB
:102F80000196A11DB11D8093F4039093F503A093C6
:102F9000F603B093F703BF91AF919F918F913F914B
:102FA0002F910F900FBE0F901F9018958FB7F89428
:102FB0002091F8033091F9034091FA035091FB03FB
:102FC0008FBFB901CA010895789484B5826084BD29
:102FD00084B5816084BD85B5826085BD85B581601D
:102FE00085BDEEE6F0E0808181608083E1E8F0E07D
:102FF0001082808182608083808181608083E0E8AC
:10300000F0E0808181608083E1EBF0E0808184608A
:103010008083E0EBF0E0808181608083EAE7F0E08C
:1030200080818460808380818260808380818160F0
:1030300080838081806880831092C1000895EF9220
:10304000FF920F931F93CF93DF937B018C013FB7C8
:10305000F8948091F4039091F503A091F603B09158
:10306000F70326B5A89B05C02F3F19F00196A11DB7
:10307000B11D3FBFBA2FA92F982F8827820F911D0E
:10308000A11DB11D52E0880F991FAA1FBB1F5A95A1
:10309000D1F7EC0130C00E940A233FB7F894809129
:1030A000F4039091F503A091F603B091F70326B5D0
:1030B000A89B05C02F3F19F00196A11DB11D3FBF70
:1030C000BA2FA92F982F8827820F911DA11DB11DFE
:1030D00032E0880F991FAA1FBB1F3A95D1F78C1BAE
:1030E0009D0B885E9340B8F20894E108F10801094D
:1030F0001109C851DC4FE114F1040105110559F61D
:10310000DF91CF911F910F91FF90EF900895CF9392
:10311000DF93482F50E0CA0186569F4FFC0134913F
:103120004A575F4FFA018491882369F190E0880F34
:10313000991FFC01E859FF4FA591B491FC01EE588D
:10314000FF4FC591D491662351F42FB7F8948C9119
:10315000932F909589238C93888189230BC06230AB
:1031600061F42FB7F8948C91932F909589238C93C9
:103170008881832B88832FBF06C09FB7F8948C91DA
:10318000832B8C939FBFDF91CF910895482F50E000
:10319000CA0182559F4FFC012491CA0186569F4F58
:1031A000FC0194914A575F4FFA013491332309F49B
:1031B00040C0222351F1233071F0243028F4213013
:1031C000A1F0223011F514C02630B1F02730C1F043
:1031D0002430D9F404C0809180008F7703C080919F
:1031E00080008F7D8093800010C084B58F7702C0EF
:1031F00084B58F7D84BD09C08091B0008F7703C0F6
:103200008091B0008F7D8093B000E32FF0E0EE0F4F
:10321000FF1FEE58FF4FA591B4912FB7F894662386
:1032200021F48C919095892302C08C91892B8C93E9
:103230002FBF0895682F70E0CB0182559F4FFC018E
:103240002491CB0186569F4FFC0144916A577F4FD2
:10325000FB019491992319F420E030E03CC0222333
:1032600051F1233071F0243028F42130A1F02230C4
:1032700011F514C02630B1F02730C1F02430D9F454
:1032800004C0809180008F7703C0809180008F7D83
:103290008093800010C084B58F7702C084B58F7D85
:1032A00084BD09C08091B0008F7703C08091B000C9
:1032B0008F7D8093B000892F90E0880F991F8458EC
:1032C0009F4FFC01A591B4918C9120E030E08423C4
:1032D00011F021E030E0C90108951F920F920FB65E
:1032E0000F9211242F933F934F938F939F93EF93BC
:1032F000FF938091C00082FD19C04091C60080916B
:103300001B04282F30E02F5F3F4F2F7330708091C8
:103310001C0490E02817390759F0E0911B04F0E0F5
:10332000E350FC4F42A320931B0402C08091C600CF
:10333000FF91EF919F918F914F913F912F910F901E
:103340000FBE0F901F90189580911B0420911C04B4
:1033500090E0805C9F4F821B91098F739070892B46
:1033600011F00E942E0608951F920F920FB60F9231
:1033700011242F938F939F93EF93FF9390911D04AC
:1033800080911E04981731F48091C1008F7D809345
:10339000C10010C0E0911E04F0E0E15AFB4F208113
:1033A00080911E0490E001968F73907080931E04AC
:1033B0002093C600FF91EF919F918F912F910F90D5
:1033C0000FBE0F901F901895AF92BF92DF92EF92B1
:1033D000FF920F931F93CF93DF93EC017A018B0140
:1033E000DD24403081EE580780E0680780E07807F0
:1033F00011F0DD24D39491E0A92EB12CE889F9894C
:10340000DD2069F0C5010C8C02C0880F991F0A9459
:10341000E2F7808360E079E08DE390E005C0108200
:1034200060E874E88EE190E0A80197010E945C25B5
:10343000215030404040504056954795379527954C
:1034400080E12030380720F0DD2011F0DD24D6CFD8
:10345000EC85FD853083EE85FF8520831D8EEA890E
:10346000FB89408121E030E0C901088C02C0880F4F
:10347000991F0A94E2F7482B4083EA89FB8940812F
:10348000C901098C02C0880F991F0A94E2F7482BE2
:103490004083EA89FB894081C9010A8C02C0880FF8
:1034A000991F0A94E2F7482B4083EA89FB898081BF
:1034B0000B8C02C0220F331F0A94E2F720952823B9
:1034C0002083DF91CF911F910F91FF90EF90DF90BC
:1034D000BF90AF900895FC01268D878D30E0205C71
:1034E0003F4F281B31092F733070C9010895FC012B
:1034F000968D878D981719F42FEF3FEF06C0878DB3
:10350000E80FF11D82A1282F30E0C9010895DC01E8
:103510005E969C915E975F968C915F97981719F4D1
:103520002FEF3FEF10C05F968C915F97FD01E80F82
:10353000F11D92A15F968C915F978F5F8F735F965D
:103540008C93292F30E0C9010895DC015D968C91A0
:103550005D97882339F05096ED91FC9151978081C9
:1035600086FFF9CF5D961C920895DC0190968C91B0
:103570009097282F30E02F5F3F4F2F733070919638
:103580008C91919790E028173907C9F390968C9108
:103590009097FD01E80FF11DEE59FF4F6083909663
:1035A0002C9390975296ED91FC915397208181E056
:1035B00090E05B960C905B9702C0880F991F0A946D
:1035C000E2F7282B208381E05D968C935D975096DF
:1035D000ED91FC91519780818064808381E090E03F
:1035E0000895109200041092FF0388EE93E0A0E08B
:1035F000B0E08093010490930204A0930304B0937D
:10360000040483E492E09093FE038093FD03109200
:103610001E0480911E0480931D0410921C0480914E
:103620001C0480931B0485EC90E090930A04809323
:10363000090484EC90E090930C0480930B0480ECDC
:1036400090E090930E0480930D0481EC90E09093B1
:10365000100480930F0482EC90E090931204809306
:10366000110486EC90E0909314048093130484E09A
:103670008093150483E08093160487E080931704F9
:1036800085E08093180481E0809319040895CF9316
:10369000DF930E94E4170E949409C4EAD9E10E94D2
:1036A00035062097E1F30E94A419F9CFCF92DF925B
:1036B000EF92FF920F931F93CF93DF937C016B01E7
:1036C0008A01C0E0D0E00FC0D6016D916D01D70135
:1036D000ED91FC910190F081E02DC7010995C80F93
:1036E000D91F015010400115110571F7CE01DF916E
:1036F000CF911F910F91FF90EF90DF90CF900895A1
:10370000DC01ED91FC910190F081E02D0995089587
:10371000EF92FF920F931F938C01DC01ED91FC91CE
:103720000190F081E02D6DE009957C01D801ED91CB
:10373000FC910190F081E02DC8016AE009959C019F
:103740002E0D3F1DC9011F910F91FF90EF9008951D
:10375000CF93DF93EC016115710519F420E030E09F
:103760000FC0DB010D900020E9F71197A61BB70BE6
:10377000E881F9810280F381E02DAD0109959C017A
:10378000C901DF91CF9108954F925F927F928F92FE
:103790009F92AF92BF92CF92DF92EF92FF920F93E0
:1037A0001F93DF93CF93CDB7DEB7A1970FB6F894F1
:1037B000DEBF0FBECDBF2C01742ECB01223008F42A
:1037C0002AE019A231E2C32ED12CCC0EDD1E822EAE
:1037D0009924AA24BB24672D752FA50194010E946A
:1037E0005C2579018A01C801B701A50194010E94F5
:1037F0002A25472D461B0894C108D1084A3014F4E5
:10380000405D01C0495CF6014083E114F10401050B
:10381000110521F07E2C5F2DC801DDCFC201B6015C
:103820000E94A81BA1960FB6F894DEBF0FBECDBFB5
:10383000CF91DF911F910F91FF90EF90DF90CF908C
:10384000BF90AF909F908F907F905F904F90089522
:10385000DC012115310541F4ED91FC910190F081DD
:10386000E02D642F099508950E94C41B0895EF92DE
:10387000FF920F931F939A01E62EFF2400E010E0C1
:10388000B801A7010E94281C1F910F91FF90EF9093
:103890000895CF92DF92EF92FF920F931F93CF93F1
:1038A000DF93EC016A017B012115310541F4E881C8
:1038B000F9810190F081E02D642F09951FC02A3015
:1038C0003105D1F477FF17C0E881F9810190F081CB
:1038D000E02D6DE209958C0144275527BA014C195A
:1038E0005D096E097F09CE012AE00E94C41B980180
:1038F000280F391F04C02AE00E94C41B9C01C90183
:10390000DF91CF911F910F91FF90EF90DF90CF90BB
:103910000895EF92FF920F931F937B019A01002766
:10392000F7FC0095102FB801A7010E94491C1F91B8
:103930000F91FF90EF9008950E94A81B08957F9229
:103940008F929F92AF92BF92CF92DF92EF92FF92AF
:103950000F931F93CF93DF934C017A018B01722E4B
:10396000CB01BA01A80197010E942625882321F0E6
:10397000C40169EF71E021C0C0E0D0E057016801E7
:10398000E894D7F8C601B5012FEF3FEF4FE75FE7A7
:103990000E942625882351F4C601B5012FEF3FEF81
:1039A0004FE75FE70E947023181614F0C1E0D0E0E3
:1039B000219739F0C4016DEF71E00E94A81BEC0162
:1039C00093C0C801B7012FEF3FEF4FE75FE40E94BC
:1039D000BF24181654F0C801B7012FEF3FEF4FE78F
:1039E0005FEC0E947023882324F4C40161E072E03C
:1039F000E4CFC801B70120E030E040E050E00E9491
:103A0000702387FD03C0C0E0D0E00EC0D401ED916B
:103A1000FC910190F081E02DC4016DE20995EC016B
:103A200017FB109517F9109520E030E040E05FE3B8
:103A3000DD240BC0CA01B90120E030E040E251E4CE
:103A40000E9474239B01AC01D394D71498F3C8014E
:103A5000B7010E940C235B016C010E94E1237B01F2
:103A60008C01C401B801A7012AE030E00E94281CA3
:103A7000C80FD91F772039F0C40165E072E00E94B9
:103A8000A81BC80FD91FC801B7010E940D249B01B4
:103A9000AC01C601B5010E940B2324C020E030E038
:103AA00040E251E40E94C3247B018C010E94DC238C
:103AB0005B016C01CC24B7FCC094DC2CC401B601C2
:103AC000A5012AE030E00E94491CC80FD91FC60199
:103AD000B5010E940F249B01AC01C801B7010E94EF
:103AE0000B237A947720D1F6CE01DF91CF911F91ED
:103AF0000F91FF90EF90DF90CF90BF90AF909F908D
:103B00008F907F9008950E949F1C0895EF92FF92DE
:103B10000F931F937C010E94A81B8C01C7010E9478
:103B2000881B080F191FC8011F910F91FF90EF907C
:103B30000895EF92FF920F931F937B018C01611503
:103B400071058105910529F420E030E040E050E066
:103B50000BC00E948201A80197010E947E25AC0142
:103B6000CB01DA019C01AD01B901CA011F910F918E
:103B7000FF90EF900895EF92FF920F931F937B01B8
:103B80008C01621773078407950764F4261B370BB3
:103B9000480B590BCA01B9010E94991DE60EF71E88
:103BA000081F191FB701C8011F910F91FF90EF90D7
:103BB0000895FC01848195816817790748F4019084
:103BC000F081E02D309721F0E60FF71F80810895F6
:103BD00080E00895FC0180819181009729F420E024
:103BE00030E040E050E004C00E9490019B01AC0135
:103BF000B901CA010895CF93DF93FC01C081D1813F
:103C0000209739F409C0992787FD90950E94B32524
:103C1000899388818823B9F7DF91CF9108950F9315
:103C20001F93CF93DF93FC018B0141155105F9F0F0
:103C300061157105E1F0848195812817390718F025
:103C4000FB01108214C041505040EC01C21BD30B49
:103C50004C175D0708F4EA0160817181620F731FE0
:103C6000C801AE010E94DE01C00FD11F1882DF9192
:103C7000CF911F910F910895DC01FB0114968D9156
:103C80009C911597892B31F461157105A9F090E08D
:103C9000808108C00D90BC91A02D6115710529F49B
:103CA00090E08C91882349F407C0CD010E94C001A7
:103CB0009C0190E0232B09F491E0892F0895CF9384
:103CC000DF939C01FB01EC01A881B981109729F0D9
:103CD0006081718161157105D1F4C081D181209716
:103CE00059F084819581892B39F0888190E02227D1
:103CF0003327281B390B12C0109771F0F90184810A
:103D00009581892B49F08C91282F30E007C0CD0197
:103D10000E94C0019C0102C020E030E0C901DF9197
:103D2000CF910895FC01DB012481358114968D919A
:103D30009C9115972817390711F020E007C0CF0193
:103D40000E945F1E20E0892B09F421E0822F089554
:103D5000FC01DB0114962D913C911597848195818E
:103D6000821B930B84179507A0F0808191810097A7
:103D700081F06D917C916115710559F0840F951F4B
:103D8000A9010E94D0019C0180E0232B19F481E05D
:103D9000089580E00895FC01DB01248135811496AB
:103DA0008D919C9115972817390710F480E008959C
:103DB000CF0140E050E00E94A81E08950F931F938A
:103DC000CF93DF93EC018B016F5F7F4F88819981E7
:103DD0000E942922009711F480E005C0998388830E
:103DE0001B830A8381E0DF91CF911F910F9108958A
:103DF000CF93DF93EC0188819981892B29F08A8107
:103E00009B818617970760F4CE010E94DE1E8823EF
:103E100041F08C819D81892B19F4E881F981108210
:103E200081E0DF91CF910895EF92FF920F931F935E
:103E3000CF93DF93EC017B016C817D81E114F10470
:103E4000C1F04115510599F08A01060F171FB801FD
:103E50000E94F81E882369F0888199812C813D8118
:103E6000820F931FB7010E94C9011D830C8381E05B
:103E700001C080E0DF91CF911F910F91FF90EF90F3
:103E80000895DF93CF9300D0CDB7DEB769831A8250
:103E9000BE016F5F7F4F41E050E00E94141F0F9002
:103EA0000F90CF91DF910895CF93DF93EC0188813C
:103EB0009981009711F00E949121198218821D8228
:103EC0001C821B821A82DF91CF9108950F931F935A
:103ED000182F092F0E94411F882321F4812F902F32
:103EE0000E94541F812F902F1F910F9108950F93BF
:103EF0001F93182F092F6115710561F0DB010D90DB
:103F00000020E9F71197A61BB70BAD010E94141F03
:103F1000882321F4812F902F0E94541F812F902FEE
:103F20001F910F9108950F931F93182F092FFB01D5
:103F300060817181448155810E94141F882321F47E
:103F4000812F902F0E94541F812F902F1F910F912E
:103F50000895EF92FF920F931F93CF93DF93EC019D
:103F60007B018A01BA010E94F81E882321F4CE0148
:103F70000E94541F07C01D830C8388819981B7015B
:103F80000E94C901CE01DF91CF911F910F91FF9047
:103F9000EF900895CF93DF93EC01198218821B8272
:103FA0001A821D821C826115710551F0DB010D9092
:103FB0000020E9F71197A61BB70BAD010E94A91FBE
:103FC000DF91CF910895CF93DF93EC01198218828E
:103FD0001B821A821D821C826115710551F0DB0162
:103FE0000D900020E9F71197A61BB70BAD010E94B9
:103FF000A91FDF91CF9108950F931F93182F092FB9
:104000006115710559F0DB010D900020E9F711975A
:10401000A61BB70BAD010E94A91F02C00E94541F2E
:10402000812F902F1F910F910895EF92FF920F9380
:104030001F93DF93CF93CDB7DEB762970FB6F89497
:10404000DEBF0FBECDBF8C01CB01F8011182108203
:1040500013821282158214827E010894E11CF11CE5
:10406000B70150E00E94ED01C801B7010E94FC1F9A
:1040700062960FB6F894DEBF0FBECDBFCF91DF9131
:104080001F910F91FF90EF900895EF92FF920F9381
:104090001F93DF93CF93CDB7DEB729970FB6F89470
:1040A000DEBF0FBECDBF8C01862FF80111821082BA
:1040B000138212821582148290E07E010894E11C22
:1040C000F11CB70150E00E942302C801B7010E9411
:1040D000FC1F29960FB6F894DEBF0FBECDBFCF915F
:1040E000DF911F910F91FF90EF900895BF92CF92B3
:1040F000DF92EF92FF920F931F93CF93DF93082FDE
:10410000B92E6B017A01E9012417350710F4EA0191
:104110007901802F9B2D67E072E00E94CA1FD601B3
:1041200014968D919C9115978E159F05D0F08C1744
:104130009D0708F4EC01D601ED91FC911197EC0F6D
:10414000FD1F108110826D917C916E0D7F1D802F5F
:104150009B2D0E94FC1FD601ED91FC91EC0FFD1FE1
:104160001083802F9B2DDF91CF911F910F91FF9096
:10417000EF90DF90CF90BF900895CF93DF93EC0145
:10418000FB018617970761F06081718161157105E8
:1041900029F0448155810E94A91F02C00E94541F2A
:1041A000CE01DF91CF910895FC011182108213821C
:1041B0001282158214820E94BD200895FC01118292
:1041C000108213821282158214820E94BD200895EB
:1041D000FC01808191810E9491210895FC018081E0
:1041E00091810E94912108950F931F93CF93DF93A4
:1041F000BC018230910510F462E070E0E091A1040E
:10420000F091A20440E050E0A0E0B0E024C0808142
:10421000918186179707D0F08617970771F48281EE
:104220009381109729F013969C938E9312972CC02C
:104230009093A2048093A10427C04115510519F061
:104240008417950718F48D01AC01EF01DF0182811D
:1042500093819C01F9013097D1F641155105F9F090
:10426000CA01861B970B8430910580F48A819B815B
:104270000115110521F0F8019383828304C0909306
:10428000A2048093A104FE01329645C0FE01E80F0E
:10429000F91F619371930297998388833CC0809141
:1042A0009F049091A004892B41F480912502909164
:1042B00026029093A00480939F044091270250917E
:1042C00028024115510541F44DB75EB78091230294
:1042D00090912402481B590B20919F043091A00417
:1042E00024173507B0F4CA01821B930B8617970772
:1042F00080F0AB014E5F5F4F8417950750F0420F7F
:10430000531F5093A00440939F04F901619371934C
:1043100002C0E0E0F0E0CF01DF91CF911F910F915B
:104320000895CF93DF939C01009709F48FC0EC01AF
:1043300022971B821A826091A1047091A2046115D8
:10434000710581F488819981820F931F20919F04C8
:104350003091A0042817390739F5D093A004C093F1
:104360009F0474C0DB0140E050E0AC17BD0708F1CA
:10437000BB83AA83FE0121913191E20FF31FAE1797
:10438000BF0779F48D919C911197280F391F2E5FEB
:104390003F4F3983288312968D919C9113979B836D
:1043A0008A834115510571F4D093A204C093A104EE
:1043B0004DC012968D919C911397AD01009711F00D
:1043C000DC01D3CFDA011396DC93CE931297FA0176
:1043D00021913191E20FF31FCE17DF0769F4888135
:1043E0009981280F391F2E5F3F4FFA0131832083B7
:1043F0008A819B8193838283E0E0F0E0DB01129667
:104400008D919C911397009719F0BC01FD01F6CF97
:10441000AB014E5F5F4FDB018D919C91840F951F27
:1044200020919F043091A0042817390779F4309720
:1044300029F41092A2041092A10402C013821282E5
:10444000425050405093A00440939F04DF91CF917D
:1044500008956F927F928F929F92AF92BF92CF9268
:10446000DF92EF92FF920F931F93CF93DF938C0114
:10447000009729F4CB010E94F4208C01BBC08EEF81
:10448000E82E8FEFF82EE00EF11E4801860E971EE3
:104490008E149F0408F4ACC0D7014D915C91119724
:1044A00046175707B8F04530510508F4A3C0CA01B4
:1044B00004978617970708F49DC042505040461B4A
:1044C000570BF401419351936D937C93CF010E945C
:1044D000912190C05B01A41AB50A3801640E751EC3
:1044E000A091A104B091A204E0E0F0E0CC24DD248E
:1044F00047C0A615B705A9F5CD91DC911197CE015E
:1045000002968A159B0568F1CE018A199B090296CD
:1045100012962C91129713963C91059758F0F4013E
:1045200022833383CA19DB09D183C083D7016D93FA
:104530007C9309C04E5F5F4F4C0F5D1FF7015183A5
:104540004083C901FC01C114D10431F0D601139696
:10455000FC93EE9312974EC0F093A204E093A10453
:1045600049C08D919C911197E817F90708F4FC0157
:104570006D0112968C91129713969C919C01D90112
:10458000109709F0B6CF80919F049091A0048615F2
:104590009705E9F4E617F707D0F420912702309148
:1045A00028022115310541F42DB73EB78091230231
:1045B00090912402281B390B82169306C8F490921E
:1045C000A00480929F04F7017183608313C0CB0124
:1045D0000E94F420EC01009759F0D7014D915C91B5
:1045E000B8010E94B701C8010E9491218E0102C04A
:1045F00000E010E0C801DF91CF911F910F91FF9073
:10460000EF90DF90CF90BF90AF909F908F907F9072
:104610006F90089508955058BB27AA270ED075C1F2
:1046200066D130F06BD120F031F49F3F11F41EF4CD
:104630005BC10EF4E095E7FB51C1E92F77D180F320
:10464000BA17620773078407950718F071F49EF58F
:104650008FC10EF4E0950B2EBA2FA02D0B01B901DE
:1046600090010C01CA01A0011124FF27591B99F0E8
:10467000593F50F4503E68F11A16F040A22F232FF4
:10468000342F4427585FF3CF469537952795A79544
:10469000F0405395C9F77EF41F16BA0B620B730BEB
:1046A000840BBAF09150A1F0FF0FBB1F661F771F5C
:1046B000881FC2F70EC0BA0F621F731F841F48F411
:1046C000879577956795B795F7959E3F08F0B3CF97
:1046D0009395880F08F09927EE0F97958795089581
:1046E000D9D008F481E008950CD00FC107D140F073
:1046F000FED030F021F45F3F19F0F0C0511139C104
:10470000F3C014D198F39923C9F35523B1F3951B42
:10471000550BBB27AA2762177307840738F09F5FE2
:104720005F4F220F331F441FAA1FA9F333D00E2E51
:104730003AF0E0E830D091505040E695001CCAF7BE
:1047400029D0FE2F27D0660F771F881FBB1F261783
:1047500037074807AB07B0E809F0BB0B802DBF0156
:10476000FF2793585F4F2AF09E3F510568F0B6C06F
:1047700000C15F3FECF3983EDCF386957795679533
:10478000B795F7959F5FC9F7880F911D9695879507
:1047900097F90895E1E0660F771F881FBB1F621726
:1047A00073078407BA0720F0621B730B840BBA0BE4
:1047B000EE1F88F7E095089504D06894B111D9C030
:1047C0000895BCD088F09F5790F0B92F9927B75122
:1047D000A0F0D1F0660F771F881F991F1AF0BA95C5
:1047E000C9F712C0B13081F0C3D0B1E00895C0C0A4
:1047F000672F782F8827B85F39F0B93FCCF38695BB
:1048000077956795B395D9F73EF490958095709517
:1048100061957F4F8F4F9F4F0895E89409C097FB94
:104820003EF490958095709561957F4F8F4F9F4F87
:104830009923A9F0F92F96E9BB279395F6958795CB
:1048400077956795B795F111F8CFFAF4BB0F11F48E
:1048500060FF1BC06F5F7F4F8F4F9F4F16C0882335
:1048600011F096E911C0772321F09EE8872F762F6B
:1048700005C0662371F096E8862F70E060E02AF0AC
:104880009A95660F771F881FDAF7880F9695879598
:1048900097F90895990F0008550FAA0BE0E8FEEF6D
:1048A00016161706E807F907C0F012161306E407F4
:1048B000F50798F0621B730B840B950B39F40A26ED
:1048C00061F0232B242B252B21F408950A2609F4CB
:1048D000A140A6958FEF811D811D089597F99F67CF
:1048E00080E870E060E008959FEF80EC0895002478
:1048F0000A941616170618060906089500240A9445
:1049000012161306140605060895092E0394000CCA
:1049100011F4882352F0BB0F40F4BF2B11F460FF59
:1049200004C06F5F7F4F8F4F9F4F089557FD905882
:10493000440F551F59F05F3F71F04795880F97FB63
:10494000991F61F09F3F79F087950895121613061D
:104950001406551FF2CF4695F1DF08C0161617064C
:104960001806991FF1CF8695710561050894089581
:10497000E894BB2766277727CB0197F908958ADF4C
:1049800008F48FEF08950BD0C0CFB1DF28F0B6DF69
:1049900018F0952309F0A2CFA7CF1124EACFC6DFE4
:1049A000A0F3959FD1F3950F50E0551F629FF00142
:1049B000729FBB27F00DB11D639FAA27F00DB11D9B
:1049C000AA1F649F6627B00DA11D661F829F222724
:1049D000B00DA11D621F739FB00DA11D621F839FAB
:1049E000A00D611D221F749F3327A00D611D231F81
:1049F000849F600D211D822F762F6A2F11249F57CF
:104A000050408AF0E1F088234AF0EE0FFF1FBB1FF1
:104A1000661F771F881F91505040A9F79E3F510590
:104A200070F05CCFA6CF5F3FECF3983EDCF3869549
:104A300077956795B795F795E7959F5FC1F7FE2B3B
:104A4000880F911D9695879597F9089523DF880B18
:104A5000990B0895629FD001739FF001829FE00D32
:104A6000F11D649FE00DF11D929FF00D839FF00DED
:104A7000749FF00D659FF00D9927729FB00DE11D99
:104A8000F91F639FB00DE11DF91FBD01CF01112476
:104A9000089597FB092E07260AD077FD04D049D048
:104AA00006D000201AF4709561957F4F0895F6F7AF
:104AB000909581959F4F0895A1E21A2EAA1BBB1BCA
:104AC000FD010DC0AA1FBB1FEE1FFF1FA217B307DA
:104AD000E407F50720F0A21BB30BE40BF50B661FF0
:104AE000771F881F991F1A9469F7609570958095B4
:104AF00090959B01AC01BD01CF01089597FB092E54
:104B000005260ED057FD04D0D7DF0AD0001C38F49C
:104B100050954095309521953F4F4F4F5F4F0895E9
:104B2000F6F790958095709561957F4F8F4F9F4FC9
:104B30000895AA1BBB1B51E107C0AA1FBB1FA617E4
:104B4000B70710F0A61BB70B881F991F5A95A9F736
:104B500080959095BC01CD010895EE0FFF1F059043
:104B6000F491E02D09949111089581548A5108F42B
:104B7000805E855A08952F923F924F925F926F9276
:104B80007F928F929F92AF92BF92CF92DF92EF92DD
:104B9000FF920F931F93CF93DF93CDB7DEB7CA1B5E
:104BA000DB0B0FB6F894DEBF0FBECDBF09942A8889
:104BB000398848885F846E847D848C849B84AA8431
:104BC000B984C884DF80EE80FD800C811B81AA81BE
:104BD000B981CE0FD11D0FB6F894DEBF0FBECDBF89
:104BE000ED01089511E0C4ECD1E004C0FE010E9483
:0E4BF000AF252296C83CD107C9F7F894FFCF35
:104BFE00740063753D000A00327C007C002E00615B
:104C0E00742B730009446576696365207479706549
:104C1E003A54656D70657261747572654D65746533
:104C2E00720009506572696F643A000942617474CA
:104C3E006572793A000954656D70657261747572AA
:104C4E00653A0009546865726D6F7374617420491A
:104C5E00443A0009546865726D6F73746174207301
:104C6E0075626465766963652049443A0061742B08
:104C7E006D3D0061742B743D0061742B74733D00A7
:104C8E00005374617274656400002B446576696329
:104C9E00652049443A00094368616E6E656C3A00BE
:104CAE000950617373776F72643A004552524F52D6
:104CBE00004F4B0061742B633D0061742B6E3D0001
:104CCE0061742B7265730061742B6D656D69643D43
:104CDE000061742B6D656D76616C3D0061742B64A3
:104CEE0065660061742B703D006E616E00696E66C4
:104CFE00006F7666002E00000100000060EA0000E2
:104D0E00746869734973456E63727970744B657913
:104D1E0000053F8000A304000000000000230C00EB
:104D2E00000000FA13C91382138B13A013B11300E2
:104D3E00000000B51A561B6B1A871A771AA51A00AF
:00000001FF
