:100000000C9466000C94650F0C94920F0C948E0067
:100010000C948E000C948E000C9414060C948E009C
:100020000C948E000C948E000C948E000C948E0018
:100030000C948E000C948E000C948E000C948E0008
:100040000C94BF0F0C948E000C949E110C94E5112F
:100050000C948E000C948E000C948E000C948E00E8
:100060000C948E000C948E000000000024002700E9
:100070002A0000000000250028002B0000000000DE
:1000800023002600290004040404040404040202DA
:100090000202020203030303030301020408102007
:1000A0004080010204081020010204081020000012
:1000B0000007000201000003040600000000000029
:1000C0000000C601FC0A2213BF01F50A11241FBE5D
:1000D000CFEFD8E0DEBFCDBF12E0A0E0B1E0E4E5B5
:1000E000F6E302C005900D92A031B107D9F713E0F5
:1000F000A0E1B2E001C01D92A13AB107E1F710E022
:10010000C8ECD0E004C02297FE010E94DA1AC23C7B
:10011000D107C9F70E9478130C941D1B0C940000A2
:10012000A0E0B0E0E6E9F0E00C94EE1AEC01A88063
:10013000B980CA80DB80A114B104C104D10441F4A8
:1001400084E2A82E89EDB82E8BE5C82E87E0D82E44
:10015000C601B5012DE133EF41E050E00E94A91A3C
:1001600027EA31E440E050E00E94551A7B018C01FF
:10017000C601B5012DE133EF41E050E00E94A91A1C
:10018000CA01B9012CEE34EF4FEF5FEF0E94551A10
:100190006E0D7F1D801F911F97FF04C0615070403E
:1001A00080409048688379838A839B839B01AC015C
:1001B0005F77B901CA01CDB7DEB7EAE00C940A1B3C
:1001C0000E949000089588ED91E00E9490000895AB
:1001D0006093D8017093D9018093DA019093DB0189
:1001E00008951F93FC0199278827BC01E894119179
:1001F0001032E9F3193010F01E30C8F31B3251F001
:100200001D3249F4689406C00E946F01610F711D90
:10021000811D911D119110531A30B0F33EF4909549
:100220008095709561957F4F8F4F9F4F1F910895D7
:10023000FB01DC0102C001900D9241505040D8F703
:100240000895FB01DC018D91019080190110D9F313
:10025000990B0895FB01DC0101900D920020E1F75C
:100260000895FB01DC014150504030F08D91019028
:10027000801919F40020B9F7881B990B0895FB0128
:10028000DC014150504048F001900D920020C9F728
:1002900001C01D9241505040E0F70895FB019F01BD
:1002A000E8944230C4F04532B4F44A3029F497FB64
:1002B0001EF4909581959F4F642F77270E94C41A52
:1002C000805D8A330CF0895D8193CB010097A1F7A3
:1002D00016F45DE251931082C9010C949A01592FD2
:1002E000482F372F262F660F771F881F991F660FFD
:1002F000771F881F991F620F731F841F951F660F3A
:10030000771F881F991F0895FB019F01423074F0E9
:10031000453264F4642F77270E94C41A805D8A33C3
:100320000CF0895D8193CB010097A1F71082C90180
:100330000C949A01DC01FC01672F71917723E1F79E
:10034000329704C07C916D9370836291AE17BF07A2
:10035000C8F308958130910541F46F5F7F4F71F4C8
:1003600080E192E00E94B90A0895892B39F46F5F09
:100370007F4F21F480E192E00E94030B089580E01A
:1003800090E06FEF7FEF0E94AA01089581E090E076
:100390006FEF7FEF0E94AA01089588E228E130E024
:1003A0000FB6F894A895209360000FBE809360006C
:1003B00083E00E944B11982F80911D02813009F03B
:1003C0005AC09F5F80911E02981709F454C0909301
:1003D0001E029130C9F48FE48093740280E580930B
:1003E000750295E4909376028EE480937702909361
:1003F000780284E48093790286E0809373028BEF25
:1004000092E060E071E01BC09230D9F483E4809305
:1004100074028CE4809375028FE48093760283E506
:100420008093770285E48093780284E48093790254
:1004300086E0809373028BEF92E067E071E00E94A8
:10044000D01480E192E00E94D10D0E94071020910B
:10045000DC013091DD014091DE015091DF01260F7A
:10046000371F481F591F2093190230931A024093D7
:100470001B0250931C0208952F923F924F925F925D
:100480006F927F928F929F92AF92BF92CF92DF92A4
:10049000EF92FF920F931F93DF93CF93CDB7DEB709
:1004A000A4970FB6F894DEBF0FBECDBF382E292E0D
:1004B00080E192E00E94060B7C0147E0442E512C23
:1004C0004C0E5D1EC2016EE071E00E942D1760911E
:1004D00016028AE0689FB00111243E010894611C55
:1004E000711CC3014AE00E945F17C201B3010E9460
:1004F000DD1631E1C32E31E0D32EB6010E94C116C4
:100500008C012DE0822E912C8C0E9D1EC7016AE07D
:1005100070E00E94741AC4014AE00E945F17C8018B
:10052000B4010E94DD1663E171E00E94C1168C01E6
:1005300093E1A92EB12CAC0EBD1EC7016AE070E09C
:100540000E94741ABC01C5014AE00E945F17C801ED
:10055000B5010E94DD16B6010E94C1168C0189E129
:10056000E82EF12CEC0EFD1EC70160911D024AE041
:100570000E948F17C801B7010E94DD16B6010E94C4
:10058000C1166C0183E00E944B11BC018E01015E1B
:100590001F4FC8014AE00E945F17C601B8010E94C0
:1005A000DD16BC01832D922D0E941E18C8010E94E9
:1005B0003218C7010E943218C5010E943218C401C6
:1005C0000E943218C3010E943218C2010E943818DA
:1005D000832D922DA4960FB6F894DEBF0FBECDBF2B
:1005E000CF91DF911F910F91FF90EF90DF90CF900F
:1005F000BF90AF909F908F907F906F905F904F9043
:100600003F902F90089580E192E06BEF72E00E949E
:10061000650D08959F92AF92BF92CF92DF92EF92B5
:10062000FF920F931F93DF93CF93CDB7DEB7AA97B7
:100630000FB6F894DEBF0FBECDBFA89580E192E063
:100640006BEF72E00E94920B882309F4E6C0A5E2EA
:10065000CA2ED12CCC0EDD1EC60169ED72E00E94BF
:100660001E18C6010E9445158E010F5F1F4FC8015D
:1006700065E171E00E941417C601B8010E941516C9
:10068000F82EC8010E943218FF2009F44EC080E104
:1006900092E06BEF72E00E945B0B8BEF92E06AE1FD
:1006A00071E00E94CD148BEF92E066E371E00E944E
:1006B000CD148BEF92E0609116024AE050E00E9468
:1006C00068148BEF92E06FE371E00E94CD1480E13B
:1006D00092E00E94060BBC018BEF92E04AE050E0F2
:1006E0000E94BA148BEF92E069E471E00E94CD148D
:1006F0008BEF92E060911D024AE050E00E94681486
:100700008BEF92E063E571E00E94CD1483E00E94DC
:100710004B11BC018BEF92E04AE050E00E94BA140A
:100720008BEF92E00E94B9136CC08E01095F1F4FDE
:10073000C8016CE571E00E941417C601B8010E945F
:100740001516F82EC8010E943218FF20E1F08E0124
:10075000035F1F4F29A53AA5C801B60145E050E047
:100760000E94C017C8010E94341560931602C80188
:100770000E9432188FE192E062E170E0409116022F
:100780000E94BA0538C08E010D5E1F4FC80162E697
:1007900071E00E941417C601B8010E941516F82EC8
:1007A000C8010E943218FF2059F08FE192E063E106
:1007B00070E041E00E94BA0581E080931D021BC0F9
:1007C0008E01075E1F4FC80168E671E00E94141792
:1007D000C601B8010E941516F82EC8010E943218F1
:1007E000FF2079F08FE192E063E170E040E00E9449
:1007F000BA0510921D0280E192E06BEF72E00E9458
:100800008C0B89ED92E06EE671E00E944617109223
:10081000DF02CE0185960E94321880E192E00E94AC
:10082000F90D882309F481C0809121028337C1F436
:1008300080E192E00E94D60D8E010B5D1F4FC80132
:100840000E943C0249A54093730250E04F5F5F4F06
:10085000C80164E772E020E030E00E9459153DC015
:10086000809121028D3609F0FCC0809122028D33E7
:1008700009F0F7C08E010B5D1F4FC8016EE671E0F5
:100880000E941417F2E0CF2ED12CEFE1AE2EB12C46
:10089000AC0EBD1E902E012F71E2E72E72E0F72EF6
:1008A000EC0CFD1CF70180818A3021F080818D30B5
:1008B00009F0DCC08E010B5D1F4FC8010E9434158A
:1008C000462F609316028FE192E062E170E00E9491
:1008D000BA0580E192E00E949E0AC8010E94321887
:1008E00020C0809122028E3609F0DBC081E0809327
:1008F0001D028FE192E063E170E041E00CC0809165
:100900002202893609F0D2C010921D028FE192E0D6
:1009100063E170E040E00E94BA0580E192E00E944D
:100920009E0A80E192E00E94D60D809116028823F3
:1009300009F4C1C00E940710E090DC01F090DD01D5
:100940000091DE011091DF012091190230911A020D
:1009500040911B0250911C02621B730B840B950B80
:100960006E157F058007910708F4A5C0F0E6EF1625
:10097000FAEEFF06F0E00F07F0E01F0761F488ECE5
:1009800090E0A0E0B0E08093DC019093DD01A093C3
:10099000DE01B093DF01109218021092170268E195
:1009A000E62E08E110E058E2F52E8BE692E00E9478
:1009B00055070FB6F894E0926000109260000FBEE9
:1009C00080E292E069E070E040E050E020E030E05A
:1009D0000E94C60580E292E067E070E040E050E0EF
:1009E00020E030E00E94C6050FB6F894A895009369
:1009F00060000FBEF09260002091160230E08091FE
:100A00001702909118020196909318028093170292
:100A10002817390709F0C9CF8E010B5D1F4FC80198
:100A20000E943C0249A54093730250E04F5F5F4F24
:100A3000C80164E772E020E030E00E94591580E1CF
:100A400092E00E94D10D0E940710609319027093EA
:100A50001A0280931B0290931C02C8010E94321854
:100A60002AC0809121028536E1F43BCFC501692D72
:100A7000702F0E942818F7016081C5010E94B016EE
:100A8000BC01892D902F0E940718C5010E943818BB
:100A90000894C11CD11CFFEFCF16D10409F0FCCE85
:100AA00009CF80912102843609F429CF80E192E0B8
:100AB0000E94A80A36CFAA960FB6F894DEBF0FBEE2
:100AC000CDBFCF91DF911F910F91FF90EF90DF90FD
:100AD000CF90BF90AF909F9008958BEF92E040E051
:100AE00052EC61E070E00E9415128BEF92E06FE62D
:100AF00071E00E94D01480E192E00E943C0F8FE1EF
:100B000092E062E170E00E94B305809316028F3F8D
:100B100011F4109216028FE192E063E170E00E94FE
:100B2000B30580931D028F3F11F410921D0283E0E4
:100B300060E00E94B81081E06DEC71E041E050E0AF
:100B40000E94420F64E670E080E090E00E94501046
:100B50000E9407106093190270931A0280931B027F
:100B600090931C020895F999FECF72BD61BDF89A69
:100B700080B50895F999FECF1FBA72BD61BD40BD21
:100B80000FB6F894FA9AF99A0FBE089541155105D7
:100B900029F480917A008F7780937A006A3071050A
:100BA000B9F063FD02C0E8E001C0E8E2862F87707B
:100BB000E82B88E190E00FB6F894A8958093600048
:100BC0000FBEE093600080916000806480936000BD
:100BD000232BA1F483B7817F846083BFF89483B70C
:100BE000816083BF85B7806685BF8F7D85BF789420
:100BF000889583B78E7F83BF78940EC083B7817F3B
:100C0000846083BFF89483B7816083BF78948895AC
:100C100083B78E7F83BF7894452B29F480917A0027
:100C2000806880937A0008951F920F920FB60F92FA
:100C300011248F9388E10FB6F8948093600010928E
:100C400060000FBE8F910F900FBE0F901F901895F0
:100C5000E0916702F0916802A081B1812D913C91F1
:100C6000CF01F90109950895FC01828161E00E949C
:100C7000F71078940895FC01F894828160E00E9456
:100C8000F71008950F931F93CF93DF93EC01162F66
:100C9000042F0E943B0610681EBD0DB407FEFDCF59
:100CA0008EB50EBD0DB407FEFDCF8EB5CE010E94F0
:100CB0003406DF91CF911F910F9108951F93CF9329
:100CC000DF93EC01162F662311F445E501C04DE5D5
:100CD000CE016AE50E944206112311F440E701C0EB
:100CE0004CE7CE016CE50E944206DF91CF911F9147
:100CF00008951F93CF93DF93EC01162F0E943B06BC
:100D00001F771EBD0DB407FEFDCF8EB51EBC0DB402
:100D100007FEFDCF1EB5CE010E943406812FDF9164
:100D2000CF911F910895CF93DF93EC016F836623DA
:100D300011F44AE101C04FE0CE0163E10E94420696
:100D40008F81882341F0CE0161E10E947906482F0E
:100D50004F71406602C04E814068CE0161E10E9441
:100D60004206DF91CF910895CF93DF93EC01662384
:100D700051F063E241E00E944206CE0163E20E942C
:100D8000790681FFFACFCE0164E20E947906282F0E
:100D900030E0309521953F4F35952795C901DF917A
:100DA000CF9108951F93CF93DF93EC01162F80917D
:100DB0005E02681709F459C0623089F1633030F47B
:100DC0006623E9F1613009F050C031C06330A1F011
:100DD000643009F04AC0CE0161E00E947906482FD4
:100DE000437E4C60CE0161E00E9442068F818823E1
:100DF00081F1CE0161E010C0CE0161E00E94790670
:100E0000482F437E4061CE0161E00E9442068F81FF
:100E10008823F9F0CE0160E00E945E061AC0CE0180
:100E200061E00E947906482F437E48600EC0CE01E3
:100E300061E00E947906482F437E446006C0CE01DF
:100E400061E00E947906482F437ECE0161E00E9456
:100E5000420680915E02882331F4CE0167E20E944F
:100E600079068823B4F710935E02DF91CF911F912A
:100E70000895CF93DF93EC0180915E02833089F473
:100E800080916202882369F4CE0160E00E94B4067A
:100E9000865A9F4F34F4CE0161E00E94D20681E071
:100EA00001C080E0DF91CF91089560E00E94D206FA
:100EB0000895CF93DF93EC0110925F0210926002CD
:100EC0001092610210926202109263021092640208
:100ED000109266021092650268E20E94790682FF13
:100EE0000AC0CE016DE30E947906482F4460CE010E
:100EF0006DE30E944206CE0165E240E40E94420694
:100F0000CE0163E00E94D206DF91CF9108959C014B
:100F1000F89480915E02833051F4809162028823BC
:100F200031F0C90161E00E94D20681E00895C90153
:100F30000E94590780E008951F93162F0E9487078B
:100F4000882361F080916002811711F0112331F440
:100F500080916402882319F081E001C080E01F9134
:100F600008950F931F93CF93DF93EC018B0161E002
:100F70000E94D20601151105E1F0CE010E943B0648
:100F80008EEB8EBD0DB407FEFDCF8EB520E030E0B8
:100F9000F801E20FF31F80818EBD0DB407FEFDCF77
:100FA0008EB52F5F3F4F2031310591F7CE010E9462
:100FB0003406CE016DE30E947906482F4E7F80E013
:100FC000012B09F081E0482BCE016DE30E9442061F
:100FD000DF91CF911F910F910895CF93DF93EC0193
:100FE00080915E02833009F067C0CE0168E20E9402
:100FF000790682FF61C0CE0161E00E94D206CE0177
:101000000E943B061EBC0DB407FEFDCF8EB51EBC74
:101010000DB407FEFDCF8EB580936202809162020F
:10102000833410F082E402C08091620280936202F5
:101030001EBC0DB407FEFDCF8EB5809361028D817D
:10104000882309F042C0909161028C819817E9F1E0
:10105000809161028823C9F110926202CE010E9440
:1010600034063AC00DB407FEFDCF8EB58093600202
:101070001EBC0DB407FEFDCF8EB5982F90789093CF
:10108000640280748093630290E00BC01EBC0DB4B8
:1010900007FEFDCF8EB5E92FF0E0EF5DFD4F8083B9
:1010A0009F5F80915F02981788F3CE010E943406FB
:1010B000CE0163E00E94D206CE0160E00E94B40639
:1010C000909366028093650207C08091620283500C
:1010D00080935F021EBCC6CFDF91CF910895CF925F
:1010E000DF92EF92FF920F931F93CF93DF93EC0168
:1010F000F62ED42EC52E122F61E00E94D206CE010C
:1011000067E20E94790687FFFACFCE0165E240E0F0
:101110000E9442061E3308F01DE3CE010E943B06EA
:1011200080E88EBD0DB407FEFDCF8EB51D5F1EBDE0
:1011300013500DB407FEFDCF8EB5FEBC0DB407FEF7
:10114000FDCF8EB58C818EBD0DB407FEFDCF8EB563
:10115000EE2031F080E88EBD0DB407FEFDCF07C054
:10116000002361F080E48EBD0DB407FEFDCF8EB587
:101170008D2D9C2D9C01F90190E00DC01EBC0DB47D
:1011800007FEFDCFF4CF80818EBD0DB407FEFDCFED
:101190008EB59F5F31969117B0F3CE010E94340651
:1011A000CE0164E00E94D2068B810E944B11892BF4
:1011B000D9F3CE0161E00E94D206DF91CF911F9159
:1011C0000F91FF90EF90DF90CF900895EF92FF92F4
:1011D0000F931F93CF93DF93EC018B01F42EE090DC
:1011E000600203C0CE010E948707CE010E9439072A
:1011F0008823C1F3CE016E2DA8012F2D00E0EE242F
:10120000E3940E946F08DF91CF911F910F91FF909F
:10121000EF900895DF92EF92FF920F931F93CF9379
:10122000DF93EC01162F7A01D22E6DE30E9479062E
:10123000482F4460CE016DE30E94420603C0CE01F8
:101240000E948707CE010E9439078823C1F3CE018F
:10125000612FA7012D2DEE240E946F08DF91CF9101
:101260001F910F91FF90EF90DF9008954F925F9242
:101270006F927F928F929F92AF92BF92CF92DF92A6
:10128000EF92FF920F931F93CF93DF93EC01862E83
:101290003A01422E502E9924AE2CBB24CC24DD24BE
:1012A000CE01682DA301242D01E00E940A090E94AD
:1012B00007107B018C0108C0CE01682D0E949C079D
:1012C000882311F081E00FC00E9407106E197F097A
:1012D000800B910B6A157B058C059D0568F3939433
:1012E0005914F0F680E0DF91CF911F910F91FF909C
:1012F000EF90DF90CF90BF90AF909F908F907F90B6
:101300006F905F904F900895CF92DF92EF92FF928F
:101310000F931F93DF93CF93CDB7DEB7AA970FB686
:10132000F894DEBF0FBECDBF7C01042F522F6F316A
:1013300019F430EC4EE40EC06B3211F44CE6C6C02A
:10134000663509F0BFC049ED04C0663511F030ECD8
:1013500001C030E0FE0131968AE2DF011D928A95DC
:10136000E9F781E0898394E09A8382E08B8323E02C
:101370002D838E839F8390E4988785E089872A87D1
:1013800086E08B8783E38C8787E08D8788E08F8773
:1013900089E0898B89E18B8B22E42C8B85E28D8B14
:1013A0009E8B89E28F8B8CED888F8EE2898F88E807
:1013B0008A8F8FE28B8F8DE28C8F90E39D8F87E3F6
:1013C0008F8F80E988A388E389A32AA38CE38BA36A
:1013D0008FE88CA38DE38DA382E18EA38FE68FA38C
:1013E00098A78FEF89A74E87388B5E8FF701828190
:1013F00061E00E94B81080E00E94710A81E00E94C2
:10140000680A84E00E94760A0E94870AC7016FE298
:101410004AEA0E944206C7016FE20E9479068A3AB0
:10142000A9F7C7016FE245E50E944206C7016FE2D6
:101430000E9479068535A9F710E06E010894C11C59
:10144000D11C05C0C70141810E9442061F5FE12FE8
:10145000F0E0EE0FFF1FEC0DFD1D60816F3F91F777
:10146000C70160E070E00E94B107C701D70117967D
:101470006C910E949306C70161E00E94D206C701E9
:1014800067E20E94790687FFFACF80E068E276E0A3
:1014900043E050E00E94420FF0926802E09267023F
:1014A000F701048381E0AA960FB6F894DEBF0FBE61
:1014B000CDBFCF91DF911F910F91FF90EF90DF9003
:1014C000CF90089544EE6B3209F03FCF30E442CF25
:1014D000882319F48CB5806202C08CB58F7D8CBDD9
:1014E00008959CB5937F982B9CBD08952CB5382FFB
:1014F00033702C7F322B3CBD2DB590E095958795B0
:101500009595879581702E7F822B8DBD08958AE0F9
:1015100061E00E94F7108AE061E00E94B8108CB58B
:1015200080618CBD8CB580648CBD8DE061E00E94D3
:10153000B8108BE061E00E94B81008958FE48093AA
:1015400074028BE48093750282E0809373020895A5
:1015500085E48093740292E59093750290937602ED
:101560008FE4809377029093780285E080937302F2
:10157000089567E771E00E9414170895813091057E
:1015800031F56F5F7F4F81F58DEF91E090936C02A5
:1015900080936B028AE080936D0282E080936E02FA
:1015A00081E080935E02109270028FE1809371025D
:1015B0001092720289ED92E067E771E00E941417C1
:1015C00081EE92E067E771E00E9414170895892B7D
:1015D00059F46F5F7F4F41F481EE92E00E94321820
:1015E00089ED92E00E943218089580E090E06FEF5C
:1015F0007FEF0E94BE0A089581E090E06FEF7FEFD9
:101600000E94BE0A08950E94321808958EE48093C5
:101610007C0062E070E080E090E00E9450108091D9
:101620007A00806480937A0080917A0086FDFCCFF6
:101630008091780060917900362F20E090E0282B8F
:10164000392B442737FD4095542F65EF7BE280E02E
:1016500090E00E94A91AC901089588E10FB6F89494
:1016600080936000109260000FBE89ED92E067E702
:1016700071E00E9446171092DF022EE088E190E0B0
:101680000FB6F894A895809360000FBE2093600079
:10169000FFCFCF93DF93C0E0D0E08FE192E0BE01B7
:1016A0004FEF0E94BA05219684E0C030D807A9F711
:1016B000DF91CF9108950F931F93CF93DF938B0109
:1016C000CB0168E771E00E94CD14C80160916A0205
:1016D0004AE050E00E946814C80164E871E00E948A
:1016E000CD14C801609169024AE050E00E9468147C
:1016F000C8016EE871E00E94CD14C0EED1E0C801CF
:1017000069910E94B11381E0C03FD807C1F7DF9112
:10171000CF911F910F910895CB016FE971E00E9465
:10172000D01408958F929F92AF92BF92CF92DF9282
:10173000EF92FF920F931F93DF93CF93CDB7DEB756
:10174000CE54D0400FB6F894DEBF0FBECDBF4C01D3
:101750005B018091DF02882311F410E0A1C16E01CA
:101760000894C11CD11CC60169ED72E00E941E18CC
:10177000C6010E94451589ED92E067E771E00E947D
:101780008615882371F58E01095F1F4FC80162EA33
:1017900071E00E941417C601B8010E941516F82EB8
:1017A000C8010E943218FF20E1F18E01035F1F4F34
:1017B0002091DD023091DE02C80169ED72E045E062
:1017C00050E00E94C017C8010E943415F62EC801CF
:1017D0000E943218FF2071F4C50169E971E00E948E
:1017E000D01489ED92E067E771E00E9446171092ED
:1017F000DF0251C18FE192E061E070E04F2D0E9465
:10180000BA05C5016FE971E00E94D01489ED92E03C
:1018100067E771E00E9446171092DF02F0926902BA
:10182000D4C08E010D5E1F4FC80168EA71E00E94AE
:101830001417C601B8010E941516F82EC8010E949F
:101840003218FF2089F18E01075E1F4F2091DD02C3
:101850003091DE02C80169ED72E045E050E00E947F
:10186000C017C8010E943415F62EC8010E94321814
:101870008F2D81508E3F08F0AFCF8FE192E060E076
:1018800070E04F2D0E94BA05C5016FE971E00E941A
:10189000D01489ED92E067E771E00E94461710923C
:1018A000DF02F0926A0291C08E01015E1F4FC801F3
:1018B0006EEA71E00E941417C601B8010E94151665
:1018C000F82EC8010E943218FF2009F071C08E0165
:1018D0000B5D1F4FC80165EB71E00E941417C60134
:1018E000B8010E941516F82EC8010E943218FF2078
:1018F000B1F08E01055D1F4F2091DD023091DE02B7
:10190000C80169ED72E049E050E00E94C017C801CB
:101910000E9434157093ED026093EC022DC08E018D
:101920000F5C1F4FC8016FEB71E00E941417C601D6
:10193000B8010E941516F82EC8010E943218FF2027
:1019400011F1E090EC02F090ED028E01095C1F4F66
:101950002091DD023091DE02C80169ED72E04AE0BB
:1019600050E00E94C017C8010E943415462F8FE135
:1019700092E0B7010E94BA05C8010E943218C50161
:101980006FE971E02CCF8E01035C1F4FC8016AEC38
:1019900071E00E941417C601B8010E941516F82EB6
:1019A000C8010E943218FF20A1F0C4010E94490B17
:1019B000C5016FE971E00E94D01489ED92E067E7FC
:1019C00071E00E9446171092DF02C4010E942D0BA5
:1019D00062C08E010D5B1F4FC80161ED71E00E9476
:1019E0001417C601B8010E941516F82EC8010E94EE
:1019F0003218FF2011F411E04FC08E01075B1F4F1A
:101A00002091DD023091DE02C80169ED72E045E00F
:101A100050E00E94C017F80184819581409749F5F4
:101A200005E010E089ED92E0B8010E942315482FEF
:101A3000F801E552FE4F8083035010408FE192E0A1
:101A4000B8010E94BA050C5F1F4F0531110551F70F
:101A5000C5016FE971E00E94D01489ED92E067E75B
:101A600071E00E9446171092DF02C4010E942D0B04
:101A70000DC0C50169E971E00E94D01489ED92E0C2
:101A800067E771E00E9446171092DF02CE01875B84
:101A90009F4F0E94321810E0CE0101960E9432182A
:101AA000812FC25BDF4F0FB6F894DEBF0FBECDBFF4
:101AB000CF91DF911F910F91FF90EF90DF90CF902A
:101AC000BF90AF909F908F9008951F93CF93DF9317
:101AD000EB0111E022C0E881F9810680F781E02D59
:101AE000CE010995682F803259F48091E00280334D
:101AF00039F4F894E091F101F091F201099516C0E2
:101B00006093E0026A3011F06D3019F41093DF0237
:101B100004C089ED92E00E948B16E881F98104806F
:101B2000F581E02DCE010995892BA9F6DF91CF91A2
:101B30001F910895EF920F931F93CF93DF93162F6A
:101B4000C0E0D0E020917302222321F18BE692E0E5
:101B5000612F44E752E002E03FE0E32E0E943609A5
:101B6000882319F01092730215C02196C930D1054F
:101B700021F41092730280E00EC063E270E080E016
:101B800090E024E630E040E050E00E9405150E941D
:101B90005010D8CF81E0DF91CF911F910F91EF903E
:101BA00008956FEF70E00E949A0D0895CF93DF9330
:101BB000EC0180916302882339F08BE692E067E7BD
:101BC00071E040E00E94E60880917302882329F0CA
:101BD000CE010E94D10D109221028091D80288235B
:101BE00029F01092D802CE010E942D0BDF91CF91E7
:101BF0000895EF92FF920F931F93DF93CF9300D03E
:101C000000D000D0CDB7DEB7F82EE92E0E94071025
:101C10002091E8023091E9024091EA025091EB02F2
:101C2000621B730B840B950B685E73408040904081
:101C300090F08F2D9E2D67E771E00E94461710925D
:101C4000E7020E9407106093E8027093E902809314
:101C5000EA029093EB028BE692E00E9487078823CA
:101C600011F400E07CC08E010F5F1F4FC80161E2DC
:101C700072E00E941417C8016F2D7E2D0E94DC15A2
:101C8000882339F0909160028091E702891709F466
:101C900074C08F2D9E2DBE016F5F7F4F0E9407186D
:101CA000809160028093E7020E9407106093E8022F
:101CB0007093E9028093EA029093EB0280912102F3
:101CC000803709F05DC0809122028E3609F058C03D
:101CD0008FE4809374028BE48093750282E080939A
:101CE000730232C0809122028E3609F04EC045C088
:101CF00080912202853609F04DC0809123028337FE
:101D000009F048C08FE4809374028BE480937502DD
:101D100082E08093730215C0809122028536D1F44F
:101D2000809123028636B1F48FE4809374028BE4B1
:101D30008093750282E0809373028F2D9E2D0E9406
:101D4000490B81E08093D8028F2D9E2D0E94D60DE5
:101D500000E001C001E0CE0101960E943218802F00
:101D600026960FB6F894DEBF0FBECDBFCF91DF91A0
:101D70001F910F91FF90EF90089510927302E4CF9E
:101D8000809121028E3609F4ADCF809121028237F5
:101D900009F4AECF809121028436E1F6BDCF0F93D6
:101DA0001F93CF93DF93162F042F88E10FB6F8947B
:101DB00080936000109260000FBE60E971E080E0E7
:101DC00090E00E94501028E288E190E00FB6F8946D
:101DD000A895809360000FBE209360008FE192E091
:101DE00060E070E00E94B30580936A028F3F11F4B7
:101DF00010936A02002311F010936A028FE192E0BF
:101E000061E070E00E94B305809369028F3F19F48E
:101E100081E0809369028FE192E062E070E00E94CD
:101E2000B3058F3F79F0C2E0D0E08FE192E0BE01D0
:101E30000E94B305FE01E252FE4F80832196C2311B
:101E4000D10599F78BE692E06BE240916A0220910E
:101E500069020E9484098BE692E060EE71E00E94C4
:101E6000B10789ED92E064E670E00E944216DF91CE
:101E7000CF911F910F91089561E070E040E00E94C2
:101E8000CF0E0895823000F5E82FF0E0EE0FFF1F2F
:101E9000E251FD4F71836083882319F08130A1F4F2
:101EA00008C0809169008C7F842B80936900E89A38
:101EB000089580916900440F551F440F551F837F7B
:101EC000842B80936900E99A08951F920F920FB6B0
:101ED0000F9211242F933F934F935F936F937F93B0
:101EE0008F939F93AF93BF93EF93FF938091EE02F5
:101EF0009091EF02892B29F0E091EE02F091EF0230
:101F00000995FF91EF91BF91AF919F918F917F9133
:101F10006F915F914F913F912F910F900FBE0F9056
:101F20001F9018951F920F920FB60F9211242F93A6
:101F30003F934F935F936F937F938F939F93AF9351
:101F4000BF93EF93FF938091F0029091F102892B60
:101F500029F0E091F002F091F1020995FF91EF91E3
:101F6000BF91AF919F918F917F916F915F914F91B1
:101F70003F912F910F900FBE0F901F9018951F92B9
:101F80000F920FB60F9211242F933F938F939F932D
:101F9000AF93BF938091F6029091F702A091F8025F
:101FA000B091F9023091FA020196A11DB11D232FC3
:101FB0002D5F2D3720F02D570196A11DB11D2093C7
:101FC000FA028093F6029093F702A093F802B0937E
:101FD000F9028091F2029091F302A091F402B09183
:101FE000F5020196A11DB11D8093F2029093F302B8
:101FF000A093F402B093F502BF91AF919F918F919E
:102000003F912F910F900FBE0F901F9018958FB793
:10201000F8942091F6023091F7024091F802509125
:10202000F9028FBFB901CA010895789484B582601E
:1020300084BD84B5816084BD85B5826085BD85B56C
:10204000816085BDEEE6F0E0808181608083E1E81B
:10205000F0E0108280818260808380818160808353
:10206000E0E8F0E0808181608083E1EBF0E0808156
:1020700084608083E0EBF0E0808181608083EAE728
:10208000F0E08081846080838081826080838081B1
:10209000816080838081806880831092C100089570
:1020A000EF92FF920F931F93CF93DF937B018C01ED
:1020B0003FB7F8948091F2029091F302A091F4025C
:1020C000B091F50226B5A89B05C02F3F19F00196E7
:1020D000A11DB11D3FBFBA2FA92F982F8827820FAE
:1020E000911DA11DB11D52E0880F991FAA1FBB1F92
:1020F0005A95D1F7EC0130C00E94541A3FB7F894BA
:102100008091F2029091F302A091F402B091F50255
:1021100026B5A89B05C02F3F19F00196A11DB11D42
:102120003FBFBA2FA92F982F8827820F911DA11D7D
:10213000B11D32E0880F991FAA1FBB1F3A95D1F736
:102140008C1B9D0B885E9340B8F20894E108F1085F
:1021500001091109C851DC4FE114F1040105110511
:1021600059F6DF91CF911F910F91FF90EF90089555
:10217000CF93DF93482F50E0CA0186569F4FFC0152
:1021800034914A575F4FFA018491882369F190E0B6
:10219000880F991FFC01E859FF4FA591B491FC01EC
:1021A000EE58FF4FC591D491662351F42FB7F894A0
:1021B0008C91932F909589238C93888189230BC0D0
:1021C000623061F42FB7F8948C91932F9095892306
:1021D0008C938881832B88832FBF06C09FB7F89488
:1021E0008C91832B8C939FBFDF91CF910895482FC3
:1021F00050E0CA0182559F4FFC012491CA018656C6
:102200009F4FFC0194914A575F4FFA013491332359
:1022100009F440C0222351F1233071F0243028F416
:102220002130A1F0223011F514C02630B1F0273052
:10223000C1F02430D9F404C0809180008F7703C0AE
:10224000809180008F7D8093800010C084B58F774F
:1022500002C084B58F7D84BD09C08091B0008F77A6
:1022600003C08091B0008F7D8093B000E32FF0E039
:10227000EE0FFF1FEE58FF4FA591B4912FB7F894C2
:10228000662321F48C919095892302C08C91892B2F
:102290008C932FBF0895682F70E0CB0182559F4F1C
:1022A000FC012491CB0186569F4FFC0144916A5753
:1022B0007F4FFB019491992319F420E030E03CC05A
:1022C000222351F1233071F0243028F42130A1F081
:1022D000223011F514C02630B1F02730C1F024307F
:1022E000D9F404C0809180008F7703C08091800072
:1022F0008F7D8093800010C084B58F7702C084B535
:102300008F7D84BD09C08091B0008F7703C080911C
:10231000B0008F7D8093B000892F90E0880F991FC7
:1023200084589F4FFC01A591B4918C9120E030E03E
:10233000842311F021E030E0C90108951F920F922B
:102340000FB60F9211242F933F934F938F939F9328
:10235000EF93FF938091C00082FD19C04091C600A9
:1023600080911903282F30E02F5F3F4F2F7330707B
:1023700080911A0390E02817390759F0E09119036A
:10238000F0E0E550FD4F42A32093190302C0809175
:10239000C600FF91EF919F918F914F913F912F91A7
:1023A0000F900FBE0F901F901895809119032091E8
:1023B0001A0390E0805C9F4F821B91098F7390708D
:1023C000892B11F00E94030308951F920F920FB6FC
:1023D0000F9211242F938F939F93EF93FF939091DC
:1023E0001B0380911C03981731F48091C1008F7DED
:1023F0008093C10010C0E0911C03F0E0E35AFC4F51
:10240000208180911C0390E001968F7390708093DF
:102410001C032093C600FF91EF919F918F912F9104
:102420000F900FBE0F901F901895AF92BF92DF9242
:10243000EF92FF920F931F93CF93DF93EC017A01FA
:102440008B01DD24403081EE580780E0680780E092
:10245000780711F0DD24D39491E0A92EB12CE889FE
:10246000F989DD2069F0C5010C8C02C0880F991F25
:102470000A94E2F7808360E079E08DE390E005C0A4
:10248000108260E874E88EE190E0A80197010E9454
:10249000871A215030404040504056954795379517
:1024A000279580E12030380720F0DD2011F0DD2471
:1024B000D6CFEC85FD853083EE85FF8520831D8E8C
:1024C000EA89FB89408121E030E0C901088C02C023
:1024D000880F991F0A94E2F7482B4083EA89FB8909
:1024E0004081C901098C02C0880F991F0A94E2F744
:1024F000482B4083EA89FB894081C9010A8C02C0CC
:10250000880F991F0A94E2F7482B4083EA89FB89D8
:1025100080810B8C02C0220F331F0A94E2F72095B2
:1025200028232083DF91CF911F910F91FF90EF908F
:10253000DF90BF90AF900895FC01268D878D30E02D
:10254000205C3F4F281B31092F733070C90108955B
:10255000FC01968D878D981719F42FEF3FEF06C079
:10256000878DE80FF11D82A1282F30E0C901089561
:10257000DC015E969C915E975F968C915F979817B1
:1025800019F42FEF3FEF10C05F968C915F97FD011C
:10259000E80FF11D92A15F968C915F978F5F8F730B
:1025A0005F968C93292F30E0C9010895DC015D9678
:1025B0008C915D97882339F05096ED91FC9151975D
:1025C000808186FFF9CF5D961C920895DC0190967C
:1025D0008C919097282F30E02F5F3F4F2F733070F2
:1025E00091968C91919790E028173907C9F39096AE
:1025F0008C919097FD01E80FF11DEE59FF4F60831C
:1026000090962C9390975296ED91FC915397208140
:1026100081E090E05B960C905B9702C0880F991F59
:102620000A94E2F7282B208381E05D968C935D97D6
:102630005096ED91FC91519780818064808381E078
:1026400090E008951092FE021092FD0288EE93E051
:10265000A0E0B0E08093FF0290930003A0930103F9
:10266000B093020383E092E09093FC028093FB021C
:1026700010921C0380911C0380931B0310921A0379
:1026800080911A038093190385EC90E090930803DE
:102690008093070384EC90E090930A0380930903EE
:1026A00080EC90E090930C0380930B0381EC90E01E
:1026B00090930E0380930D0382EC90E090931003AF
:1026C00080930F0386EC90E09093120380931103A4
:1026D00084E08093130383E08093140387E0809366
:1026E000150385E08093160381E080931703089516
:1026F000CF93DF930E9415100E946D05C5EDD1E1C7
:102700000E940A032097E1F30E94D511F9CFCF92DE
:10271000DF92EF92FF920F931F93CF93DF937C0191
:102720006B018A01C0E0D0E00FC0D6016D916D0150
:10273000D701ED91FC910190F081E02DC701099541
:10274000C80FD91F015010400115110571F7CE01B6
:10275000DF91CF911F910F91FF90EF90DF90CF907D
:102760000895DC01ED91FC910190F081E02D099537
:102770000895EF92FF920F931F938C01DC01ED916E
:10278000FC910190F081E02D6DE009957C01D8016C
:10279000ED91FC910190F081E02DC8016AE009956E
:1027A0009C012E0D3F1DC9011F910F91FF90EF90CD
:1027B0000895CF93DF93EC016115710519F420E0C2
:1027C00030E00FC0DB010D900020E9F71197A61B48
:1027D000B70BE881F9810280F381E02DAD01099505
:1027E0009C01C901DF91CF9108954F925F927F9232
:1027F0008F929F92AF92BF92CF92DF92EF92FF9211
:102800000F931F93DF93CF93CDB7DEB7A1970FB68A
:10281000F894DEBF0FBECDBF2C01742ECB01223049
:1028200008F42AE019A231E2C32ED12CCC0EDD1E11
:10283000822E9924AA24BB24672D752FA50194010B
:102840000E94871A79018A01C801B701A501940184
:102850000E94551A472D461B0894C108D1084A30DA
:1028600014F4405D01C0495CF6014083E114F104B9
:102870000105110521F07E2C5F2DC801DDCFC201BD
:10288000B6010E94D913A1960FB6F894DEBF0FBE11
:10289000CDBFCF91DF911F910F91FF90EF90DF900F
:1028A000CF90BF90AF909F908F907F905F904F9010
:1028B0000895DC012115310541F4ED91FC91019061
:1028C000F081E02D642F099508950E94F513089575
:1028D000EF92FF920F931F939A01E62EFF2400E0E0
:1028E00010E0B801A7010E9459141F910F91FF90A9
:1028F000EF900895CF92DF92EF92FF920F931F9384
:10290000CF93DF93EC016A017B012115310541F47E
:10291000E881F9810190F081E02D642F09951FC0B5
:102920002A303105D1F477FF17C0E881F981019091
:10293000F081E02D6DE209958C0144275527BA01FD
:102940004C195D096E097F09CE012AE00E94F5133A
:102950009801280F391F04C02AE00E94F5139C013A
:10296000C901DF91CF911F910F91FF90EF90DF9000
:10297000CF900895EF92FF920F931F937B019A01DE
:102980000027F7FC0095102FB801A7010E947A14C8
:102990001F910F91FF90EF9008950E94D913089511
:1029A000EF92FF920F931F937C010E94D9138C0129
:1029B000C7010E94B913080F191FC8011F910F9179
:1029C000FF90EF900895EF92FF920F931F937B017A
:1029D0008C01611571058105910529F420E030E035
:1029E00040E050E00BC00E94E300A80197010E9464
:1029F000A91AAC01CB01DA019C01AD01B901CA01F0
:102A00001F910F91FF90EF900895EF92FF920F9317
:102A10001F937B018C01621773078407950764F489
:102A2000261B370B480B590BCA01B9010E94E3144E
:102A3000E60EF71E081F191FB701C8011F910F915D
:102A4000FF90EF900895FC018481958168177907C4
:102A500048F40190F081E02D309721F0E60FF71F48
:102A60008081089580E00895FC0180819181009724
:102A700029F420E030E040E050E004C00E94F10082
:102A80009B01AC01B901CA010895CF93DF93FC010A
:102A9000C081D181209739F409C0992787FD90958D
:102AA0000E94DE1A899388818823B9F7DF91CF913C
:102AB00008950F931F93CF93DF93FC018B01411572
:102AC0005105F9F061157105E1F0848195812817B0
:102AD000390718F0FB01108214C041505040EC013E
:102AE000C21BD30B4C175D0708F4EA0160817181AA
:102AF000620F731FC801AE010E943F01C00FD11FBA
:102B00001882DF91CF911F910F910895DC01FB0195
:102B100014968D919C911597892B31F4611571054F
:102B2000A9F090E0808108C00D90BC91A02D6115A6
:102B3000710529F490E08C91882349F407C0CD01F8
:102B40000E9421019C0190E0232B09F491E0892F40
:102B50000895CF93DF939C01FB01EC01A881B9811B
:102B6000109729F06081718161157105D1F4C081E0
:102B7000D181209759F084819581892B39F0888102
:102B800090E022273327281B390B12C0109771F0D1
:102B9000F90184819581892B49F08C91282F30E0AF
:102BA00007C0CD010E9421019C0102C020E030E05D
:102BB000C901DF91CF910895FC01DB0124813581AA
:102BC00014968D919C9115972817390711F020E0E4
:102BD00007C0CF010E94A91520E0892B09F421E04C
:102BE000822F0895FC01DB0114962D913C911597DD
:102BF00084819581821B930B84179507A0F08081B7
:102C00009181009781F06D917C916115710559F06A
:102C1000840F951FA9010E9431019C0180E0232BA4
:102C200019F481E0089580E00895FC01DB0124811E
:102C3000358114968D919C9115972817390710F4BA
:102C400080E00895CF0140E050E00E94F215089521
:102C50000F931F93CF93DF93EC018B016F5F7F4F37
:102C6000888199810E947319009711F480E005C052
:102C7000998388831B830A8381E0DF91CF911F9121
:102C80000F910895CF93DF93EC0188819981892B6F
:102C900029F08A819B818617970760F4CE010E94F4
:102CA0002816882341F08C819D81892B19F4E881B5
:102CB000F981108281E0DF91CF910895EF92FF9228
:102CC0000F931F93CF93DF93EC017B016C817D8188
:102CD000E114F104C1F04115510599F08A01060F84
:102CE000171FB8010E944216882369F088819981D4
:102CF0002C813D81820F931FB7010E942A011D8301
:102D00000C8381E001C080E0DF91CF911F910F9192
:102D1000FF90EF900895DF93CF9300D0CDB7DEB74B
:102D200069831A82BE016F5F7F4F41E050E00E94CD
:102D30005E160F900F90CF91DF910895CF93DF93A0
:102D4000EC0188819981009711F00E94DB181982AB
:102D500018821D821C821B821A82DF91CF910895F6
:102D60000F931F93182F092F0E948B16882321F48D
:102D7000812F902F0E949E16812F902F1F910F91CF
:102D800008950F931F93182F092F6115710561F096
:102D9000DB010D900020E9F71197A61BB70BAD01E1
:102DA0000E945E16882321F4812F902F0E949E1688
:102DB000812F902F1F910F9108950F931F93182F1C
:102DC000092FFB0160817181448155810E945E164B
:102DD000882321F4812F902F0E949E16812F902FFF
:102DE0001F910F910895EF92FF920F931F93CF932E
:102DF000DF93EC017B018A01BA010E94421688230D
:102E000021F4CE010E949E1607C01D830C83888189
:102E10009981B7010E942A01CE01DF91CF911F91C4
:102E20000F91FF90EF900895CF93DF93EC011982FB
:102E300018821B821A821D821C826115710551F055
:102E4000DB010D900020E9F71197A61BB70BAD0130
:102E50000E94F316DF91CF910895CF93DF93EC0199
:102E6000198218821B821A821D821C8261157105CB
:102E700051F0DB010D900020E9F71197A61BB70B6D
:102E8000AD010E94F316DF91CF9108950F931F9328
:102E9000182F092F6115710559F0DB010D900020E5
:102EA000E9F71197A61BB70BAD010E94F31602C0FC
:102EB0000E949E16812F902F1F910F910895EF92DF
:102EC000FF920F931F93DF93CF93CDB7DEB7629737
:102ED0000FB6F894DEBF0FBECDBF8C01CB01F80159
:102EE0001182108213821282158214827E0108944C
:102EF000E11CF11CB70150E00E944E01C801B7016E
:102F00000E94461762960FB6F894DEBF0FBECDBF83
:102F1000CF91DF911F910F91FF90EF900895EF9265
:102F2000FF920F931F93DF93CF93CDB7DEB729970F
:102F30000FB6F894DEBF0FBECDBF8C01862FF8010F
:102F400011821082138212821582148290E07E0117
:102F50000894E11CF11CB70150E00E948401C801F3
:102F6000B7010E94461729960FB6F894DEBF0FBE30
:102F7000CDBFCF91DF911F910F91FF90EF900895FA
:102F8000BF92CF92DF92EF92FF920F931F93CF9356
:102F9000DF93082FB92E6B017A01E9012417350759
:102FA00010F4EA017901802F9B2D67ED71E00E94FA
:102FB0001417D60114968D919C9115978E159F0527
:102FC000D0F08C179D0708F4EC01D601ED91FC912F
:102FD0001197EC0FFD1F108110826D917C916E0D89
:102FE0007F1D802F9B2D0E944617D601ED91FC91ED
:102FF000EC0FFD1F1083802F9B2DDF91CF911F9130
:103000000F91FF90EF90DF90CF90BF900895CF93F6
:10301000DF93EC01FB018617970761F060817181F6
:103020006115710529F0448155810E94F31602C093
:103030000E949E16CE01DF91CF910895FC0111826E
:10304000108213821282158214820E94071808953A
:10305000FC011182108213821282158214820E9456
:1030600007180895FC01808191810E94DB18089562
:10307000FC01808191810E94DB1808950F931F93BA
:10308000CF93DF93BC018230910510F462E070E0D1
:10309000E0919F03F091A00340E050E0A0E0B0E099
:1030A00024C08081918186179707D0F086179707F3
:1030B00071F482819381109729F013969C938E93DB
:1030C00012972CC09093A00380939F0327C04115B3
:1030D000510519F08417950718F48D01AC01EF0123
:1030E000DF01828193819C01F9013097D1F641156E
:1030F0005105F9F0CA01861B970B8430910580F4C5
:103100008A819B810115110521F0F8019383828347
:1031100004C09093A00380939F03FE01329645C0A4
:10312000FE01E80FF91F61937193029799838883D9
:103130003CC080919D0390919E03892B41F4809126
:10314000F5019091F60190939E0380939D03409129
:10315000F7015091F8014115510541F44DB75EB7A3
:103160008091F3019091F401481B590B20919D032C
:1031700030919E0324173507B0F4CA01821B930BCC
:103180008617970780F0AB014E5F5F4F8417950756
:1031900050F0420F531F50939E0340939D03F9013B
:1031A0006193719302C0E0E0F0E0CF01DF91CF9135
:1031B0001F910F910895CF93DF939C01009709F41D
:1031C0008FC0EC0122971B821A8260919F0370913D
:1031D000A0036115710581F488819981820F931F85
:1031E00020919D0330919E032817390739F5D0931C
:1031F0009E03C0939D0374C0DB0140E050E0AC1718
:10320000BD0708F1BB83AA83FE0121913191E20F32
:10321000F31FAE17BF0779F48D919C911197280F7A
:10322000391F2E5F3F4F3983288312968D919C91D1
:1032300013979B838A834115510571F4D093A003A2
:10324000C0939F034DC012968D919C911397AD0131
:10325000009711F0DC01D3CFDA011396DC93CE9303
:103260001297FA0121913191E20FF31FCE17DF0778
:1032700069F488819981280F391F2E5F3F4FFA0129
:10328000318320838A819B8193838283E0E0F0E015
:10329000DB0112968D919C911397009719F0BC0158
:1032A000FD01F6CFAB014E5F5F4FDB018D919C912D
:1032B000840F951F20919D0330919E032817390795
:1032C00079F4309729F41092A00310929F0302C062
:1032D000138212824250504050939E0340939D03AC
:1032E000DF91CF9108956F927F928F929F92AF92CC
:1032F000BF92CF92DF92EF92FF920F931F93CF93E3
:10330000DF938C01009729F4CB010E943E188C01B9
:10331000BBC08EEFE82E8FEFF82EE00EF11E4801B5
:10332000860E971E8E149F0408F4ACC0D7014D91F1
:103330005C91119746175707B8F04530510508F4CE
:10334000A3C0CA0104978617970708F49DC042508E
:103350005040461B570BF401419351936D937C935E
:10336000CF010E94DB1890C05B01A41AB50A380196
:10337000640E751EA0919F03B091A003E0E0F0E001
:10338000CC24DD2447C0A615B705A9F5CD91DC9165
:103390001197CE0102968A159B0568F1CE018A1914
:1033A0009B09029612962C91129713963C910597C1
:1033B00058F0F40122833383CA19DB09D183C08317
:1033C000D7016D937C9309C04E5F5F4F4C0F5D1F1B
:1033D000F70151834083C901FC01C114D10431F0CC
:1033E000D6011396FC93EE9312974EC0F093A00370
:1033F000E0939F0349C08D919C911197E817F907BD
:1034000008F4FC016D0112968C91129713969C9111
:103410009C01D901109709F0B6CF80919D0390913E
:103420009E0386159705E9F4E617F707D0F4209177
:10343000F7013091F8012115310541F42DB73EB760
:103440008091F3019091F401281B390B82169306A9
:10345000C8F490929E0380929D03F701718360836C
:1034600013C0CB010E943E18EC01009759F0D70120
:103470004D915C91B8010E941801C8010E94DB18AF
:103480008E0102C000E010E0C801DF91CF911F91D2
:103490000F91FF90EF90DF90CF90BF90AF909F90F3
:1034A0008F907F906F9008950895629FD001739FD1
:1034B000F001829FE00DF11D649FE00DF11D929FD0
:1034C000F00D839FF00D749FF00D659FF00D99270F
:1034D000729FB00DE11DF91F639FB00DE11DF91F33
:1034E000BD01CF011124089597FB092E07260AD0AC
:1034F00077FD04D049D006D000201AF4709561956C
:103500007F4F0895F6F7909581959F4F0895A1E21A
:103510001A2EAA1BBB1BFD010DC0AA1FBB1FEE1F4D
:10352000FF1FA217B307E407F50720F0A21BB30B98
:10353000E40BF50B661F771F881F991F1A9469F714
:1035400060957095809590959B01AC01BD01CF0170
:10355000089597FB092E05260ED057FD04D0D7DF1E
:103560000AD0001C38F450954095309521953F4F76
:103570004F4F5F4F0895F6F7909580957095619540
:103580007F4F8F4F9F4F0895AA1BBB1B51E107C070
:10359000AA1FBB1FA617B70710F0A61BB70B881FE3
:1035A000991F5A95A9F780959095BC01CD01089572
:1035B000EE0FFF1F0590F491E02D099491110895ED
:1035C00081548A5108F4805E855A08952F923F9263
:1035D0004F925F926F927F928F929F92AF92BF9223
:1035E000CF92DF92EF92FF920F931F93CF93DF93CF
:1035F000CDB7DEB7CA1BDB0B0FB6F894DEBF0FBE2C
:10360000CDBF09942A88398848885F846E847D8478
:103610008C849B84AA84B984C884DF80EE80FD807A
:103620000C811B81AA81B981CE0FD11D0FB6F894F0
:10363000DEBF0FBECDBFED01089510E0C8ECD0E0B5
:1036400004C0FE010E94DA1A2296CC3CD107C9F7C9
:04365000F894FFCF1C
:103654004F50454E454400434C4F53454400387C3D
:10366400007C002E0061742B730009446576696345
:103674006520747970653A4D61676E65746963534A
:10368400656E736F720009506572696F643A000960
:10369400426174746572793A0009456E61626C65C1
:1036A400643A000953656E736F723A0061742B6D4E
:1036B4003D0061742B656E0061742B6469000053D6
:1036C40074617274656400002B44657669636520D7
:1036D40049443A00094368616E6E656C3A000950CA
:1036E400617373776F72643A004552524F52004FC0
:1036F4004B0061742B633D0061742B6E3D0061745B
:103704002B7265730061742B6D656D69643D006196
:10371400742B6D656D76616C3D0061742B64656618
:103724000061742B703D00000100000060EA00009D
:10373400746869734973456E63727970744B657903
:1037440000053F8000A103000000000000ED070019
:10375400000000E61287139C12B812A812D61200B9
:00000001FF
