:100000000C9401010C9491210C94BE210C949B063C
:100010000C94C8060C94F5060C94E6160C94290171
:100020000C9429010C9429010C9429010C942901A8
:100030000C9429010C9429010C9429010C94290198
:100040000C94EB210C9429010C94CA230C941124D8
:100050000C9429010C9429010C9429010C94290178
:100060000C9429010C9429010000000024002700B1
:100070002A0000000000250028002B0000000000DE
:1000800023002600290004040404040404040202DA
:100090000202020203030303030301020408102007
:1000A0004080010204081020010204081020000012
:1000B0000007000201000003040600000000000029
:1000C0000000494E46494E4954594E414ECDCCCC84
:1000D0003D0AD7233C17B7D13877CC2B329595E61C
:1000E000241FB14F0A000020410000C84200401CFC
:1000F0004620BCBE4CCA1B0E5AAEC59D7400407A49
:1001000010F35A00A0724E18090010A5D4E80000A0
:10011000E87648170000E40B54020000CA9A3B003E
:100120000000E1F505000080969800000040420FB5
:10013000000000A08601000000102700000000E879
:1001400003000000006400000000000A000000003E
:10015000000100000000002C76D888DC674F0823DF
:10016000DFC1DFAE59E1B1B796E5E3E453C63AE645
:1001700051997696E8E6C28426EB898C9B62ED4025
:100180007C6FFCEFBC9C9F40F2BAA56FA5F4900574
:100190005A2AF75C936B6CF9676DC11BFCE0E40DA8
:1001A00047FEF520E6B500D0ED902E03009435779C
:1001B000050080841E080000204E0A000000C80CC4
:1001C000333333330F986E12831141EF8D2114892D
:1001D0003BE65516CFFEE6DB18D1844B381BF77C87
:1001E0001D901DA4BBE424203284725E228100C9CC
:1001F000F124ECA1E53D27008307CA1B4E257C07AF
:10020000C31B11241FBECFEFD8E0DEBFCDBF12E06D
:10021000A0E0B1E0EAE6FFE502C005900D92A8314A
:10022000B107D9F714E0A8E1B2E001C01D92A63CE5
:10023000B107E1F711E0CEEFD1E004C02297FE0153
:100240000E945A2FC83FD107C9F70E94A4250C94D9
:10025000A82F0C940000EF92FF920F931F93F22FA0
:10026000F02E47FD02C0E4E001C0E4E1242F332773
:1002700027FD309537FF03C0309521953F4F4F2D17
:10028000512F0F2FEE2E0E9474028F2D912F1F9150
:100290000F91FF90EF900895A0E0B0E0E2E5F1E06B
:1002A0000C94792FEC01A880B980CA80DB80A1145E
:1002B000B104C104D10441F484E2A82E89EDB82E22
:1002C0008BE5C82E87E0D82EC601B5012DE133EFAE
:1002D00041E050E00E943D2F27EA31E440E050E049
:1002E0000E94E82E7B018C01C601B5012DE133EFA0
:1002F00041E050E00E943D2FCA01B9012CEE34EFDD
:100300004FEF5FEF0E94E82E6E0D7F1D801F911F43
:1003100097FF04C0615070408040904868837983A3
:100320008A839B839B01AC015F77B901CA01CDB77A
:10033000DEB7EAE00C94952F0E944C01089581EC01
:1003400091E00E944C0108956093C1017093C20135
:100350008093C3019093C4010895662777270C9476
:10036000D6031F93FC0199278827BC01E8941191BB
:100370001032E9F3193010F01E30C8F31B3251F07F
:100380001D3249F4689406C00E944902610F711D34
:10039000811D911D119110531A30B0F33EF49095C8
:1003A0008095709561957F4F8F4F9F4F1F91089556
:1003B000FB01DC0102C001900D9241505040D8F782
:1003C0000895FB01DC018D91019080190110D9F392
:1003D000990B0895FB01DC0101900D920020E1F7DB
:1003E0000895FB01DC014150504030F08D910190A7
:1003F000801919F40020B9F7881B990B0895FB01A7
:10040000DC014150504048F001900D920020C9F7A6
:1004100001C01D9241505040E0F70895FB015191F9
:100420005523A9F0BF01DC014D9145174111E1F7BA
:1004300059F4CD010190002049F04D914015411132
:10044000C9F3FB014111EFCF81E090E001970895DE
:10045000FB019F01E8944230C4F04532B4F44A30C5
:1004600029F497FB1EF4909581959F4F642F772771
:100470000E94072F805D8A330CF0895D8193CB0148
:100480000097A1F716F45DE251931082C9010C9414
:100490002606592F482F372F262F660F771F881FC4
:1004A000991F660F771F881F991F620F731F841F84
:1004B000951F660F771F881F991F0895FB019F01E5
:1004C000423074F0453264F4642F77270E94072F7E
:1004D000805D8A330CF0895D8193CB010097A1F791
:1004E0001082C9010C942606A9E0B0E0EAE7F2E028
:1004F0000C94752F6A01122FA02EBE2C2BE320170F
:1005000018F42CE3922E02C0902E9394AE014F5F0C
:100510005F4F27E0092D0E943605BC018981E82E36
:10052000FF24C70189709070019711F4ADE209C0F2
:10053000B1FE02C0ABE205C0B0FC02C0A0E001C049
:10054000A0E2E3FE3BC0AA2311F423E001C024E0B3
:10055000211710F020E002C0121B212FEB2CB4FE5B
:1005600002C0322F0AC0F601322F80E202C081930E
:1005700031503323E1F7C20ED11CAA2319F0F60142
:10058000A1936F01F6013196E2FE05C09EE4D6010B
:100590009C9381E404C09EE6D6019C9381E611966B
:1005A0008C9391833296DF01832F90E202C09D935A
:1005B00081508823E1F7E30FF11D40C0E2FE42C005
:1005C000AA2311F423E001C024E0211710F020E059
:1005D00002C0121B212FEB2CB4FE02C0922F0AC0C6
:1005E000F601922F80E202C0819391509923E1F7A6
:1005F000C20ED11CAA2319F0F601A1936F01F601D6
:100600003196E2FE08C089E4D6018C938EE41196FF
:100610008C9386E407C089E6D6018C938EE611960A
:100620008C9386E681833296DF01892F20E202C017
:100630002D9381508823E1F7E90FF11D10822EEFF1
:100640003FEFAFC0161617061CF041E050E003C0A4
:10065000AB014F5F5F4FAA2019F480E090E003C028
:100660008A2D90E0019620E030E0AA2311F021E0ED
:1006700030E0240F351F280F391F812F90E02817F5
:10068000390714F020E002C0121B212F4B2D50E03F
:10069000CA0180719070B4FC0DC0B3FC0BC0F601B0
:1006A000322F40E202C0419331503323E1F7C20EB2
:1006B000D11C01C0322FAA2319F0F601A1936F01BA
:1006C000892B11F0132F0AC0F601132F80E302C00B
:1006D000819311501123E1F7C30ED11C092D060F90
:1006E000BA8090E1892E912C8E209F20E4FE04C0D8
:1006F000F1E3BF1609F40150101614F001E003C035
:10070000093008F008E09B0177FF02C020E030E0EC
:10071000CB010196821B930BFE013196E80FF91F66
:100720008EE2F82E3B01601A71088A2D90E0442772
:100730005527481B590B8FEF2F3F380719F4D60167
:10074000FD926D01621773072CF06216730614F4A4
:10075000808101C080E32150304031962417350755
:1007600024F0D6018D936D01E6CF2617370749F4A3
:10077000B5E3BB1528F0BB1621F48114910409F4EC
:1007800081E3F6018193D601812F90E202C09C9310
:10079000815011968823D9F7E10FF11D108220E0D6
:1007A00030E0C9012996EEE00C94912FA0E0B0E072
:1007B000ECEDF3E00C94772FEC015B016115710512
:1007C00019F0FB0191838083F9908F2D90E00E94B6
:1007D0005E2F892BC9F7FDE2FF1621F4F990EE2474
:1007E000E39405C02BE2F21609F4F990EE248E0191
:1007F00001501040C80162EC70E043E050E00E94FC
:100800000E06892B01F58E010E5F1F4FC80165ECA6
:1008100070E045E050E00E940E06892B19F48E012D
:10082000095F1F4FA114B10419F0F5011183008372
:10083000E0FC04C070E090E080E814C070E090E05C
:1008400080E86FEF08C1C8016AEC70E043E050E057
:100850000E940E06892B69F4A114B10429F470E0FA
:1008600090E080EC6FE7F7C02296F501D183C0835A
:10087000F6CF8824992440E050E060E070E0EF2D4E
:10088000E053EA30A0F5F2E0EF2A8E2D90E09C01D3
:1008900028703070E2FE06C0232B79F50894811C85
:1008A000911C2BC0232B19F0089481089108DB01BF
:1008B000CA0112E0880F991FAA1FBB1F1A95D1F712
:1008C000480F591F6A1F7B1F440F551F661F771F54
:1008D0004E0F511D611D711D483929E9520729E943
:1008E000620729E1720748F084E0E82A06C0EE3F7B
:1008F00031F4E3FC39C098E0E92AF990C0CFE53340
:1009000011F0E53189F529912D3219F4E0E1EE2A53
:1009100005C02B3219F081E090E003C0299182E0FC
:1009200090E0E22FE053EA3018F0C81BD90B1CC04E
:1009300020E030E0FCE020383F075CF4C901880F7C
:10094000991F880F991F280F391F220F331F2E0F51
:10095000311DE991E053EA3068F3E4FE03C03095BD
:1009600021953F4F820E931ECE2CDD24E1FE07C061
:10097000A114B10421F02197F501D183C083CB01EB
:10098000BA010E94CF2D7B018C01F3E0CF22DD2440
:1009900023E0C216D10421F417FB109517F9109526
:1009A00057016801C801B70120E030E040E050E0A5
:1009B0000E94322D882309F44AC097FE0DC021EE13
:1009C000E22E20E0F22E9094819491089394C0E25C
:1009D000D0E000E010E012C099EFE92E90E0F92E8F
:1009E000F6CFF7012591359145915491C601B50196
:1009F0000E94852E5B016C018C1A9D0A8C169D0647
:100A000084F7D595C7950F5F1F4F0630110529F064
:100A10008CEF9FEFE80EF91EF1CFC501D6017C01E6
:100A20008D018C2D880F8D2D881F8F3F51F0C601B1
:100A3000B50120E030E040E050E00E94322D8823F4
:100A400031F482E290E09093C5048093C4047E2D3B
:100A50009F2D802F612F272F392F482F562FB90117
:100A6000CA01CDB7DEB7ECE00C94932F283008F024
:100A700027E03327DA01990F311D87FD9160009639
:100A80006105710539F432602E5F3D9330E32A959C
:100A9000E1F708959F3F30F080387105610509F056
:100AA0003C5F3C5F3D93913008F08068911DDF937F
:100AB000CF931F930F93FF92EF92192F987F9695E4
:100AC000E92F96959695E90FFF27E95AFE4F99274A
:100AD0003327EE24FF24A701E7010590089407942B
:100AE00028F4360FE71EF81E491F511D660F771FA9
:100AF000881F991F0694A1F70590079428F4E70E24
:100B0000F81E491F561FC11D770F881F991F661FAA
:100B10000694A1F70590079428F4F80E491F561F74
:100B2000C71FD11D880F991F661F771F0694A1F755
:100B30000590079420F4490F561FC71FD81F990F1F
:100B4000661F771F881F0694A9F784911095177068
:100B500041F0D695C79557954795F794E7941A9520
:100B6000C1F7EDEFF0E0689415901591359165911E
:100B7000959105907FE27395E118F10A430B560BAE
:100B8000C90BD009C0F7E10CF11E431F561FC91F46
:100B9000D01D7EF4703311F48A95E6CFE8940150AD
:100BA00030F0080F0AF40027021708F4202F2395CD
:100BB000022F7A3328F079E37D932A95E9F710C064
:100BC0007D932A9589F6069497956795379517959D
:100BD0001794E118F10A430B560BC90BD00998F092
:100BE00023957E9173957A3308F070E37C932013FC
:100BF000B8F77E9170617D9330F0839571E37D93BA
:100C000070E32A95E1F71124EF90FF900F911F9167
:100C1000CF91DF91992787FD90950895FB01DC0125
:100C20004150504088F08D9181341CF08B350CF48C
:100C3000805E659161341CF06B350CF4605E861B40
:100C4000611171F3990B0895881BFCCFDC01FC0145
:100C5000672F71917723E1F7329704C07C916D93F0
:100C600070836291AE17BF07C8F30895DF92EF92C9
:100C7000FF920F931F93CF93DF938C01DD24D394C6
:100C800020911802D80115968C91159782271296FB
:100C9000ED91FC9113979081982315962C931597BD
:100CA0001696CD91DC911797E92EFF2432C08B81E7
:100CB000282F30E0C70182239323892B39F18A81C1
:100CC000813099F0833041F48091180290E08223C2
:100CD0009323892B51F41AC08230C1F480911802F9
:100CE00090E082239323892B89F410921A02809139
:100CF000180290E082239323892B11F0D0921A02DC
:100D00008C8180931902E881F98109950D80DE813B
:100D1000C02D209761F68BB3F801948189238BBB9A
:100D2000882309F0ADCFDF91CF911F910F91FF90F4
:100D3000EF90DF9008951F920F920FB60F9211243B
:100D40002F933F934F935F936F937F938F939F93D3
:100D5000AF93BF93EF93FF93E0911B02F0911C02BE
:100D60008081809318028BE192E00E943606FF9109
:100D7000EF91BF91AF919F918F917F916F915F9113
:100D80004F913F912F910F900FBE0F901F9018958C
:100D90001F920F920FB60F9211242F933F934F93F0
:100DA0005F936F937F938F939F93AF93BF93EF93D3
:100DB000FF93E0912302F091240280818093180236
:100DC00083E292E00E943606FF91EF91BF91AF91CE
:100DD0009F918F917F916F915F914F913F912F9153
:100DE0000F900FBE0F901F9018951F920F920FB685
:100DF0000F9211242F933F934F935F936F937F93A1
:100E00008F939F93AF93BF93EF93FF93E0912B0248
:100E1000F0912C028081809318028BE292E00E9474
:100E20003606FF91EF91BF91AF919F918F917F9186
:100E30006F915F914F913F912F910F900FBE0F9047
:100E40001F9018958130910509F04CC06F5F7F4F5E
:100E500009F051C0E0E8F0E08591949190931C0274
:100E600080931B028BE690E090931E0280931D02FC
:100E700081E080931F021092220210922102E2E888
:100E8000F0E08591949190932402809323028CE664
:100E900090E0909326028093250282E080932702BF
:100EA00010922A0210922902E4E8F0E085919491D0
:100EB00090932C0280932B028DE690E090932E026B
:100EC00080932D0284E080932F02109232021092C0
:100ED000310283E392E00E94871B89E392E00E9443
:100EE00040210895892B39F46F5F7F4F21F483E30C
:100EF00092E00E94D11B089580E090E06FEF7FEFB9
:100F00000E942207089581E090E06FEF7FEF0E943A
:100F1000220708958F929F92AF92BF92CF92DF9255
:100F2000EF92FF920F931F93CF93DF93EC012197E2
:100F3000FE01E35EFC4F608170E080E090E00E9483
:100F4000CF2D20E030E040E05FE30E94852E6B0172
:100F50007C01FE01EB5DFC4F608170E080E090E081
:100F60000E94CF2D20E030E040E251E40E94362D77
:100F70004B015C01C701B60120E030E040E050E0E9
:100F80000E94812E18160CF046C08E01000F111F12
:100F9000000F111F03501D4FC701B601A501940199
:100FA0000E94CE2C9B01AC01F8016081718182818D
:100FB00093810E94812E88235CF0FE01EE0FFF1FBB
:100FC000EB53FE4F808160E00E9423231092420386
:100FD0008E01000F111F000F111F03501D4FC7017D
:100FE000B601A50194010E94CD2C9B01AC01F80132
:100FF00060817181828193810E94322D18165CF08C
:10100000CC0FDD1FCB53DE4F888161E00E9423238C
:1010100081E080934203DF91CF911F910F91FF9068
:10102000EF90DF90CF90BF90AF909F908F900895FA
:101030008CE4809397038FE48093980383E58093F7
:10104000990384E580939A0380E580939B0387E569
:1010500080939C0382E580939D0387E080939603B1
:1010600083E392E00E947E1E0895CF92DF92EF927A
:10107000FF920F931F93DF93CF93CDB7DEB76297A5
:101080000FB6F894DEBF0FBECDBF80914103882319
:1010900009F440C04DE0E42EF12CEC0EFD1EC7011A
:1010A00060E071E00E947F298E01095F1F4FC80137
:1010B0006091E7014AE00E94112AC701B8010E942D
:1010C0002F2962E071E00E941329BC016E0108948F
:1010D000C11CD11CC6010E94A02AC8010E94AA2AD4
:1010E000C7010E94B02A4D814093960350E04F5FA4
:1010F0005F4FC60167E973E020E030E00E94992766
:101100006091410383E392E070E00E94471EC601B4
:101110000E94AA2A62960FB6F894DEBF0FBECDBF1A
:10112000CF91DF911F910F91FF90EF90DF90CF90C3
:10113000089580914203882311F00E943508089594
:101140002F923F924F925F926F927F928F929F92D7
:10115000AF92BF92CF92DF92EF92FF920F931F93C5
:10116000DF93CF93CDB7DEB7C654D0400FB6F89417
:10117000DEBF0FBECDBF26968FAF269727969FAFB7
:1011800027977B016B010894C108D108F601EE0F87
:10119000FF1FEE0FFF1FE350FD4F608171818281C1
:1011A000938101E3802E912C8C0E9D1E42E022E063
:1011B00084010E942B01F601E35EFC4F608170E028
:1011C00080E090E00E94CF2D20E030E040E05FE33F
:1011D0000E94852E1BE3A12EB12CAC0EBD1E42E059
:1011E00021E085010E942B01CE01079666E071E0A7
:1011F0000E947F291E010894211C311CC101B701E6
:101200004AE00E94E129CE010796B1010E942F29F0
:10121000BAE0EB2EB1E0FB2EB7010E9413298C013E
:10122000F601EE0FFF1FEB53FE4F80810E947723E4
:10123000BC01FDE04F2E512C4C0E5D1EC2014AE058
:101240000E94E129C801B2010E942F29B7010E9422
:1012500013298C01E3E16E2E712C6C0E7D1EC301EF
:10126000B4010E946629C801B3010E942F29B70169
:101270000E9413298C0179E1872E912C8C0E9D1EE2
:10128000C401B5010E946629C801B4010E942F293A
:101290006CE071E00E9413298C016FE1A62EB12C45
:1012A000AC0EBD1E85E293E0C80ED91EC501F60145
:1012B00060814AE00E94112AC801B5010E942F29CD
:1012C000B7010E9413298C0155E2C52ED12CCC0EFA
:1012D000DD1EC601609141034AE00E94112AC80147
:1012E000B6010E942F29B7010E9413297C018E01AB
:1012F000055D1F4FC8016091E7014AE00E94112A75
:10130000C701B8010E942F29BC0126968FAD2697F0
:1013100027969FAD27970E94A02AC8010E94AA2A5B
:10132000C6010E94AA2AC5010E94AA2AC4010E94DD
:10133000AA2AC3010E94AA2AC2010E94AA2AC101A4
:101340000E94AA2ACE0107960E94B02A26968FAD47
:10135000269727969FAD2797CA5BDF4F0FB6F89465
:10136000DEBF0FBECDBFCF91DF911F910F91FF90D8
:10137000EF90DF90CF90BF90AF909F908F907F9035
:101380006F905F904F903F902F9008952F923F92D3
:101390004F925F926F927F928F929F92AF92BF9285
:1013A000CF92DF92EF92FF920F931F93DF93CF9331
:1013B000CDB7DEB7E4970FB6F894DEBF0FBECDBF52
:1013C0008BAB9CAB4B01CB0101979AAB89AB5C011A
:1013D000EDE3F3E0AE0EBF1EF50160816C01CC0CB5
:1013E000DD1CF601EB5CFC4F0190F081E02D3097A5
:1013F00019F4362E22244CC084E690E0E89FB00118
:10140000E99F700DF89F700D112480E090E00E941C
:10141000CF2D7B018C018DE293E0C80ED91EF60121
:101420006081718180E090E00E94CF2D9B01AC0132
:10143000C801B7010E94362D7B018C01E9A9FAA9E8
:10144000EE0FFF1FEE0FFF1FEB53FE4F80810E9438
:101450007723F5016081019761F470E0882777FDBB
:101460008095982F0E94D12DA80197010E94CD2C24
:101470000BC070E0882777FD8095982F0E94D12DB2
:10148000A80197010E94CE2C0E949E2D362E272E59
:10149000CE01079660E171E00E947F29CE0101969E
:1014A000B4014AE00E94E129CE010796BE016F5FB8
:1014B0007F4F0E942F296AE071E00E9413297C016E
:1014C00009A91AA9000F111FF801EE0FFF1FEB5316
:1014D000FE4F80810E947723BC01EDE04E2E512CFF
:1014E0004C0E5D1EC2014AE00E94E129C701B20113
:1014F0000E942F296AE071E00E9413297C01F80103
:10150000EE0FFF1FE953FE4F80810E947723BC013D
:1015100043E1642E712C6C0E7D1EC3014AE00E94D3
:10152000E129C701B3010E942F296AE071E00E94FE
:1015300013297C0139E1832E912C8C0E9D1EF8011C
:10154000E35DFC4F60817181C4014AE00E94B129D2
:10155000C701B4010E942F296AE071E00E9413299B
:101560007C012FE1A22EB12CAC0EBD1E0B5C1C4FDA
:10157000F80160817181C5014AE00E94B129C7016B
:10158000B5010E942F296AE071E00E9413298C01A5
:1015900095E2E92EF12CEC0EFD1E89A99AA9835C37
:1015A0009C4F9AAB89ABC701E9A9FAA960814AE0CF
:1015B0000E94112AC801B7010E942F296AE071E038
:1015C0000E9413296C018E01055D1F4FC801632D18
:1015D000722D4AE00E94E129C601B8010E942F291C
:1015E000BC018BA99CA90E94A02AC8010E94AA2A1A
:1015F000C7010E94AA2AC5010E94AA2AC4010E940A
:10160000AA2AC3010E94AA2AC2010E94AA2ACE01C4
:1016100001960E94AA2ACE0107960E94B02A8BA9A1
:101620009CA9E4960FB6F894DEBF0FBECDBFCF9154
:10163000DF911F910F91FF90EF90DF90CF90BF90BF
:10164000AF909F908F907F906F905F904F903F9062
:101650002F900895AF92BF92CF92DF92EF92FF92B8
:101660000F931F93DF93CF9300D000D000D0CDB75E
:10167000DEB735E3C32E33E0D32E25ECE22E21E096
:10168000F22E01E010E05E010894A11CB11CF601ED
:1016900080819181009739F1019791838083892B13
:1016A00011F5F701808160E00E942323F701828118
:1016B00060E00E942323C501B8010E94C6094D8144
:1016C0004093960350E04F5F5F4FC50167E973E0B9
:1016D00020E030E00E94992783E392E00E947E1E82
:1016E000C5010E94AA2A0F5F1F4F82E090E0C80E3A
:1016F000D91EE4E0F0E0EE0EFF1E0530110539F6CC
:1017000026960FB6F894DEBF0FBECDBFCF91DF9106
:101710001F910F91FF90EF90DF90CF90BF90AF900F
:1017200008952F923F924F925F926F927F928F9285
:101730009F92AF92BF92CF92DF92EF92FF920F9360
:101740001F93DF93CF93CDB7DEB7A6970FB6F8946C
:10175000DEBF0FBECDBF8DA39EA38B01B7E02B2EA6
:10176000312C2C0E3D1EC10164E171E00E947F29E5
:101770002E010894411C511CC201B8014AE00E948C
:10178000E129C101B2010E942F29AAE0AA2EA1E0FD
:10179000BA2EB5010E9413297C0101501040680146
:1017A000CC0CDD1CF601EB53FE4F80810E947723A9
:1017B000BC01EDE06E2E712C6C0E7D1EC3014AE063
:1017C0000E94E129C701B3010E942F29B5010E949F
:1017D00013297C0153E1852E912C8C0E9D1E0B51FB
:1017E0001D4FC401F80160814AE00E94112AC7011F
:1017F000B4010E942F29B5010E9413298C0149E1EF
:10180000E42EF12CEC0EFD1EF601EB52FE4F808112
:1018100091816CE370E00E94072FC7014AE00E94AB
:10182000B129C801B7010E942F29B5010E941329CF
:101830005C018E01015E1F4F8DEE92E0C80ED91E35
:10184000F601808191816CE370E00E94072FC8014E
:101850004AE00E94B129C501B8010E942F29BC01AC
:101860008DA19EA10E94A02AC8010E94AA2AC70198
:101870000E94AA2AC4010E94AA2AC3010E94AA2A7D
:10188000C2010E94AA2AC1010E94B02A8DA19EA174
:10189000A6960FB6F894DEBF0FBECDBFCF91DF91F5
:1018A0001F910F91FF90EF90DF90CF90BF90AF907E
:1018B0009F908F907F906F905F904F903F902F9070
:1018C0000895AF92BF92CF92DF92EF92FF920F9363
:1018D0001F93DF93CF9300D000D000D0CDB7DEB7F9
:1018E0000DEEE02E02E0F02E15ECC12E11E0D12E0F
:1018F00001E010E05E010894A11CB11CF701808199
:101900009181009711F1019791838083892BE9F4EC
:10191000F601808160E00E942323C501B8010E9486
:10192000910B4D814093960350E04F5F5F4FC5018F
:1019300067E973E020E030E00E94992783E392E0BA
:101940000E947E1EC5010E94AA2A0F5F1F4F82E0DF
:1019500090E0E80EF91EC80ED91E0930110571F687
:1019600026960FB6F894DEBF0FBECDBFCF91DF91A4
:101970001F910F91FF90EF90DF90CF90BF90AF90AD
:10198000089583E392E06EE174E00E94121E0895D0
:101990000F931F938C01FB01248135810E94422A01
:1019A000C8011F910F9108954F925F926F927F929D
:1019B0008F929F92AF92BF92CF92DF92EF92FF925F
:1019C0000F931F93DF93CF93CDB7DEB768970FB612
:1019D000F894DEBF0FBECDBF8E010F5F1F4FC80151
:1019E00063E372E041E050E00E94C80CC8010E942D
:1019F00074275B01C8010E94AA2A8091E501909199
:101A0000E6018230910531F441E0A416B10409F0F9
:101A1000D0C119C08430910531F4C50101970297F6
:101A200008F0C7C110C08630910529F4C50101979F
:101A3000039748F0BEC1089709F0BBC1C5010197E3
:101A4000049708F0B6C180914603853731F5D5017A
:101A500011977D01EE0CFF1CF701E35DFC4F8081C7
:101A60009181009709F4A5C1F701EB5CFC4F9183CC
:101A70008083A35CBC4F1C92EE0CFF1CF701EB5360
:101A8000FE4F808160E00E94232367EC71E0E60E48
:101A9000F71EF701808161E029C0209146032436BA
:101AA00061F5D50111977D01EE0CFF1CF701E35D97
:101AB000FC4F80819181009709F47BC1F701EB5CB9
:101AC000FC4F91838083A35CBC4F2C93EE0CFF1CD6
:101AD000F701EB53FE4F808161E00E94232347EC26
:101AE00051E0E40EF51EF701808160E00E9423239F
:101AF00083E392E00E946C1B6BC1809146038037A8
:101B000009F071C025010894410851085201AA0C3E
:101B1000BB1C05E3C02E03E0D02ECA0CDB1CF60173
:101B2000608171816115710519F380E090E00E9478
:101B3000CF2D20E030E048EC52E40E94852E7B015E
:101B40008C01F501E35DFC4F6081718180E090E0E4
:101B50000E94CF2D9B01AC01C801B7010E94362D18
:101B60003B014C01F60111821082F501EE0FFF1FBF
:101B7000EB53FE4F80810E947723BDE3EB2EB3E051
:101B8000FB2EE40CF51C019771F4F701608170E005
:101B9000882777FD8095982F0E94D12DA40193016D
:101BA0000E94CD2C0DC0F701608170E0882777FD81
:101BB0008095982F0E94D12DA40193010E94CE2CD4
:101BC0000E94A32DF7016083AA0CBB1CF501EB5307
:101BD000FE4F808160E00E94232347EC51E0A40E79
:101BE000B51EF50181CF80914603833609F0E6C02A
:101BF000809147038D3309F0E1C08E01095F1F4FCB
:101C0000C80163E372E044E050E00E94C80CC801E0
:101C10000E9474276B01C8010E94AA2AF5E6CF161C
:101C2000D10408F0C6C0950121503040EDE3AE2E3E
:101C3000E3E0BE2EA20EB31EF5018081482F50E0D6
:101C4000C416D50609F454CF7901EE0CFF1C4C15CF
:101C50005D055CF587010B5C1C4F9601241B350B61
:101C6000F701E35DFC4F80819181AC01249FC001AD
:101C7000259F900D349F900D112464E670E00E9422
:101C8000072FF80171836083EE0CFF1CF701EB5303
:101C9000FE4F808161E00E94232347EC51E0E40E77
:101CA000F51EF701808160E029C097012B5C3C4F55
:101CB0004C195D09F701E35DFC4F80819181BC0106
:101CC000469FC001479F900D569F900D112464E6DA
:101CD00070E00E94072FF90171836083EE0CFF1CF6
:101CE000F701EB53FE4F808160E00E94232347EC15
:101CF00051E0E40EF51EF701808161E00E9423238C
:101D0000F501C082F5CE809147038D3309F05BC0A9
:101D10002DE0C22ED12CCC0EDD1EC60163E372E095
:101D200044E050E00E94C80CC6010E9474277B0169
:101D30008C014B01C6010E94AA2A1E141F04CCF577
:101D40000894A108B108B501660F771F8B01035DE8
:101D50001C4FF801808291826B5C7F4F83E493E09B
:101D6000492D0E94DA164BE150E0A40EB51EAA0CD4
:101D7000BB1C83E493E0B501F80140810E94DA16B0
:101D8000B7CE8E010D5E1F4FC801B5010E94C60976
:101D90004F894093960350E04F5F5F4FC80167E95A
:101DA00073E020E030E00E949927C8010E94AA2A2F
:101DB0000FC083E392E00E94761B0AC08091460325
:101DC0008D3609F4A0CF80914603833791F7D9CFA0
:101DD00068960FB6F894DEBF0FBECDBFCF91DF91EE
:101DE0001F910F91FF90EF90DF90CF90BF90AF9039
:101DF0009F908F907F906F905F904F900895AF92DB
:101E0000BF92CF92DF92EF92FF920F931F93DF93D7
:101E1000CF93CDB7DEB762970FB6F894DEBF0FBE93
:101E2000CDBF8E010F5F1F4FC80163E372E041E039
:101E300050E00E94C80CC8010E9474275B016C012D
:101E40007B01C8010E94AA2A1A141B040CF0CFC0FF
:101E50008091E5019091E6018A159B050CF4C7C0BD
:101E6000809146038F3659F580914703863671F489
:101E7000F5013197EE0FFF1F9F0123513D4FDF0109
:101E8000AB52BE4F8D919C91D9010DC080914703FB
:101E9000F5013197843781F4EE0FFF1FDF01A35165
:101EA000BD4F89EB90E08D939C93EB53FE4F808167
:101EB00061E00E94232396C0EE0FFF1FF6CF8091B2
:101EC0004603863691F4850101501040000F111F22
:101ED000F801EB53FE4F808160E00E942323035101
:101EE0001D4FF801118210827DC080914603833717
:101EF000C1F48E01095F1F4FC801B5010E94910B0B
:101F00004B854093960350E04F5F5F4FC80167E9F0
:101F100073E020E030E00E949927C8010E94AA2ABD
:101F20006AC080914603833609F061C080914703FF
:101F30008F3671F4F501EC51FD4F81E0808322E191
:101F400030E0E20EF31E83E493E0B70141E048C0C5
:101F500080914703863669F4F501EC51FD4F1082FC
:101F600082E190E0E80EF91E83E493E0B70140E0DF
:101F700037C0809147038D36D1F5809148038D336A
:101F8000B1F58E01035F1F4FC80163E372E045E0C6
:101F900050E00E94C80CC8010E9474276B01C80160
:101FA0000E94AA2A9FEFC916D10409F000F5F70193
:101FB000EE0FFF1FED52FE4F8CE390E0DC01CA9E56
:101FC000C001CB9E900DDA9E900D112491838083E9
:101FD000EAE1F0E0EE0EFF1E83E493E0B7014C2D42
:101FE0000E94DA1683E392E00E946C1B04C083E334
:101FF00092E00E94761B62960FB6F894DEBF0FBE89
:10200000CDBFCF91DF911F910F91FF90EF90DF90A7
:10201000CF90BF90AF9008953F924F925F926F9292
:102020007F928F929F92AF92BF92CF92DF92EF9268
:10203000FF920F931F93DF93CF93CDB7DEB7C256B6
:10204000D0400FB6F894DEBF0FBECDBF8DB79EB7A0
:10205000A3969FAF8EAFA3978E010F5F1F4FC8014E
:1020600063E372E041E050E00E94C80CC8010E94A6
:1020700074276B017C012B01C8010E94AA2A1C1441
:102080001D040CF062C28091E5019091E6018C156F
:102090009D050CF45AC280914603833609F024C290
:1020A00080914703843709F03CC28091480385360C
:1020B00009F037C2809149038D3309F032C27BE5C4
:1020C000872E912C8C0E9D1EC40163E372E046E0C6
:1020D00050E00E94C80C67E0E62EF12CEC0EFD1ECD
:1020E000C70168E171E00E946629C401B7010E943E
:1020F000E4279C018E01035F1F4FC801B40140E03B
:1021000050E00E94422AC8010E947427362E330CE8
:10211000C8010E94AA2AC7010E94AA2A8E010D5E48
:102120001F4FC80168E171E00E946629C401B8012F
:102130000E94E4277C01C8010E94AA2A1E141F04E1
:1021400014F0992438C059E1A52EB12CAC0EBD1E57
:10215000C50168E171E00E946629C401B5010E94D1
:10216000E4277C014FE1C42ED12CCC0EDD1EC6012C
:1021700068E171E00E946629C401B6010E94E4276B
:102180008E010B5D1F4F0894E11CF11C9C012E5F1A
:102190003F4FC801B401A7010E94422AC8010E9412
:1021A0007427962EC8010E94AA2AC6010E94AA2A54
:1021B000C5010E94AA2A8E01055D1F4FC8016AE170
:1021C00071E00E9466293BE5632E712C6C0E7D1E2A
:1021D000C301B8010E94E4277C01C8010E94AA2A19
:1021E0001E141F04C4F521E3A22EB12CAC0EBD1E9B
:1021F000C5016AE171E00E946629C301B5010E9430
:10220000E4277C0197E3C92ED12CCC0EDD1EC6013C
:102210006AE171E00E946629C301B6010E94E427C9
:102220008E01035C1F4F0894E11CF11C9C012E5F82
:102230003F4FC801B301A7010E94422AC8010E9472
:102240007427962EC8010E94AA2AC6010E94AA2AB3
:10225000C5010E94AA2A892D8350853010F4339439
:1022600007C098EF990EE1E0E91510F0F2E03F0E9B
:10227000F201E45EFC4F3082B2016E5D7F4F83E479
:1022800093E0432D0E94DA16C2010E948A0783E37D
:1022900092E00E946C1B83E392E00E94831E8E01F9
:1022A0000D5B1F4FC801B2010E94A008F8014481D4
:1022B0004093960350E04F5F5F4FC80167E973E0BA
:1022C00020E030E00E94992783E392E00E947E1E86
:1022D000C8010E94AA2ACE01855A9F4F1FC1809132
:1022E00048038D3309F022C1DDB6CEB683E4E82E73
:1022F000F12CEC0EFD1EC70163E372E045E050E0F7
:102300000E94C80CF701448155814F5F5F4F8DB724
:102310009EB7841B950B0FB6F8949EBF0FBE8DBF62
:102320000DB71EB70F5F1F4FC701B80120E030E0A7
:102330000E949927C8010E94AD01F201EE0FFF1F14
:10234000EE0FFF1FE750FD4F6083718382839383FD
:10235000C2010E948A0783E392E00E94831E8E01DD
:10236000055A1F4FC801B2010E94A008F80144811C
:102370004093960350E04F5F5F4FC80167E973E0F9
:1023800020E030E00E94992783E392E00E947E1EC5
:10239000C8010E94AA2AC7010E94AA2A2D2D3C2DFD
:1023A000C9010FB6F8949EBF0FBE8DBFD2C08091F9
:1023B0004803843709F0BFC0809149038D3309F089
:1023C000BAC08E01075B1F4FC80163E372E046E0AD
:1023D00050E00E94C80CC8010E9474277B01C8010C
:1023E0000E94AA2AFAE0EF16F10408F0AEC0F2014A
:1023F000EC5DFC4FE082B201665D7F4F83E493E0C9
:102400004E2D0E94DA16C2010E948A0783E392E0F1
:102410000E946C1B83E392E00E94831E8E01055A8A
:102420001F4FC801B2010E94A008F80144814093E7
:10243000960350E04F5F5F4FC80167E973E020E00B
:1024400030E00E94992783E392E00E947E1E65C0DF
:10245000809148038D3309F073C08E01015B1F4FDB
:10246000C80163E372E045E050E00E94C80CC80177
:102470000E9474276B01C8010E94AA2AFFEFCF16A1
:10248000D10408F062C0C092410383E493E063E3A7
:1024900070E04C2D22C0809148038D3309F055C067
:1024A0008E010B5A1F4FC80163E372E045E050E014
:1024B0000E94C80CC8010E9474277B01C8010E94B9
:1024C000AA2AC7010197089708F03FC0E092E701E8
:1024D00083E493E064E370E04E2D0E94DA1683E318
:1024E00092E00E946C1B35C080914603833769F5EA
:1024F0008E01055A1F4FC801B6010E94A008F801BD
:1025000044814093960350E04F5F5F4FC80167E9F5
:1025100073E020E030E00E949927C8010E94AA2AB7
:1025200018C080914703853709F4D9CE80914703BD
:10253000843709F43CCF80914703883609F488CF6B
:1025400080914703833709F4A6CF83E392E00E948A
:10255000761BA3968EAD9FADA3970FB6F8949EBF42
:102560000FBE8DBFCE59DF4F0FB6F894DEBF0FBE42
:10257000CDBFCF91DF911F910F91FF90EF90DF9032
:10258000CF90BF90AF909F908F907F906F905F9013
:102590004F903F9008956F927F928F929F92AF924B
:1025A000BF92CF92DF92EF92FF920F931F93DF9330
:1025B000CF93CDB7DEB7AC970FB6F894DEBF0FBEA2
:1025C000CDBFA89589E392E00E94642083E392E066
:1025D0006EE174E00E943F1C882309F401C26E0181
:1025E0000894C11CD11CC6016CEF73E00E94A02AA4
:1025F000C6010E9485278E01095F1F4FC8016CE14B
:1026000071E00E946629C601B8010E947828F82E60
:10261000C8010E94AA2AFF2009F47AC183E392E04C
:102620006EE174E00E94021C8EE194E061E271E0D0
:102630000E940D278EE194E06BE371E00E940D276C
:102640006091E5017091E6018EE194E04AE050E08E
:102650000E94FA26ADEFAA2EA2E0BA2EEE24FF24A5
:10266000CC24DD24F9E16F2E712C6C0E7D1EE3E28B
:102670008E2E912C8C0E9D1E3EC1F50160817181C4
:102680008281938142E022E083010E942B01F701C5
:10269000E35EFC4F6081669570E0882777FD80954A
:1026A000982F0E94D12D42E021E084010E942B014D
:1026B0008EE194E066E471E00E940D270894E11C2D
:1026C000F11C8EE194E0B7014AE050E00E94FA2646
:1026D0008EE194E06AE471E00E940D27F601EB536D
:1026E000FE4F80810E947723BC018EE194E04AE096
:1026F00050E00E94FA268EE194E06AE171E00E94C7
:102700000D27F701EC51FD4F8EE194E060814AE026
:1027100050E00E94A8268EE194E06AE171E00E94F8
:102720000D27F601EB52FE4F808191816CE370E042
:102730000E94072F8EE194E04AE050E00E94972625
:102740008EE194E06AE171E00E940D27F601E35109
:10275000FD4F808191816CE370E00E94072F8EE134
:1027600094E04AE050E00E9497268EE194E06AE10E
:1027700071E00E940D278EE194E0B3010E940D27C5
:102780008EE194E06AE171E00E940D278EE194E011
:10279000B4010E940D278EE194E06AE171E00E948D
:1027A0000D278EE194E06CE471E00E940D27F701A3
:1027B000EC5DFC4F8EE194E060814AE050E00E94C5
:1027C000A8268EE194E06AE171E00E940D278EE177
:1027D00094E0609141034AE050E00E94A8268EE117
:1027E00094E06AE171E00E940D278EE194E060912F
:1027F000E7014AE050E00E94A8268EE194E06AE1F9
:1028000071E00E940D27C7010197029750F4609173
:102810002D0370912E038EE194E04AE050E00E9477
:1028200097268EE194E06AE171E00E940D278EE127
:1028300094E060913D034AE050E00E94A826C70161
:102840000397029750F460912F03709130038EE14B
:1028500094E04AE050E00E9497268EE194E06AE11D
:1028600071E00E940D278EE194E060913D034AE003
:1028700050E00E94A826C7010597029750F4609186
:102880003103709132038EE194E04AE050E00E94FF
:1028900097268EE194E06AE171E00E940D278EE1B7
:1028A00094E060913D034AE050E00E94A826C701F1
:1028B0000797029750F460913303709134038EE1CF
:1028C00094E04AE050E00E9497268EE194E06AE1AD
:1028D00071E00E940D278EE194E060913D034AE093
:1028E00050E00E94A82684E090E0A80EB91EE2E025
:1028F000F0E0CE0EDF1E8091E5019091E601E81632
:10290000F9060CF4BACE8EE194E00E94E8255CC092
:102910008E01035F1F4FC8016FE471E00E946629BA
:10292000C601B8010E947828F82EC8010E94AA2A80
:10293000FF2009F443C08E010D5E1F4FC801B60190
:1029400047E050E00E94C80CC8010E9474276B0148
:102950007C01C8010E94AA2AF1E0CF16D10451F4EB
:10296000D092E601C092E50183E493E062E170E079
:1029700041E01BC082E0C816D10451F4D092E601B8
:10298000C092E50183E493E062E170E042E00DC0B3
:1029900098E0C916D10491F4D092E601C092E50105
:1029A00083E493E062E170E048E00E94DA1683E39A
:1029B00092E06EE174E00E94391C06C083E392E06D
:1029C0006EE174E00E94331C8CEF93E067E571E0E8
:1029D0000E94982910920204CE0101960E94AA2A10
:1029E00083E392E00E94A61E8823E9F080914403CD
:1029F000843719F40E940C1012C0809144038C3665
:102A000019F40E94FF0E0BC080914403823619F422
:102A10000E94D40C04C083E392E00E94761B83E3FF
:102A200092E00E94831EAC960FB6F894DEBF0FBEF4
:102A3000CDBFCF91DF911F910F91FF90EF90DF906D
:102A4000CF90BF90AF909F908F907F906F900895A0
:102A5000EF92FF920F931F93CF93DF93EC01062F1A
:102A6000142F790187E090E00E94B325DC011196D4
:102A70001C921E9214960C93149712961C93129704
:102A800016961C921E921597E02FF0E0E656FF4F27
:102A9000649113966C931397009701F1EE81FF8177
:102AA000309719F49F838E8309C0CF010580F6818A
:102AB000E02D3097D1F7FC01B683A5831196FC92E7
:102AC000EE92809168009C81892B80936800EA8156
:102AD000FB81808113969C91892B8083DF91CF911C
:102AE0001F910F91FF90EF900895582F9B01E82FB1
:102AF000F0E0EA57FF4F84918823E1F061157105FA
:102B0000C9F0833039F0843041F0823041F4ABE1D8
:102B1000B2E005C0A3E2B2E002C0ABE2B2E0ED91E8
:102B2000FC911197808115968C931597CD01652F97
:102B30000E94281508956F927F928F929F92AF9274
:102B4000BF92CF92DF92EF92FF920F931F93CF939A
:102B5000DF932FE088E190E00FB6F894A89580937A
:102B600060000FBE209360008EE194E040E052ECE4
:102B700061E070E00E9441248EE194E068E571E03C
:102B80000E94102735EC832E31E0932E8401C0E0A3
:102B9000D0E008C0F801808161E00E94E422219623
:102BA0000E5F1F4F8091E5019091E601C817D9078C
:102BB0008CF383E392E00E94E91F83E493E062E1F7
:102BC00070E00E94D31690E08F3F910521F0909322
:102BD000E6018093E50125E2A22E23E0B22E05ED69
:102BE00011E09DE1C92E93E0D92E85EEE82E82E01A
:102BF000F82EC0E0D0E0BCE36B2E712C5AC0BE01B1
:102C00006D5E7F4F83E493E00E94D316F7018083CB
:102C10008F3F09F41082F7018081813029F4F4019B
:102C2000808161E00E942323BE01655E7F4F83E4C3
:102C300093E00E94D31690E0F801918380838F3F48
:102C4000910511F411821082F801808191819C011B
:102C5000269DC001279D900D369D900D11249183D6
:102C60008083BE016D5D7F4F83E493E00E94D316A5
:102C7000F60180838F3F09F41082BE01655D7F4FAE
:102C800083E493E00E94D316F50180838F3F09F41B
:102C9000108221960894A11CB11C0E5F1F4F08944E
:102CA000C11CD11C0894E11CF11C22E030E0820E12
:102CB000931E8091E5019091E601C817D9070CF4A5
:102CC0009ECF00E010E0B8016B5C7F4F83E493E09F
:102CD0000E94D316D82FC0E0B8016A5C7F4F83E40E
:102CE00093E00E94D316F801EE7FE35DFC4F9E0156
:102CF000280F311D318320830E5F1F4F08301105CF
:102D000011F783E493E063E370E00E94D3168F3FF2
:102D100011F08093410383E493E064E370E00E9448
:102D2000D3168F3F11F08093E70189E060E00E94A5
:102D3000E42289E068E178E042E050E00E94751505
:102D400089E392E048EE53E060E070E021E63CE089
:102D50000E945B2089E392E044E650E060E070E08E
:102D60002AE23BE00E945B2089E392E040E25FEBD5
:102D700062E070E029E938E00E945B2064E670E0E0
:102D800080E090E00E947C22DF91CF911F910F9113
:102D9000FF90EF90DF90CF90BF90AF909F908F907B
:102DA0007F906F900895F999FECF72BD61BDF89A3A
:102DB00080B50895F999FECF1FBA72BD61BD40BDBF
:102DC0000FB6F894FA9AF99A0FBE08951F920F92CF
:102DD0000FB60F9211248F9388E10FB6F894809369
:102DE0006000109260000FBE8F910F900FBE0F9089
:102DF0001F901895E0918A03F0918B03A081B18117
:102E00002D913C91CF01F90109950895FC01828132
:102E100061E00E94232378940895FC01F894828154
:102E200060E00E94232308950F931F93CF93DF93B5
:102E3000EC01162F042F0E940D1710681EBD0DB453
:102E400007FEFDCF8EB50EBD0DB407FEFDCF8EB5CE
:102E5000CE010E940617DF91CF911F910F91089527
:102E60001F93CF93DF93EC01162F662311F445E5F2
:102E700001C04DE5CE016AE50E941417112311F43B
:102E800040E701C04CE7CE016CE50E941417DF91CA
:102E9000CF911F9108951F93CF93DF93EC01162FCD
:102EA0000E940D171F771EBD0DB407FEFDCF8EB516
:102EB0001EBC0DB407FEFDCF1EB5CE010E94061745
:102EC000812FDF91CF911F910895CF93DF93EC0174
:102ED0006F83662311F44AE101C04FE0CE0163E144
:102EE0000E9414178F81882341F0CE0161E10E9476
:102EF0004B17482F4F71406602C04E814068CE018B
:102F000061E10E941417DF91CF910895CF93DF9371
:102F1000EC01662351F063E241E00E941417CE01F8
:102F200063E20E944B1781FFFACFCE0164E20E9458
:102F30004B17282F30E0309521953F4F3595279539
:102F4000C901DF91CF9108951F93CF93DF93EC01D7
:102F5000162F80918103681709F459C0623089F1F6
:102F6000633030F46623E9F1613009F050C031C0BC
:102F70006330A1F0643009F04AC0CE0161E00E94E4
:102F80004B17482F437E4C60CE0161E00E9414171E
:102F90008F81882381F1CE0161E010C0CE0161E014
:102FA0000E944B17482F437E4061CE0161E00E9492
:102FB00014178F818823F9F0CE0160E00E9430174A
:102FC0001AC0CE0161E00E944B17482F437E486033
:102FD0000EC0CE0161E00E944B17482F437E446033
:102FE00006C0CE0161E00E944B17482F437ECE0100
:102FF00061E00E94141780918103882331F4CE018F
:1030000067E20E944B178823B4F710938103DF9186
:10301000CF911F910895CF93DF93EC0180918103AD
:10302000833089F480918503882369F4CE0160E0C0
:103030000E948617865A9F4F34F4CE0161E00E94A9
:10304000A41781E001C080E0DF91CF910895CF9374
:10305000DF93EC0110928203109283031092840399
:1030600010928503109286031092870310928903B1
:103070001092880368E20E944B1782FF0AC0CE01BB
:103080006DE30E944B17482F4460CE016DE30E9410
:103090001417CE0165E240E40E941417CE0163E0EC
:1030A0000E94A417DF91CF9108959C01F89480911C
:1030B0008103833051F480918503882331F0C90165
:1030C00061E00E94A41781E00895C9010E942718B9
:1030D00080E008951F93162F0E945518882361F0F1
:1030E00080918303811711F0112331F480918703BC
:1030F000882319F081E001C080E01F9108950F93AB
:103100001F93CF93DF93EC018B0161E00E94A41722
:1031100001151105E1F0CE010E940D178EEB8EBD59
:103120000DB407FEFDCF8EB520E030E0F801E20FD0
:10313000F31F80818EBD0DB407FEFDCF8EB52F5FCE
:103140003F4F2031310591F7CE010E940617CE0185
:103150006DE30E944B17482F4E7F80E0012B09F052
:1031600081E0482BCE016DE30E941417DF91CF91CF
:103170001F910F910895CF93DF93EC01809181030C
:10318000833009F067C0CE0168E20E944B1782FFCE
:1031900061C0CE0161E00E94A417CE010E940D170C
:1031A0001EBC0DB407FEFDCF8EB51EBC0DB407FED0
:1031B000FDCF8EB58093850380918503833410F015
:1031C00082E402C080918503809385031EBC0DB408
:1031D00007FEFDCF8EB5809384038D81882309F08F
:1031E00042C0909184038C819817E9F18091840307
:1031F0008823C9F110928503CE010E9406173AC0B8
:103200000DB407FEFDCF8EB5809383031EBC0DB4B5
:1032100007FEFDCF8EB5982F90789093870380742A
:103220008093860390E00BC01EBC0DB407FEFDCF5B
:103230008EB5E92FF0E0EC5BFC4F80839F5F8091BF
:103240008203981788F3CE010E940617CE0163E02F
:103250000E94A417CE0160E00E9486179093890314
:103260008093880307C080918503835080938203F5
:103270001EBCC6CFDF91CF910895CF92DF92EF921F
:10328000FF920F931F93CF93DF93EC01F62ED42E72
:10329000C52E122F61E00E94A417CE0167E20E94A2
:1032A0004B1787FFFACFCE0165E240E00E9414176A
:1032B0001E3308F01DE3CE010E940D1780E88EBD7D
:1032C0000DB407FEFDCF8EB51D5F1EBD13500DB4AE
:1032D00007FEFDCF8EB5FEBC0DB407FEFDCF8EB54B
:1032E0008C818EBD0DB407FEFDCF8EB5EE2031F082
:1032F00080E88EBD0DB407FEFDCF07C0002361F04E
:1033000080E48EBD0DB407FEFDCF8EB58D2D9C2DB6
:103310009C01F90190E00DC01EBC0DB407FEFDCF6D
:10332000F4CF80818EBD0DB407FEFDCF8EB59F5FBB
:1033300031969117B0F3CE010E940617CE0164E0DA
:103340000E94A4178B810E947723892BD9F3CE0189
:1033500061E00E94A417DF91CF911F910F91FF9020
:10336000EF90DF90CF900895EF92FF920F931F930D
:10337000CF93DF93EC018B01F42EE090830303C025
:10338000CE010E945518CE010E940B188823C1F36C
:10339000CE016E2DA8012F2D00E0EE24E3940E94B3
:1033A0003D19DF91CF911F910F91FF90EF900895FC
:1033B000DF92EF92FF920F931F93CF93DF93EC0175
:1033C000162F7A01D22E6DE30E944B17482F4460CE
:1033D000CE016DE30E94141703C0CE010E94551860
:1033E000CE010E940B188823C1F3CE01612FA701E3
:1033F0002D2DEE240E943D19DF91CF911F910F9149
:10340000FF90EF90DF9008954F925F926F927F92BE
:103410008F929F92AF92BF92CF92DF92EF92FF92E4
:103420000F931F93CF93DF93EC01862E3A01422E28
:10343000502E9924AE2CBB24CC24DD24CE01682D43
:10344000A301242D01E00E94D8190E9433227B01A0
:103450008C0108C0CE01682D0E946A18882311F0E3
:1034600081E00FC00E9433226E197F09800B910BFF
:103470006A157B058C059D0568F393945914F0F645
:1034800080E0DF91CF911F910F91FF90EF90DF903F
:10349000CF90BF90AF909F908F907F906F905F90F4
:1034A0004F900895CF92DF92EF92FF920F931F9368
:1034B000DF93CF93CDB7DEB7AA970FB6F894DEBFF0
:1034C0000FBECDBF7C01042F522F6F3119F430ECA9
:1034D0004EE40EC06B3211F44CE6C6C0663509F0FE
:1034E000BFC049ED04C0663511F030EC01C030E0DA
:1034F000FE0131968AE2DF011D928A95E9F781E0AB
:10350000898394E09A8382E08B8323E02D838E83EA
:103510009F8390E4988785E089872A8786E08B8758
:1035200083E38C8787E08D8788E08F8789E0898BAC
:1035300089E18B8B22E42C8B85E28D8B9E8B89E23B
:103540008F8B8CED888F8EE2898F88E88A8F8FE24F
:103550008B8F8DE28C8F90E39D8F87E38F8F80E937
:1035600088A388E389A32AA38CE38BA38FE88CA389
:103570008DE38DA382E18EA38FE68FA398A78FEFB3
:1035800089A74E87388B5E8FF701828161E00E94A8
:10359000E42280E00E943F1B81E00E94361B84E011
:1035A0000E94441B0E94551BC7016FE24AEA0E9419
:1035B0001417C7016FE20E944B178A3AA9F7C70197
:1035C0006FE245E50E941417C7016FE20E944B1796
:1035D0008535A9F710E06E010894C11CD11C05C007
:1035E000C70141810E9414171F5FE12FF0E0EE0F29
:1035F000FF1FEC0DFD1D60816F3F91F7C70160E07B
:1036000070E00E947F18C701D70117966C910E9445
:103610006517C70161E00E94A417C70167E20E9415
:103620004B1787FFFACF80E06AEF76E143E050E086
:103630000E946E21F0928B03E0928A03F7010483CB
:1036400081E0AA960FB6F894DEBF0FBECDBFCF9132
:10365000DF911F910F91FF90EF90DF90CF90089531
:1036600044EE6B3209F03FCF30E442CF882319F4A7
:103670008CB5806202C08CB58F7D8CBD08959CB5E1
:10368000937F982B9CBD08952CB5382F33702C7FD9
:10369000322B3CBD2DB590E09595879595958795F6
:1036A00081702E7F822B8DBD08958AE061E00E949B
:1036B00023238AE061E00E94E4228CB580618CBD06
:1036C0008CB580648CBD8DE061E00E94E4228BE0CB
:1036D00061E00E94E42208958FE4809397038BE4D5
:1036E0008093980382E080939603089585E4809305
:1036F000970392E590939803909399038FE48093B6
:103700009A0390939B0385E080939603089560E667
:1037100071E00E94662908958130910531F56F5F4F
:103720007F4F81F585E092E090938F0380938E0325
:103730008AE08093900382E08093910381E08093FC
:103740008103109293038FE1809394031092950369
:103750008CEF93E060E671E00E94662984E094E0DB
:1037600060E671E00E9466290895892B59F46F5F25
:103770007F4F41F484E094E00E94AA2A8CEF93E00A
:103780000E94AA2A089580E090E06FEF7FEF0E94E8
:103790008C1B089581E090E06FEF7FEF0E948C1BFF
:1037A00008950E94AA2A089588E10FB6F89480939C
:1037B0006000109260000FBE8CEF93E060E671E055
:1037C0000E949829109202042EE088E190E00FB642
:1037D000F894A895809360000FBE20936000FFCFFF
:1037E000CF93DF93C0E0D0E083E493E0BE014FEFDE
:1037F0000E94DA16219684E0C030D807A9F7DF913D
:10380000CF9108950F931F93CF93DF938B01CB013B
:1038100061E671E00E940D27C80160918D034AE0C6
:1038200050E00E94A826C8016DE671E00E940D27B5
:10383000C80160918C034AE050E00E94A826C801AC
:1038400067E771E00E940D27C8EED1E0C8016991D9
:103850000E94E02581E0C83FD807C1F7DF91CF91F2
:103860001F910F910895CB0162E871E00E9410272B
:103870000895CB0168E871E00E94102708958F92A7
:103880009F92AF92BF92CF92DF92EF92FF920F93EF
:103890001F93DF93CF93CDB7DEB7CE54D0400FB692
:1038A000F894DEBF0FBECDBF4C015B0180910204D6
:1038B000882311F410E0A1C16E010894C11CD11C31
:1038C000C6016CEF73E00E94A02AC6010E94852702
:1038D0008CEF93E060E671E00E94E927882371F5A0
:1038E0008E01095F1F4FC8016BE871E00E946629D5
:1038F000C601B8010E947828F82EC8010E94AA2AA1
:10390000FF20E1F18E01035F1F4F209100043091F1
:103910000104C8016CEF73E045E050E00E94422AC8
:10392000C8010E947427F62EC8010E94AA2AFF200F
:1039300071F4C50162E871E00E9410278CEF93E0FA
:1039400060E671E00E9498291092020451C183E45C
:1039500093E061E070E04F2D0E94DA16C50168E83F
:1039600071E00E9410278CEF93E060E671E00E9406
:10397000982910920204F0928C03D4C08E010D5E3F
:103980001F4FC80161E971E00E946629C601B801B4
:103990000E947828F82EC8010E94AA2AFF2089F1E7
:1039A0008E01075E1F4F2091000430910104C80171
:1039B0006CEF73E045E050E00E94422AC8010E948B
:1039C0007427F62EC8010E94AA2A8F2D81508E3F9F
:1039D00008F0AFCF83E493E060E070E04F2D0E94E9
:1039E000DA16C50168E871E00E9410278CEF93E0B9
:1039F00060E671E00E94982910920204F0928D0313
:103A000091C08E01015E1F4FC80167E971E00E94FD
:103A10006629C601B8010E947828F82EC8010E94C4
:103A2000AA2AFF2009F071C08E010B5D1F4FC8014B
:103A30006EE971E00E946629C601B8010E947828EB
:103A4000F82EC8010E94AA2AFF20B1F08E01055D60
:103A50001F4F2091000430910104C8016CEF73E006
:103A600049E050E00E94422AC8010E9474277093E6
:103A7000100460930F042DC08E010F5C1F4FC8010E
:103A800068EA71E00E946629C601B8010E947828A0
:103A9000F82EC8010E94AA2AFF2011F1E0900F041D
:103AA000F09010048E01095C1F4F209100043091AA
:103AB0000104C8016CEF73E04AE050E00E94422A22
:103AC000C8010E947427462F83E493E0B7010E9447
:103AD000DA16C8010E94AA2AC50168E871E02CCF55
:103AE0008E01035C1F4FC80163EB71E00E946629E1
:103AF000C601B8010E947828F82EC8010E94AA2A9F
:103B0000FF20A1F0C4010E94F01BC50168E871E02C
:103B10000E9410278CEF93E060E671E00E949829E4
:103B200010920204C4010E94D41B62C08E010D5B7E
:103B30001F4FC8016AEB71E00E946629C601B801F7
:103B40000E947828F82EC8010E94AA2AFF2011F4AA
:103B500011E04FC08E01075B1F4F20910004309190
:103B60000104C8016CEF73E045E050E00E94422A76
:103B7000F80184819581409749F505E010E08CEFCC
:103B800093E0B8010E946327482FF801ED51FE4FE2
:103B900080830350104083E493E0B8010E94DA165A
:103BA0000C5F1F4F0531110551F7C50168E871E041
:103BB0000E9410278CEF93E060E671E00E94982944
:103BC00010920204C4010E94D41B0DC0C50162E81A
:103BD00071E00E9410278CEF93E060E671E00E9494
:103BE000982910920204CE01875B9F4F0E94AA2A57
:103BF00010E0CE0101960E94AA2A812FC25BDF4FFE
:103C00000FB6F894DEBF0FBECDBFCF91DF911F91ED
:103C10000F91FF90EF90DF90CF90BF90AF909F906B
:103C20008F9008951F93CF93DF93EB0111E022C093
:103C3000E881F9810680F781E02DCE010995682F92
:103C4000803259F480910304803339F4F894E09180
:103C5000F901F091FA01099516C0609303046A30E6
:103C600011F06D3019F41093020404C08CEF93E04E
:103C70000E94EE28E881F9810480F581E02DCE01D3
:103C80000995892BA9F6DF91CF911F910895EF92A5
:103C90000F931F93CF93DF93162FC0E0D0E02091B6
:103CA0009603222321F18EE893E0612F47E953E048
:103CB00002E03FE0E32E0E94041A882319F01092DC
:103CC000960315C02196C930D10521F410929603B0
:103CD00080E00EC063E270E080E090E024E630E037
:103CE00040E050E00E9445270E947C22D8CF81E02E
:103CF000DF91CF911F910F91EF9008956FEF70E0DA
:103D00000E94471E0895CF93DF93EC0180918603B4
:103D1000882339F08EE893E060E671E040E00E948D
:103D2000B41980919603882329F0CE010E947E1E4B
:103D3000109244038091FB03882329F01092FB0327
:103D4000CE010E94D41BDF91CF910895EF92FF9294
:103D50000F931F93DF93CF9300D000D000D0CDB747
:103D6000DEB7F82EE92E0E94332220910B04309109
:103D70000C0440910D0450910E04621B730B840BD4
:103D8000950B685E73408040904090F08F2D9E2D83
:103D900060E671E00E94982910920A040E94332282
:103DA00060930B0470930C0480930D0490930E04A5
:103DB0008EE893E00E945518882311F400E07CC03F
:103DC0008E010F5F1F4FC80164E473E00E946629F3
:103DD000C8016F2D7E2D0E943F28882339F09091D5
:103DE000830380910A04891709F474C08F2D9E2DD6
:103DF000BE016F5F7F4F0E94892A80918303809369
:103E00000A040E94332260930B0470930C04809385
:103E10000D0490930E0480914403803709F05DC037
:103E2000809145038E3609F058C08FE48093970344
:103E30008BE48093980382E08093960332C0809154
:103E400045038E3609F04EC045C080914503853646
:103E500009F04DC080914603833709F048C08FE4D4
:103E6000809397038BE48093980382E0809396037A
:103E700015C0809145038536D1F48091460386367E
:103E8000B1F48FE4809397038BE48093980382E0EE
:103E9000809396038F2D9E2D0E94F01B81E08093CE
:103EA000FB038F2D9E2D0E94831E00E001C001E0C8
:103EB000CE0101960E94AA2A802F26960FB6F8946A
:103EC000DEBF0FBECDBFCF91DF911F910F91FF904D
:103ED000EF90089510929603E4CF809144038E36BC
:103EE00009F4ADCF80914403823709F4AECF8091BD
:103EF00044038436E1F6BDCF0F931F93CF93DF9336
:103F0000162F042F88E10FB6F8948093600010926A
:103F100060000FBE60E971E080E090E00E947C22CA
:103F200028E288E190E00FB6F894A89580936000AD
:103F30000FBE2093600083E493E060E070E00E9495
:103F4000D31680938D038F3F11F410938D030023BC
:103F500011F010938D0383E493E061E070E00E9420
:103F6000D31680938C038F3F19F481E080938C03E8
:103F700083E493E062E070E00E94D3168F3F79F013
:103F8000C2E0D0E083E493E0BE010E94D316FE01BC
:103F9000EA51FE4F80832196C231D10599F78EE810
:103FA00093E06BE240918D0320918C030E94521AA2
:103FB0008EE893E068EE71E00E947F188CEF93E04A
:103FC00064E670E00E94A528DF91CF911F910F91C8
:103FD000089561E070E040E00E947C1F0895EF9238
:103FE000FF920F931F93CF93DF937C018AEA90E0B7
:103FF000E80EF91EF70180819181E6E5FFEFEE0EF4
:10400000FF1E0A970CF048C0F701B896C0E0D0E058
:1040100080819181892B09F449C021963296CA305A
:10402000D105B1F739C0FE013F96EE0FFF1FEE0F2D
:10403000FF1FEE0DFF1D4083518362837383FE01DA
:104040007496EE0FFF1FEE0DFF1D31832083FE01DE
:10405000F296EE0FFF1FEE0DFF1D11830083F70197
:10406000EC0FFD1FE457FF4F81E080830E94332255
:10407000FE01EE0FFF1FEE0FFF1FEE0DFF1D608311
:10408000718382839383F701E655FF4F808191818D
:1040900001969183808302C0CFEFDFEFCE01DF91E5
:1040A000CF911F910F91FF90EF9008952115310549
:1040B00009F0B9CFF1CF0F931F9300E010E00E94F9
:1040C000EF1F1F910F9108952F923F924F925F9291
:1040D0006F927F928F929F92AF92BF92CF92DF9218
:1040E000EF92FF920F931F93CF93DF936C010E9487
:1040F00033221B012C01F601EA56FF4FB6013CE8C2
:10410000632E712C6C0C7D1CE601CC59DF4F4301F2
:10411000AA24BB2411821082EE56F0408081918146
:10412000E259FF4F892B09F440C0DB01ED90FD906F
:104130000D911C911397DC962D913D914D915C91C1
:10414000DF97D201C1018E199F09A00BB10B821715
:104150009307A407B50748F12E0D3F1D401F511FBF
:10416000DB012D933D934D935C931397D4018C9178
:104170008823D9F0288139812115310519F441E0CE
:1041800050E011C08C899D898217930774F4A1E0D7
:10419000B0E0B183A08301969D8B8C8B821793072F
:1041A00024F042E050E0518340830894A11CB11CEC
:1041B00032966C5F7F4F0894811C911C22965AE0C6
:1041C000A516B10409F0A6CFE601A8962CE3E22ECD
:1041D000F12CEC0CFD1C860108581F4F8AEA90E078
:1041E000C80ED91E5701D8015E968D919C915F979C
:1041F0008130910519F0029719F504C0E881F98121
:1042000009951EC0E881F9810995F6012081318167
:1042100021153105A9F088819981892B89F01982AE
:104220001882D3011C92F70110821182128213822C
:10423000D8011D921C9221503040F6013183208319
:1042400022960894611C711C44E050E0E40EF51EB7
:104250000E5F1F4FCA15DB0531F6DF91CF911F911D
:104260000F91FF90EF90DF90CF90BF90AF909F9015
:104270008F907F906F905F904F903F902F90089518
:104280000F931F93CF93DF93EC010E943322AE0173
:1042900044575F4FFE01B8968E0120E030E0DA010E
:1042A0001D92AD0111821082D8016D937D938D9383
:1042B0009D938D01E05BFF4F118210822F5F3F4F76
:1042C000EE54F0402A30310551F7C655DF4F1982C0
:1042D0001882DF91CF911F910F910895823000F5E0
:1042E000E82FF0E0EE0FFF1FEF5EFB4F718360835E
:1042F000882319F08130A1F408C0809169008C7F77
:10430000842B80936900E89A089580916900440F96
:10431000551F440F551F837F842B80936900E99AB2
:1043200008951F920F920FB60F9211242F933F936F
:104330004F935F936F937F938F939F93AF93BF93AD
:10434000EF93FF938091110490911204892B29F02F
:10435000E0911104F09112040995FF91EF91BF9142
:10436000AF919F918F917F916F915F914F913F910D
:104370002F910F900FBE0F901F9018951F920F92C4
:104380000FB60F9211242F933F934F935F936F9328
:104390007F938F939F93AF93BF93EF93FF938091FE
:1043A000130490911404892B29F0E0911304F091E7
:1043B00014040995FF91EF91BF91AF919F918F9157
:1043C0007F916F915F914F913F912F910F900FBE11
:1043D0000F901F9018951F920F920FB60F921124F5
:1043E0002F933F938F939F93AF93BF938091190423
:1043F00090911A04A0911B04B0911C0430911D04EB
:104400000196A11DB11D232F2D5F2D3720F02D57B3
:104410000196A11DB11D20931D0480931904909352
:104420001A04A0931B04B0931C048091150490916E
:104430001604A0911704B09118040196A11DB11D96
:104440008093150490931604A0931704B093180456
:10445000BF91AF919F918F913F912F910F900FBE80
:104460000F901F9018958FB7F894209119043091F0
:104470001A0440911B0450911C048FBFB901CA015A
:104480000895789484B5826084BD84B5816084BDCC
:1044900085B5826085BD85B5816085BDEEE6F0E0BD
:1044A000808181608083E1E8F0E010828081826019
:1044B0008083808181608083E0E8F0E0808181609A
:1044C0008083E1EBF0E0808184608083E0EBF0E0CA
:1044D000808181608083EAE7F0E08081846080836E
:1044E0008081826080838081816080838081806818
:1044F00080831092C1000895EF92FF920F931F9353
:10450000CF93DF937B018C013FB7F8948091150422
:1045100090911604A0911704B091180426B5A89B99
:1045200005C02F3F19F00196A11DB11D3FBFBA2F45
:10453000A92F982F8827820F911DA11DB11D52E030
:10454000880F991FAA1FBB1F5A95D1F7EC0130C0E5
:104550000E94CC2C3FB7F8948091150490911604DA
:10456000A0911704B091180426B5A89B05C02F3F51
:1045700019F00196A11DB11D3FBFBA2FA92F982F89
:104580008827820F911DA11DB11D32E0880F991F50
:10459000AA1FBB1F3A95D1F78C1B9D0B885E9340D9
:1045A000B8F20894E108F10801091109C851DC4F7B
:1045B000E114F1040105110559F6DF91CF911F9126
:1045C0000F91FF90EF900895CF93DF93482F50E025
:1045D000CA0186569F4FFC0134914A575F4FFA013A
:1045E0008491882369F190E0880F991FFC01E859B4
:1045F000FF4FA591B491FC01EE58FF4FC591D491A6
:10460000662351F42FB7F8948C91932F90958923BA
:104610008C93888189230BC0623061F42FB7F894A2
:104620008C91932F909589238C938881832B8883F9
:104630002FBF06C09FB7F8948C91832B8C939FBF9C
:10464000DF91CF910895482F50E0CA0182559F4FC6
:10465000FC012491CA0186569F4FFC0194914A5750
:104660005F4FFA013491332309F440C0222351F102
:10467000233071F0243028F42130A1F0223011F5DC
:1046800014C02630B1F02730C1F02430D9F404C072
:10469000809180008F7703C0809180008F7D809310
:1046A000800010C084B58F7702C084B58F7D84BD33
:1046B00009C08091B0008F7703C08091B0008F7DDA
:1046C0008093B000E32FF0E0EE0FFF1FEE58FF4F96
:1046D000A591B4912FB7F894662321F48C9190950D
:1046E000892302C08C91892B8C932FBF0895682F4A
:1046F00070E0CB0182559F4FFC012491CB0186567F
:104700009F4FFC0144916A577F4FFB01949199237D
:1047100019F420E030E03CC0222351F1233071F045
:10472000243028F42130A1F0223011F514C02630B5
:10473000B1F02730C1F02430D9F404C0809180005A
:104740008F7703C0809180008F7D8093800010C0A0
:1047500084B58F7702C084B58F7D84BD09C08091F8
:10476000B0008F7703C08091B0008F7D8093B00040
:10477000892F90E0880F991F84589F4FFC01A591C5
:10478000B4918C9120E030E0842311F021E030E0FE
:10479000C90108951F920F920FB60F9211242F9303
:1047A0003F934F938F939F93EF93FF938091C0001C
:1047B00082FD19C04091C60080913C04282F30E052
:1047C0002F5F3F4F2F73307080913D0490E028178A
:1047D000390759F0E0913C04F0E0E25EFB4F42A360
:1047E00020933C0402C08091C600FF91EF919F91FD
:1047F0008F914F913F912F910F900FBE0F901F906F
:10480000189580913C0420913D0490E0805C9F4F7E
:10481000821B91098F739070892B11F00E94C10C3B
:1048200008951F920F920FB60F9211242F938F931A
:104830009F93EF93FF9390913E0480913F049817CC
:1048400031F48091C1008F7D8093C10010C0E09150
:104850003F04F0E0E058FB4F208180913F0490E05E
:1048600001968F73907080933F042093C600FF9150
:10487000EF919F918F912F910F900FBE0F901F90EE
:104880001895AF92BF92DF92EF92FF920F931F9312
:10489000CF93DF93EC017A018B01DD24403081EE70
:1048A000580780E0680780E0780711F0DD24D39492
:1048B00091E0A92EB12CE889F989DD2069F0C501C4
:1048C0000C8C02C0880F991F0A94E2F7808360E085
:1048D00079E08DE390E005C0108260E874E88EE135
:1048E00090E0A80197010E941B2F215030404040CA
:1048F0005040569547953795279580E120303807E9
:1049000020F0DD2011F0DD24D6CFEC85FD8530834D
:10491000EE85FF8520831D8EEA89FB89408121E099
:1049200030E0C901088C02C0880F991F0A94E2F791
:10493000482B4083EA89FB894081C901098C02C068
:10494000880F991F0A94E2F7482B4083EA89FB8974
:104950004081C9010A8C02C0880F991F0A94E2F7AE
:10496000482B4083EA89FB8980810B8C02C0220F8F
:10497000331F0A94E2F7209528232083DF91CF91FB
:104980001F910F91FF90EF90DF90BF90AF9008952F
:10499000FC01268D878D30E0205C3F4F281B3109BC
:1049A0002F733070C9010895FC01968D878D98177B
:1049B00019F42FEF3FEF06C0878DE80FF11D82A19C
:1049C000282F30E0C9010895DC015E969C915E9726
:1049D0005F968C915F97981719F42FEF3FEF10C0F7
:1049E0005F968C915F97FD01E80FF11D92A15F9694
:1049F0008C915F978F5F8F735F968C93292F30E038
:104A0000C9010895DC015D968C915D97882339F08A
:104A10005096ED91FC915197808186FFF9CF5D967C
:104A20001C920895DC0190968C919097282F30E08D
:104A30002F5F3F4F2F73307091968C91919790E03C
:104A400028173907C9F390968C919097FD01E80FCC
:104A5000F11DEE59FF4F608390962C9390975296DC
:104A6000ED91FC915397208181E090E05B960C9052
:104A70005B9702C0880F991F0A94E2F7282B2083C6
:104A800081E05D968C935D975096ED91FC915197E6
:104A900080818064808381E090E0089510922104F9
:104AA0001092200488EE93E0A0E0B0E0809322040E
:104AB00090932304A0932404B09325048BE092E008
:104AC00090931F0480931E0410923F0480913F0432
:104AD00080933E0410923D0480913D0480933C04F9
:104AE00085EC90E090932B0480932A0484EC90E072
:104AF00090932D0480932C0480EC90E090932F04ED
:104B000080932E0481EC90E09093310480933004E4
:104B100082EC90E0909333048093320486EC90E032
:104B2000909335048093340484E08093360483E0CA
:104B30008093370487E08093380485E080933904BC
:104B400081E080933A040895CF93DF930E9441223D
:104B50000E949B15C1E0D4E20E94CB122097E1F3A2
:104B60000E940124F9CF0E94B62A0895CF92DF92C5
:104B7000EF92FF920F931F93CF93DF937C016B0112
:104B80008A01C0E0D0E00FC0D6016D916D01D70160
:104B9000ED91FC910190F081E02DC7010995C80FBE
:104BA000D91F015010400115110571F7CE01DF9199
:104BB000CF911F910F91FF90EF90DF90CF900895CC
:104BC000DC01ED91FC910190F081E02D09950895B3
:104BD000EF92FF920F931F938C01DC01ED91FC91FA
:104BE0000190F081E02D6DE009957C01D801ED91F7
:104BF000FC910190F081E02DC8016AE009959C01CB
:104C00002E0D3F1DC9011F910F91FF90EF90089548
:104C1000CF93DF93EC016115710519F420E030E0CA
:104C20000FC0DB010D900020E9F71197A61BB70B11
:104C3000E881F9810280F381E02DAD0109959C01A5
:104C4000C901DF91CF9108954F925F927F928F9229
:104C50009F92AF92BF92CF92DF92EF92FF920F930B
:104C60001F93DF93CF93CDB7DEB7A1970FB6F8941C
:104C7000DEBF0FBECDBF2C01742ECB01223008F455
:104C80002AE019A231E2C32ED12CCC0EDD1E822ED9
:104C90009924AA24BB24672D752FA50194010E9495
:104CA0001B2F79018A01C801B701A50194010E9457
:104CB000E82E472D461B0894C108D1084A3014F449
:104CC000405D01C0495CF6014083E114F104010537
:104CD000110521F07E2C5F2DC801DDCFC201B60188
:104CE0000E940826A1960FB6F894DEBF0FBECDBF76
:104CF000CF91DF911F910F91FF90EF90DF90CF90B8
:104D0000BF90AF909F908F907F905F904F9008954D
:104D1000DC012115310541F4ED91FC910190F08108
:104D2000E02D642F099508950E9424260895EF929E
:104D3000FF920F931F939A017B0100E010E0B801EE
:104D4000A7010E9488261F910F91FF90EF90089570
:104D5000EF92FF920F931F939A01E62EFF2400E03B
:104D600010E0B801A7010E9488261F910F91FF90C3
:104D7000EF900895CF92DF92EF92FF920F931F93DF
:104D8000CF93DF93EC016A017B012115310541F4DA
:104D9000E881F9810190F081E02D642F09951FC011
:104DA0002A303105D1F477FF17C0E881F9810190ED
:104DB000F081E02D6DE209958C0144275527BA0159
:104DC0004C195D096E097F09CE012AE00E94242654
:104DD0009801280F391F04C02AE00E9424269C0154
:104DE000C901DF91CF911F910F91FF90EF90DF905C
:104DF000CF900895EF92FF920F931F937B019A013A
:104E00000027F7FC0095102FB801A7010E94BA26D1
:104E10001F910F91FF90EF9008950E94082608952A
:104E2000EF92FF920F931F937C010E9408268C0142
:104E3000C7010E94E825080F191FC8011F910F9193
:104E4000FF90EF900895EF92FF920F931F937B01D5
:104E50008C01611571058105910529F420E030E090
:104E600040E050E00BC00E949F01A80197010E9402
:104E70003D2FAC01CB01DA019C01AD01B901CA01A2
:104E80001F910F91FF90EF900895EF92FF920F9373
:104E90001F937B018C01621773078407950764F4E5
:104EA000261B370B480B590BCA01B9010E94232757
:104EB000E60EF71E081F191FB701C8011F910F91B9
:104EC000FF90EF900895FC01848195816817790720
:104ED00048F40190F081E02D309721F0E60FF71FA4
:104EE0008081089580E00895FC0180819181009780
:104EF00029F420E030E040E050E004C00E94B1011D
:104F00009B01AC01B901CA010895CF93DF93FC0165
:104F1000C081D181209739F409C0992787FD9095E8
:104F20000E94662F899388818823B9F7DF91CF91FA
:104F300008950F931F93CF93DF93FC018B014115CD
:104F40005105F9F061157105E1F08481958128170B
:104F5000390718F0FB01108214C041505040EC0199
:104F6000C21BD30B4C175D0708F4EA016081718105
:104F7000620F731FC801AE010E94FF01C00FD11F55
:104F80001882DF91CF911F910F910895CF93DF93F6
:104F9000FC01DB01848195814817590760F4C081C9
:104FA000D1816D917C91CE01840F951F0E940E02DC
:104FB0009C01009719F42FEF3FEF02C02C1B3D0B13
:104FC000C901DF91CF91089540E050E00E94C627CB
:104FD0000895DC01FB0114968D919C911597892B06
:104FE00031F461157105A9F090E0808108C00D9041
:104FF000BC91A02D6115710529F490E08C91882356
:1050000049F407C0CD010E94E1019C0190E0232BEF
:1050100009F491E0892F0895CF93DF939C01FB0160
:10502000EC01A881B981109729F060817181611527
:105030007105D1F4C081D181209759F08481958187
:10504000892B39F0888190E022273327281B390BE0
:1050500012C0109771F0F90184819581892B49F074
:105060008C91282F30E007C0CD010E94E1019C0106
:1050700002C020E030E0C901DF91CF910895FC012A
:10508000DB012481358114968D919C911597281709
:10509000390711F020E007C0CF010E940C2820E062
:1050A000892B09F421E0822F0895FC01DB0114967D
:1050B0002D913C91159784819581821B930B8417C8
:1050C0009507A0F080819181009781F06D917C918E
:1050D0006115710559F0840F951FA9010E94F10116
:1050E0009C0180E0232B19F481E0089580E008956D
:1050F000FC01DB012481358114968D919C911597DB
:105100002817390710F480E00895CF0140E050E0FF
:105110000E94552808950F931F93CF93DF93EC01BE
:105120008B016F5F7F4F888199810E94EB2B0097E5
:1051300011F480E005C0998388831B830A8381E092
:10514000DF91CF911F910F910895CF93DF93EC01E1
:1051500088819981892B29F08A819B8186179707FD
:1051600060F4CE010E948B28882341F08C819D81C0
:10517000892B19F4E881F981108281E0DF91CF91C8
:105180000895EF92FF920F931F93CF93DF93EC015B
:105190007B016C817D81E114F104C1F04115510561
:1051A00099F08A01060F171FB8010E94A5288823CD
:1051B00069F0888199812C813D81820F931FB7010D
:1051C0000E94EA011D830C8381E001C080E0DF9131
:1051D000CF911F910F91FF90EF900895DF93CF93A0
:1051E00000D0CDB7DEB769831A82BE016F5F7F4FF3
:1051F00041E050E00E94C1280F900F90CF91DF91C5
:105200000895CF93DF93EC0188819981009711F085
:105210000E94532B198218821D821C821B821A82C3
:10522000DF91CF9108950F931F93182F092F6115C8
:10523000710561F0DB010D900020E9F71197A61BC5
:10524000B70BAD010E94C128882321F4812F902F34
:105250000E940129812F902F1F910F9108950F9384
:105260001F93182F092FFB016081718144815581A3
:105270000E94C128882321F4812F902F0E940129A8
:10528000812F902F1F910F910895EF92FF920F930E
:105290001F93CF93DF93EC017B018A01BA010E9437
:1052A000A528882321F4CE010E94012907C01D836F
:1052B0000C8388819981B7010E94EA01CE01DF91B8
:1052C000CF911F910F91FF90EF900895CF93DF93AF
:1052D000EC01198218821B821A821D821C826115C0
:1052E000710551F0DB010D900020E9F71197A61B25
:1052F000B70BAD010E944529DF91CF910895CF935F
:10530000DF93EC01198218821B821A821D821C8293
:105310006115710551F0DB010D900020E9F711973F
:10532000A61BB70BAD010E944529DF91CF910895CF
:105330000F931F93182F092F6115710559F0DB0189
:105340000D900020E9F71197A61BB70BAD010E9445
:10535000452902C00E940129812F902F1F910F9192
:105360000895EF92FF920F931F93DF93CF93CDB7E2
:10537000DEB761970FB6F894DEBF0FBECDBF8C01CC
:10538000CB01F801118210821382128215821482DD
:105390007E010894E11CF11CB70150E00E945E02FE
:1053A000C801B7010E94982961960FB6F894DEBF34
:1053B0000FBECDBFCF91DF911F910F91FF90EF9066
:1053C0000895EF92FF920F931F93DF93CF93CDB782
:1053D000DEB762970FB6F894DEBF0FBECDBF8C016B
:1053E000CB01F8011182108213821282158214827D
:1053F0007E010894E11CF11CB70150E00E942802D4
:10540000C801B7010E94982962960FB6F894DEBFD2
:105410000FBECDBFCF91DF911F910F91FF90EF9005
:105420000895EF92FF920F931F93DF93CF93CDB721
:10543000DEB729970FB6F894DEBF0FBECDBF8C0143
:10544000862FF80111821082138212821582148233
:1054500090E07E010894E11CF11CB70150E00E942D
:105460005E02C801B7010E94982929960FB6F894E8
:10547000DEBF0FBECDBFCF91DF911F910F91FF9087
:10548000EF900895BF92CF92DF92EF92FF920F9329
:105490001F93CF93DF93082FB92E6B017A01E90197
:1054A0002417350710F4EA017901802F9B2D60EC59
:1054B00071E00E946629D60114968D919C911597F2
:1054C0008E159F05D0F08C179D0708F4EC01D601CE
:1054D000ED91FC911197EC0FFD1F108110826D91E1
:1054E0007C916E0D7F1D802F9B2D0E949829D601E7
:1054F000ED91FC91EC0FFD1F1083802F9B2DDF9110
:10550000CF911F910F91FF90EF90DF90CF90BF90C0
:105510000895CF93DF93EC01FB018617970761F0A5
:10552000608171816115710529F0448155810E9466
:10553000452902C00E940129CE01DF91CF91089533
:10554000FC011182108213821282158214820E9441
:10555000892A0895FC01808191810E94532B08952E
:10556000FC01808191810E94532B08950F931F931A
:10557000CF93DF93BC018230910510F462E070E0BC
:10558000E091C204F091C30440E050E0A0E0B0E03C
:1055900024C08081918186179707D0F086179707DE
:1055A00071F482819381109729F013969C938E93C6
:1055B00012972CC09093C3048093C20427C0411556
:1055C000510519F08417950718F48D01AC01EF010E
:1055D000DF01828193819C01F9013097D1F6411559
:1055E0005105F9F0CA01861B970B8430910580F4B0
:1055F0008A819B810115110521F0F8019383828333
:1056000004C09093C3048093C204FE01329645C047
:10561000FE01E80FF91F61937193029799838883C4
:105620003CC08091C0049091C104892B41F48091C9
:10563000FD019091FE019093C1048093C0044091BC
:10564000FF01509100024115510541F44DB75EB77D
:105650008091FB019091FC01481B590B2091C004E3
:105660003091C10424173507B0F4CA01821B930B93
:105670008617970780F0AB014E5F5F4F8417950741
:1056800050F0420F531F5093C1044093C004F901DE
:105690006193719302C0E0E0F0E0CF01DF91CF9120
:1056A0001F910F910895CF93DF939C01009709F408
:1056B0008FC0EC0122971B821A826091C204709104
:1056C000C3046115710581F488819981820F931F4C
:1056D0002091C0043091C1042817390739F5D093BF
:1056E000C104C093C00474C0DB0140E050E0AC17BB
:1056F000BD0708F1BB83AA83FE0121913191E20F1E
:10570000F31FAE17BF0779F48D919C911197280F65
:10571000391F2E5F3F4F3983288312968D919C91BC
:1057200013979B838A834115510571F4D093C30469
:10573000C093C2044DC012968D919C911397AD01F8
:10574000009711F0DC01D3CFDA011396DC93CE93EE
:105750001297FA0121913191E20FF31FCE17DF0763
:1057600069F488819981280F391F2E5F3F4FFA0114
:10577000318320838A819B8193838283E0E0F0E000
:10578000DB0112968D919C911397009719F0BC0143
:10579000FD01F6CFAB014E5F5F4FDB018D919C9118
:1057A000840F951F2091C0043091C1042817390738
:1057B00079F4309729F41092C3041092C20402C005
:1057C00013821282425050405093C1044093C0044F
:1057D000DF91CF9108956F927F928F929F92AF92B7
:1057E000BF92CF92DF92EF92FF920F931F93CF93CE
:1057F000DF938C01009729F4CB010E94B62A8C011B
:10580000BBC08EEFE82E8FEFF82EE00EF11E4801A0
:10581000860E971E8E149F0408F4ACC0D7014D91DC
:105820005C91119746175707B8F04530510508F4B9
:10583000A3C0CA0104978617970708F49DC0425079
:105840005040461B570BF401419351936D937C9349
:10585000CF010E94532B90C05B01A41AB50A3801F6
:10586000640E751EA091C204B091C304E0E0F0E0A4
:10587000CC24DD2447C0A615B705A9F5CD91DC9150
:105880001197CE0102968A159B0568F1CE018A19FF
:105890009B09029612962C91129713963C910597AC
:1058A00058F0F40122833383CA19DB09D183C08302
:1058B000D7016D937C9309C04E5F5F4F4C0F5D1F06
:1058C000F70151834083C901FC01C114D10431F0B7
:1058D000D6011396FC93EE9312974EC0F093C30437
:1058E000E093C20449C08D919C911197E817F90784
:1058F00008F4FC016D0112968C91129713969C91FD
:105900009C01D901109709F0B6CF8091C004909105
:10591000C10486159705E9F4E617F707D0F420913E
:10592000FF01309100022115310541F42DB73EB73A
:105930008091FB019091FC01281B390B8216930684
:10594000C8F49092C1048092C004F701718360830F
:1059500013C0CB010E94B62AEC01009759F0D70181
:105960004D915C91B8010E94D801C8010E94532B4F
:105970008E0102C000E010E0C801DF91CF911F91BD
:105980000F91FF90EF90DF90CF90BF90AF909F90DE
:105990008F907F906F90089508955058BB27AA2745
:1059A0000ED075C166D130F06BD120F031F49F3F3D
:1059B00011F41EF45BC10EF4E095E7FB51C1E92F31
:1059C00077D180F3BA17620773078407950718F039
:1059D00071F49EF58FC10EF4E0950B2EBA2FA02D19
:1059E0000B01B90190010C01CA01A0011124FF278C
:1059F000591B99F0593F50F4503E68F11A16F04087
:105A0000A22F232F342F4427585FF3CF4695379585
:105A10002795A795F0405395C9F77EF41F16BA0B4A
:105A2000620B730B840BBAF09150A1F0FF0FBB1FF8
:105A3000661F771F881FC2F70EC0BA0F621F731F41
:105A4000841F48F4879577956795B795F7959E3F9E
:105A500008F0B3CF9395880F08F09927EE0F97952C
:105A600087950895D9D008F481E008950CD00FC12E
:105A700007D140F0FED030F021F45F3F19F0F0C0C4
:105A8000511139C1F3C014D198F39923C9F35523A7
:105A9000B1F3951B550BBB27AA2762177307840721
:105AA00038F09F5F5F4F220F331F441FAA1FA9F3D7
:105AB00033D00E2E3AF0E0E830D091505040E695C9
:105AC000001CCAF729D0FE2F27D0660F771F881F2A
:105AD000BB1F261737074807AB07B0E809F0BB0B19
