:100000000C9466000C947B0C0C94A80C0C948E0041
:100010000C948E000C948E000C947D030C948E0036
:100020000C948E000C948E000C948E000C948E0018
:100030000C948E000C948E000C948E000C948E0008
:100040000C94D50C0C948E000C94B40E0C94FB0EF6
:100050000C948E000C948E000C948E000C948E00E8
:100060000C948E000C948E000000000024002700E9
:100070002A0000000000250028002B0000000000DE
:1000800023002600290004040404040404040202DA
:100090000202020203030303030301020408102007
:1000A0004080010204081020010204081020000012
:1000B0000007000201000003040600000000000029
:1000C00000008A014608381083013F0811241FBE32
:1000D000CFEFD8E0DEBFCDBF11E0A0E0B1E0EEE4AD
:1000E000FFE202C005900D92A43EB107D9F713E0DC
:1000F000A4EEB1E001C01D92AB36B107E1F710E00C
:10010000C8ECD0E004C02297FE010E945717C23C01
:10011000D107C9F70E948E100C949A170C94000016
:10012000A0E0B0E0E6E9F0E00C946B17EC01A880E9
:10013000B980CA80DB80A114B104C104D10441F4A8
:1001400084E2A82E89EDB82E8BE5C82E87E0D82E44
:10015000C601B5012DE133EF41E050E00E943A17AE
:1001600027EA31E440E050E00E94F9167B018C015F
:10017000C601B5012DE133EF41E050E00E943A178E
:10018000CA01B9012CEE34EF4FEF5FEF0E94F91670
:100190006E0D7F1D801F911F97FF04C0615070403E
:1001A00080409048688379838A839B839B01AC015C
:1001B0005F77B901CA01CDB7DEB7EAE00C948717C3
:1001C0000E949000089580EB91E00E9490000895B5
:1001D0006093B0017093B1018093B2019093B30129
:1001E00008951F93FC0199278827BC01E894119179
:1001F0001032E9F3193010F01E30C8F31B3251F001
:100200001D3249F4689406C00E945901610F711DA6
:10021000811D911D119110531A30B0F33EF4909549
:100220008095709561957F4F8F4F9F4F1F910895D7
:10023000FB01DC0102C001900D9241505040D8F703
:100240000895FC018191861721F08823D9F7992719
:1002500008953197CF010895FB01DC018D91019044
:1002600080190110D9F3990B0895FB01DC0101906D
:100270000D920020E1F70895FB01DC014150504050
:1002800030F08D910190801919F40020B9F7881B86
:10029000990B0895FB01DC014150504048F001905A
:1002A0000D920020C9F701C01D9241505040E0F767
:1002B0000895592F482F372F262F660F771F881F35
:1002C000991F660F771F881F991F620F731F841F66
:1002D000951F660F771F881F991F0895813091051C
:1002E00041F46F5F7F4F71F484EE91E00E94030848
:1002F0000895892B39F46F5F7F4F21F484EE91E0EC
:100300000E944D08089580E090E06FEF7FEF0E941B
:100310006E01089581E090E06FEF7FEF0E946E0123
:100320000895CF92DF92EF92FF920F931F93CF9396
:10033000DF93F82E6B01142F442339F1C0E0D0E095
:1003400085E392E06F2DA601212F00E03EE1E32E30
:100350000E949B068823C9F42196C930D10541F437
:1003600085EC92E060E071E00E94F21180E00EC046
:1003700062E370E080E090E028EC30E040E050E0A4
:100380000E9427120E94660DDBCF81E0DF91CF91A2
:100390001F910F91FF90EF90DF90CF90089584EE22
:1003A00091E065EC72E00E94880A08958F929F9216
:1003B000AF92BF92CF92DF92EF92FF920F931F9373
:1003C000DF93CF93CDB7DEB7CA5FD0400FB6F894B6
:1003D000DEBF0FBECDBFA89584EE91E065EC72E064
:1003E0000E94B508882309F410C153E0C52ED12C12
:1003F000CC0EDD1EC60163EA72E00E94C214C60183
:100400000E9467128E01075F1F4FC80166E171E00D
:100410000E943214C601B8010E945A13F82EC80176
:100420000E94D614FF2089F084EE91E065EC72E022
:100430000E947E0885EC92E06BE171E00E94EF1172
:1004400085EC92E00E94CF10D4C08E01015F1F4F57
:10045000C80164E371E00E943214C601B8010E9431
:100460005A13F82EC8010E94D614FF2081F18E0184
:100470000B5E1F4F2091A7023091A802C80163EACA
:1004800072E045E050E00E946414C8010E945612D8
:10049000F62EC8010E94D6148EE689838A838F2D9A
:1004A00090E0BE016F5F7F4F42E00E949101882380
:1004B00009F49FC085E392E060E00E941D04BC0146
:1004C00085EC92E04AE050E00E94D01192C08E018B
:1004D000055E1F4FC8016AE371E00E943214C60135
:1004E000B8010E945A13F82EC8010E94D614FF20AA
:1004F00009F479C08091A7029091A802049708F4AA
:1005000072C083EA92E06DE30E94C6128F5F9F4F34
:1005100009F469C083EA92E06DE30E94C6129C016F
:100520008E010F5D1F4FC80163EA72E043E050E0A7
:100530000E946414C8010E9456124B015C01C8015C
:100540000E94D61483EA92E06DE30E94C61247E24D
:10055000C42ED12CCC0EDD1EAC014F5F5F4F20911D
:10056000A7023091A802C60163EA72E00E946414F7
:100570008FEF8816910464F5C6016EE371E00E9466
:10058000CB12882329F58E01035D1F4FC801B601E8
:100590000E94CC14C80160E471E00E94F513BC0114
:1005A000C6010E94AB14C8010E94DC14FBA48E019A
:1005B0000D5C1F4FC601B8014F2D50E020E030E028
:1005C0000E947B12C401B8014F2D0E94910106C008
:1005D00084EE91E065EC72E00E94AF08CE01879650
:1005E0000E94D61406C084EE91E065EC72E00E9491
:1005F000AF0883EA92E062E471E00E944B1410922B
:10060000A902CE0103960E94D61484EE91E00E94C6
:100610001C0B882361F185EC92E063E471E00E9499
:10062000EF1160912A0285EC92E04AE050E00E94CE
:100630007E1185EC92E065E471E00E94EF1100E02C
:100640000AC0E02FF0E0E551FE4F608185EC92E0BA
:100650000E94C7100F5F80912902081790F385EC64
:1006600092E00E94CF1084EE91E00E94F90AC650F9
:10067000DF4F0FB6F894DEBF0FBECDBFCF91DF9135
:100680001F910F91FF90EF90DF90CF90BF90AF90B0
:100690009F908F9008950F931F9305EC12E0C8016F
:1006A00040E052EC61E070E00E942B0FC80167E46B
:1006B00071E00E94F21184EE91E06FEF70E00E9411
:1006C000F20B64E670E080E090E00E94660D1F91FE
:1006D0000F910895F999FECF72BD61BDF89A80B56A
:1006E0000895F999FECF1FBA72BD61BD40BD0FB626
:1006F000F894FA9AF99A0FBE08951F920F920FB6C6
:100700000F9211248F9388E10FB6F89480936000C4
:10071000109260000FBE8F910F900FBE0F901F9030
:100720001895E0913102F0913202A081B1812D91B2
:100730003C91CF01F90109950895FC01828161E0A6
:100740000E940D0E78940895FC01F894828160E077
:100750000E940D0E08950F931F93CF93DF93EC012A
:10076000162F042F0E94A40310681EBD0DB407FEAF
:10077000FDCF8EB50EBD0DB407FEFDCF8EB5CE01FB
:100780000E949D03DF91CF911F910F9108951F93B8
:10079000CF93DF93EC01162F662311F445E501C0DA
:1007A0004DE5CE016AE50E94AB03112311F440E749
:1007B00001C04CE7CE016CE50E94AB03DF91CF9105
:1007C0001F9108951F93CF93DF93EC01162F0E9482
:1007D000A4031F771EBD0DB407FEFDCF8EB51EBC52
:1007E0000DB407FEFDCF1EB5CE010E949D03812FE3
:1007F000DF91CF911F910895CF93DF93EC016F8329
:10080000662311F44AE101C04FE0CE0163E10E948A
:10081000AB038F81882341F0CE0161E10E94E203A6
:10082000482F4F71406602C04E814068CE0161E1A1
:100830000E94AB03DF91CF910895CF93DF93EC013A
:10084000662351F063E241E00E94AB03CE0163E214
:100850000E94E20381FFFACFCE0164E20E94E2032C
:10086000282F30E0309521953F4F35952795C901C8
:10087000DF91CF9108951F93CF93DF93EC01162F53
:1008800080912802681709F459C0623089F16330F9
:1008900030F46623E9F1613009F050C031C06330B3
:1008A000A1F0643009F04AC0CE0161E00E94E20389
:1008B000482F437E4C60CE0161E00E94AB038F81E4
:1008C000882381F1CE0161E010C0CE0161E00E9479
:1008D000E203482F437E4061CE0161E00E94AB03FA
:1008E0008F818823F9F0CE0160E00E94C7031AC00F
:1008F000CE0161E00E94E203482F437E48600EC0B3
:10090000CE0161E00E94E203482F437E446006C0AE
:10091000CE0161E00E94E203482F437ECE0161E0F8
:100920000E94AB0380912802882331F4CE0167E254
:100930000E94E2038823B4F710932802DF91CF913D
:100940001F910895CF93DF93EC01809128028330AB
:1009500089F480912C02882369F4CE0160E00E9422
:100960001D04865A9F4F34F4CE0161E00E943B047F
:1009700081E001C080E0DF91CF910895CF93DF93B4
:10098000EC011092290210922A0210922B0210926E
:100990002C0210922D0210922E0210923002109210
:1009A0002F0268E20E94E20382FF0AC0CE016DE3DB
:1009B0000E94E203482F4460CE016DE30E94AB0326
:1009C000CE0165E240E40E94AB03CE0163E00E94E9
:1009D0003B04DF91CF9108959C01F8948091280207
:1009E000833051F480912C02882331F0C90161E0F9
:1009F0000E943B0481E00895C9010E94BE0480E08A
:100A000008951F93162F0E94EC04882361F08091B3
:100A10002A02811711F0112331F480912E028823CC
:100A200019F081E001C080E01F9108950F931F939A
:100A3000CF93DF93EC018B0161E00E943B04011531
:100A40001105E1F0CE010E94A4038EEB8EBD0DB422
:100A500007FEFDCF8EB520E030E0F801E20FF31F76
:100A600080818EBD0DB407FEFDCF8EB52F5F3F4F49
:100A70002031310591F7CE010E949D03CE016DE337
:100A80000E94E203482F4E7F80E0012B09F081E0B5
:100A9000482BCE016DE30E94AB03DF91CF911F91F4
:100AA0000F910895CF93DF93EC018091280283305A
:100AB00009F067C0CE0168E20E94E20382FF61C0D4
:100AC000CE0161E00E943B04CE010E94A4031EBC43
:100AD0000DB407FEFDCF8EB51EBC0DB407FEFDCFD5
:100AE0008EB580932C0280912C02833410F082E426
:100AF00002C080912C0280932C021EBC0DB407FE14
:100B0000FDCF8EB580932B028D81882309F042C0E2
:100B100090912B028C819817E9F180912B02882308
:100B2000C9F110922C02CE010E949D033AC00DB46F
:100B300007FEFDCF8EB580932A021EBC0DB407FEC2
:100B4000FDCF8EB5982F907890932E02807480936D
:100B50002D0290E00BC01EBC0DB407FEFDCF8EB57C
:100B6000E92FF0E0E551FE4F80839F5F80912902DD
:100B7000981788F3CE010E949D03CE0163E00E9486
:100B80003B04CE0160E00E941D04909330028093EC
:100B90002F0207C080912C028350809329021EBC33
:100BA000C6CFDF91CF910895CF92DF92EF92FF925F
:100BB0000F931F93CF93DF93EC01F62ED42EC52E07
:100BC000122F61E00E943B04CE0167E20E94E20323
:100BD00087FFFACFCE0165E240E00E94AB031E33EF
:100BE00008F01DE3CE010E94A40380E88EBD0DB481
:100BF00007FEFDCF8EB51D5F1EBD13500DB407FE61
:100C0000FDCF8EB5FEBC0DB407FEFDCF8EB58C8139
:100C10008EBD0DB407FEFDCF8EB5EE2031F080E81D
:100C20008EBD0DB407FEFDCF07C0002361F080E448
:100C30008EBD0DB407FEFDCF8EB58D2D9C2D9C0174
:100C4000F90190E00DC01EBC0DB407FEFDCFF4CF3E
:100C500080818EBD0DB407FEFDCF8EB59F5F3196AE
:100C60009117B0F3CE010E949D03CE0164E00E9473
:100C70003B048B810E94610E892BD9F3CE0161E088
:100C80000E943B04DF91CF911F910F91FF90EF9055
:100C9000DF90CF900895EF92FF920F931F93CF9321
:100CA000DF93EC018B01F42EE0902A0203C0CE0109
:100CB0000E94EC04CE010E94A2048823C1F3CE015D
:100CC0006E2DA8012F2D00E0EE24E3940E94D405A0
:100CD000DF91CF911F910F91FF90EF900895DF92D8
:100CE000EF92FF920F931F93CF93DF93EC01162F98
:100CF0007A01D22E6DE30E94E203482F4460CE01B8
:100D00006DE30E94AB0303C0CE010E94EC04CE0150
:100D10000E94A2048823C1F3CE01612FA7012D2DCB
:100D2000EE240E94D405DF91CF911F910F91FF9087
:100D3000EF90DF9008954F925F926F927F928F9223
:100D40009F92AF92BF92CF92DF92EF92FF920F935A
:100D50001F93CF93DF93EC01862E3A01422E502E43
:100D60009924AE2CBB24CC24DD24CE01682DA30114
:100D7000242D01E00E946F060E941D0D7B018C0155
:100D800008C0CE01682D0E940105882311F081E082
:100D90000FC00E941D0D6E197F09800B910B6A1503
:100DA0007B058C059D0568F393945914F0F680E05B
:100DB000DF91CF911F910F91FF90EF90DF90CF9037
:100DC000BF90AF909F908F907F906F905F904F906B
:100DD0000895CF92DF92EF92FF920F931F93DF93CC
:100DE000CF93CDB7DEB7AA970FB6F894DEBF0FBE8C
:100DF000CDBF7C01042F522F6F3119F430EC4EE43B
:100E00000EC06B3211F44CE6C6C0663509F0BFC0A7
:100E100049ED04C0663511F030EC01C030E0FE0150
:100E200031968AE2DF011D928A95E9F781E0898394
:100E300094E09A8382E08B8323E02D838E839F83CB
:100E400090E4988785E089872A8786E08B8783E30B
:100E50008C8787E08D8788E08F8789E0898B89E19F
:100E60008B8B22E42C8B85E28D8B9E8B89E28F8B82
:100E70008CED888F8EE2898F88E88A8F8FE28B8F46
:100E80008DE28C8F90E39D8F87E38F8F80E988A31D
:100E900088E389A32AA38CE38BA38FE88CA38DE33B
:100EA0008DA382E18EA38FE68FA398A78FEF89A7EA
:100EB0004E87388B5E8FF701828161E00E94CE0DF4
:100EC00080E00E94D60781E00E94CD0784E00E9466
:100ED000DB070E94EC07C7016FE24AEA0E94AB03FE
:100EE000C7016FE20E94E2038A3AA9F7C7016FE2E5
:100EF00045E50E94AB03C7016FE20E94E20385351E
:100F0000A9F710E06E010894C11CD11C05C0C701EF
:100F100041810E94AB031F5FE12FF0E0EE0FFF1F46
:100F2000EC0DFD1D60816F3F91F7C70160E070E03F
:100F30000E941605C701D70117966C910E94FC0309
:100F4000C70161E00E943B04C70167E20E94E2031F
:100F500087FFFACF80E061E973E043E050E00E9450
:100F6000580CF0923202E0923102F701048381E0E2
:100F7000AA960FB6F894DEBF0FBECDBFCF91DF911A
:100F80001F910F91FF90EF90DF90CF90089544EE66
:100F90006B3209F03FCF30E442CF882319F48CB58F
:100FA000806202C08CB58F7D8CBD08959CB5937F07
:100FB000982B9CBD08952CB5382F33702C7F322B85
:100FC0003CBD2DB590E09595879595958795817059
:100FD0002E7F822B8DBD08958AE061E00E940D0E68
:100FE0008AE061E00E94CE0D8CB580618CBD8CB52D
:100FF00080648CBD8DE061E00E94CE0D8BE061E0ED
:101000000E94CE0D08956FE471E00E94321408959D
:101010008130910531F56F5F7F4F81F581ED91E072
:1010200090933602809335028AE08093370282E003
:101030008093380281E08093280210923A028FE177
:1010400080933B0210923C0283EA92E06FE471E0ED
:101050000E9432148BEA92E06FE471E00E94321435
:101060000895892B59F46F5F7F4F41F48BEA92E02A
:101070000E94D61483EA92E00E94D614089580E07C
:1010800090E06FEF7FEF0E940808089581E090E004
:101090006FEF7FEF0E94080808950E94D61408950C
:1010A00088E10FB6F89480936000109260000FBE44
:1010B00083EA92E06FE471E00E944B141092A9025F
:1010C0002EE088E190E00FB6F894A8958093600038
:1010D0000FBE20936000FFCFCF93DF93C0E0D0E03E
:1010E0008AEE91E0BE014FEF0E947103219684E0E9
:1010F000C030D807A9F7DF91CF9108950F931F93C0
:10110000CF93DF938B01CB0160E571E00E94EF117B
:10111000C801609134024AE050E00E947E11C8018B
:101120006CE571E00E94EF11C801609133024AE062
:1011300050E00E947E11C80166E671E00E94EF1146
:10114000C4EBD1E0C80169910E94C71081E0C43CA2
:10115000D807C1F7DF91CF911F910F910895CB016F
:1011600061E771E00E94F21108958F929F92AF9211
:10117000BF92CF92DF92EF92FF920F931F93DF9374
:10118000CF93CDB7DEB7CE54D0400FB6F894DEBFC4
:101190000FBECDBF4C015B018091A902882311F4E1
:1011A00010E0A1C16E010894C11CD11CC60163EA04
:1011B00072E00E94C214C6010E94671283EA92E0A4
:1011C0006FE471E00E94CB12882371F58E01095FF4
:1011D0001F4FC8016AE771E00E943214C601B801CE
:1011E0000E945A13F82EC8010E94D614FF20E1F184
:1011F0008E01035F1F4F2091A7023091A802C80102
:1012000063EA72E045E050E00E946414C8010E9465
:101210005612F62EC8010E94D614FF2071F4C501A3
:1012200061E771E00E94F21183EA92E06FE471E0FD
:101230000E944B141092A90251C18AEE91E061E024
:1012400070E04F2D0E947103C50167E771E00E94B5
:10125000F21183EA92E06FE471E00E944B14109265
:10126000A902F0923302D4C08E010D5E1F4FC80157
:1012700060E871E00E943214C601B8010E945A135E
:10128000F82EC8010E94D614FF2089F18E01075E56
:101290001F4F2091A7023091A802C80163EA72E0B3
:1012A00045E050E00E946414C8010E945612F62ED8
:1012B000C8010E94D6148F2D81508E3F08F0AFCF09
:1012C0008AEE91E060E070E04F2D0E947103C5014D
:1012D00067E771E00E94F21183EA92E06FE471E047
:1012E0000E944B141092A902F092340291C08E0118
:1012F000015E1F4FC80166E871E00E943214C6010A
:10130000B8010E945A13F82EC8010E94D614FF207B
:1013100009F071C08E010B5D1F4FC8016DE871E0CF
:101320000E943214C601B8010E945A13F82EC80157
:101330000E94D614FF20B1F08E01055D1F4F209151
:10134000A7023091A802C80163EA72E049E050E0C8
:101350000E946414C8010E9456127093B7026093F1
:10136000B6022DC08E010F5C1F4FC80167E971E006
:101370000E943214C601B8010E945A13F82EC80107
:101380000E94D614FF2011F1E090B602F090B7024F
:101390008E01095C1F4F2091A7023091A802C8015D
:1013A00063EA72E04AE050E00E946414C8010E94BF
:1013B0005612462F8AEE91E0B7010E947103C801D0
:1013C0000E94D614C50167E771E02CCF8E01035C43
:1013D0001F4FC80162EA71E00E943214C601B801D1
:1013E0000E945A13F82EC8010E94D614FF20A1F0C3
:1013F000C4010E946C08C50167E771E00E94F21108
:1014000083EA92E06FE471E00E944B141092A9020B
:10141000C4010E94500862C08E010D5B1F4FC801BD
:1014200069EA71E00E943214C601B8010E945A13A1
:10143000F82EC8010E94D614FF2011F411E04FC00D
:101440008E01075B1F4F2091A7023091A802C801AF
:1014500063EA72E045E050E00E946414F801848180
:101460009581409749F505E010E083EA92E0B801E4
:101470000E944512482FF801E155FE4F808303502A
:1014800010408AEE91E0B8010E9471030C5F1F4F7B
:101490000531110551F7C50167E771E00E94F211AE
:1014A00083EA92E06FE471E00E944B141092A9026B
:1014B000C4010E9450080DC0C50161E771E00E949F
:1014C000F21183EA92E06FE471E00E944B141092F3
:1014D000A902CE01875B9F4F0E94D61410E0CE0177
:1014E00001960E94D614812FC25BDF4F0FB6F8948D
:1014F000DEBF0FBECDBFCF91DF911F910F91FF9047
:10150000EF90DF90CF90BF90AF909F908F90089515
:101510001F93CF93DF93EB0111E022C0E881F981A3
:101520000680F781E02DCE010995682F803259F4AD
:101530008091AA02803339F4F894E091C501F091CA
:10154000C601099516C06093AA026A3011F06D3089
:1015500019F41093A90204C083EA92E00E94D01308
:10156000E881F9810480F581E02DCE010995892B70
:10157000A9F6DF91CF911F910895EF920F931F93DA
:10158000CF93DF93162FC0E0D0E020913D022223BD
:1015900021F185E392E0612F4EE352E002E03FE06B
:1015A000E32E0E949B06882319F010923D0215C07D
:1015B0002196C930D10521F410923D0280E00EC081
:1015C00063E270E080E090E024E630E040E050E04C
:1015D0000E9427120E94660DD8CF81E0DF91CF9143
:1015E0001F910F91EF9008956FEF70E00E94BD0A78
:1015F0000895CF93DF93EC0180912D02882339F079
:1016000085E392E06FE471E040E00E944B06809138
:101610003D02882329F0CE010E94F40A1092EB01CA
:101620008091A202882329F01092A202CE010E948A
:101630005008DF91CF910895EF92FF920F931F937F
:10164000DF93CF9300D000D000D0CDB7DEB7F82E17
:10165000E92E0E941D0D2091B2023091B3024091FB
:10166000B4025091B502621B730B840B950B685E3C
:1016700073408040904090F08F2D9E2D6FE471E07C
:101680000E944B141092B1020E941D0D6093B20291
:101690007093B3028093B4029093B50285E392E015
:1016A0000E94EC04882311F400E07CC08E010F5FDF
:1016B0001F4FC8016BEE71E00E943214C8016F2DFC
:1016C0007E2D0E942113882339F090912A02809167
:1016D000B102891709F474C08F2D9E2DBE016F5F72
:1016E0007F4F0E94AB1480912A028093B1020E9426
:1016F0001D0D6093B2027093B3028093B402909375
:10170000B5028091EB01803709F05DC08091EC015A
:101710008E3609F058C08FE480933E028BE48093AC
:101720003F0282E080933D0232C08091EC018E3610
:1017300009F04EC045C08091EC01853609F04DC0DE
:101740008091ED01833709F048C08FE480933E0219
:101750008BE480933F0282E080933D0215C080912C
:10176000EC018536D1F48091ED018636B1F48FE439
:1017700080933E028BE480933F0282E080933D029F
:101780008F2D9E2D0E946C0881E08093A2028F2DE8
:101790009E2D0E94F90A00E001C001E0CE010196F1
:1017A0000E94D614802F26960FB6F894DEBF0FBE87
:1017B000CDBFCF91DF911F910F91FF90EF900895D2
:1017C00010923D02E4CF8091EB018E3609F4ADCF4B
:1017D0008091EB01823709F4AECF8091EB01843622
:1017E000E1F6BDCF1F93CF93DF93162F88E10FB69D
:1017F000F89480936000109260000FBE60E971E081
:1018000080E090E00E94660D28E288E190E00FB64B
:10181000F894A895809360000FBE209360008AEE34
:1018200091E060E070E00E946A03809334028F3F91
:1018300011F4109334028AEE91E061E070E00E94AE
:101840006A03809333028F3F19F481E0809333025F
:101850008AEE91E062E070E00E946A038F3F79F0C7
:10186000C2E0D0E08AEE91E0BE010E946A03FE0170
:10187000EE54FE4F80832196C231D10599F785E35E
:1018800092E06BE240913402209133020E94E9061B
:1018900085E392E064EB71E00E94160583EA92E032
:1018A00064E670E00E948713DF91CF911F91089545
:1018B000823000F5E82FF0E0EE0FFF1FE854FD4FF7
:1018C00071836083882319F08130A1F408C080916E
:1018D00069008C7F842B80936900E89A0895809139
:1018E0006900440F551F440F551F837F842B80933D
:1018F0006900E99A08951F920F920FB60F92112472
:101900002F933F934F935F936F937F938F939F9307
:10191000AF93BF93EF93FF938091B8029091B90278
:10192000892B29F0E091B802F091B9020995FF9155
:10193000EF91BF91AF919F918F917F916F915F9147
:101940004F913F912F910F900FBE0F901F901895C0
:101950001F920F920FB60F9211242F933F934F9324
:101960005F936F937F938F939F93AF93BF93EF9307
:10197000FF938091BA029091BB02892B29F0E091EC
:10198000BA02F091BB020995FF91EF91BF91AF911F
:101990009F918F917F916F915F914F913F912F9187
:1019A0000F900FBE0F901F9018951F920F920FB6B9
:1019B0000F9211242F933F938F939F93AF93BF93D5
:1019C0008091C0029091C102A091C202B091C30265
:1019D0003091C4020196A11DB11D232F2D5F2D371B
:1019E00020F02D570196A11DB11D2093C4028093B4
:1019F000C0029093C102A093C202B093C30280912F
:101A0000BC029091BD02A091BE02B091BF020196AE
:101A1000A11DB11D8093BC029093BD02A093BE0294
:101A2000B093BF02BF91AF919F918F913F912F9142
:101A30000F900FBE0F901F9018958FB7F8942091BC
:101A4000C0023091C1024091C2025091C3028FBFC7
:101A5000B901CA010895789484B5826084BD84B5C3
:101A6000816084BD85B5826085BD85B5816085BD99
:101A7000EEE6F0E0808181608083E1E8F0E01082B2
:101A8000808182608083808181608083E0E8F0E0F3
:101A9000808181608083E1EBF0E0808184608083DD
:101AA000E0EBF0E0808181608083EAE7F0E0808114
:101AB0008460808380818260808380818160808374
:101AC0008081806880831092C1000895EF92FF9218
:101AD0000F931F93CF93DF937B018C013FB7F89453
:101AE0008091BC029091BD02A091BE02B091BF0254
:101AF00026B5A89B05C02F3F19F00196A11DB11D69
:101B00003FBFBA2FA92F982F8827820F911DA11DA3
:101B1000B11D52E0880F991FAA1FBB1F5A95D1F71C
:101B2000EC0130C00E94F8163FB7F8948091BC02D7
:101B30009091BD02A091BE02B091BF0226B5A89BB4
:101B400005C02F3F19F00196A11DB11D3FBFBA2F4F
:101B5000A92F982F8827820F911DA11DB11D32E05A
:101B6000880F991FAA1FBB1F3A95D1F78C1B9D0B9D
:101B7000885E9340B8F20894E108F1080109110960
:101B8000C851DC4FE114F1040105110559F6DF914C
:101B9000CF911F910F91FF90EF900895CF93DF9316
:101BA000482F50E0CA0186569F4FFC0134914A5796
:101BB0005F4FFA018491882369F190E0880F991FA3
:101BC000FC01E859FF4FA591B491FC01EE58FF4F7D
:101BD000C591D491662351F42FB7F8948C91932F2B
:101BE000909589238C93888189230BC0623061F49E
:101BF0002FB7F8948C91932F909589238C9388819B
:101C0000832B88832FBF06C09FB7F8948C91832BBA
:101C10008C939FBFDF91CF910895482F50E0CA0168
:101C200082559F4FFC012491CA0186569F4FFC01AB
:101C300094914A575F4FFA013491332309F440C01D
:101C4000222351F1233071F0243028F42130A1F007
:101C5000223011F514C02630B1F02730C1F0243005
:101C6000D9F404C0809180008F7703C080918000F8
:101C70008F7D8093800010C084B58F7702C084B5BB
:101C80008F7D84BD09C08091B0008F7703C08091A3
:101C9000B0008F7D8093B000E32FF0E0EE0FFF1FC8
:101CA000EE58FF4FA591B4912FB7F894662321F415
:101CB0008C919095892302C08C91892B8C932FBF96
:101CC0000895682F70E0CB0182559F4FFC0124914D
:101CD000CB0186569F4FFC0144916A577F4FFB0111
:101CE0009491992319F420E030E03CC0222351F173
:101CF000233071F0243028F42130A1F0223011F586
:101D000014C02630B1F02730C1F02430D9F404C01B
:101D1000809180008F7703C0809180008F7D8093B9
:101D2000800010C084B58F7702C084B58F7D84BDDC
:101D300009C08091B0008F7703C08091B0008F7D83
:101D40008093B000892F90E0880F991F84589F4F8F
:101D5000FC01A591B4918C9120E030E0842311F036
:101D600021E030E0C90108951F920F920FB60F9243
:101D700011242F933F934F938F939F93EF93FF9350
:101D80008091C00082FD19C04091C6008091E3029D
:101D9000282F30E02F5F3F4F2F7330708091E40287
:101DA00090E02817390759F0E091E302F0E0EB5397
:101DB000FD4F42A32093E30202C08091C600FF9131
:101DC000EF919F918F914F913F912F910F900FBE67
:101DD0000F901F9018958091E3022091E40290E00B
:101DE000805C9F4F821B91098F739070892B11F03B
:101DF0000E94CF0108951F920F920FB60F921124E7
:101E00002F938F939F93EF93FF939091E50280918F
:101E1000E602981731F48091C1008F7D8093C10054
:101E200010C0E091E602F0E0E95DFC4F2081809176
:101E3000E60290E001968F7390708093E602209303
:101E4000C600FF91EF919F918F912F910F900FBE40
:101E50000F901F901895AF92BF92DF92EF92FF9272
:101E60000F931F93CF93DF93EC017A018B01DD2455
:101E7000403081EE580780E0680780E0780711F075
:101E8000DD24D39491E0A92EB12CE889F989DD20D5
:101E900069F0C5010C8C02C0880F991F0A94E2F703
:101EA000808360E079E08DE390E005C0108260E817
:101EB00074E88EE190E0A80197010E941817215064
:101EC000304040405040569547953795279580E1E2
:101ED0002030380720F0DD2011F0DD24D6CFEC854E
:101EE000FD853083EE85FF8520831D8EEA89FB8981
:101EF000408121E030E0C901088C02C0880F991FA1
:101F00000A94E2F7482B4083EA89FB894081C901A2
:101F1000098C02C0880F991F0A94E2F7482B40836E
:101F2000EA89FB894081C9010A8C02C0880F991F88
:101F30000A94E2F7482B4083EA89FB8980810B8C65
:101F400002C0220F331F0A94E2F720952823208332
:101F5000DF91CF911F910F91FF90EF90DF90BF9095
:101F6000AF900895FC01268D878D30E0205C3F4FB7
:101F7000281B31092F733070C9010895FC01968D1B
:101F8000878D981719F42FEF3FEF06C0878DE80F64
:101F9000F11D82A1282F30E0C9010895DC015E9671
:101FA0009C915E975F968C915F97981719F42FEF2D
:101FB0003FEF10C05F968C915F97FD01E80FF11D18
:101FC00092A15F968C915F978F5F8F735F968C93D2
:101FD000292F30E0C9010895DC015D968C915D9751
:101FE000882339F05096ED91FC915197808186FFBE
:101FF000F9CF5D961C920895DC0190968C91909794
:10200000282F30E02F5F3F4F2F73307091968C91C7
:10201000919790E028173907C9F390968C91909783
:10202000FD01E80FF11DEE59FF4F608390962C9350
:1020300090975296ED91FC915397208181E090E02A
:102040005B960C905B9702C0880F991F0A94E2F789
:10205000282B208381E05D968C935D975096ED91BF
:10206000FC91519780818064808381E090E00895A5
:102070001092C8021092C70288EE93E0A0E0B0E090
:102080008093C9029093CA02A093CB02B093CC0272
:1020900087ED91E09093C6028093C5021092E6020C
:1020A0008091E6028093E5021092E4028091E402BE
:1020B0008093E30285EC90E09093D2028093D1026A
:1020C00084EC90E09093D4028093D30280EC90E073
:1020D0009093D6028093D50281EC90E09093D80241
:1020E0008093D70282EC90E09093DA028093D90239
:1020F00086EC90E09093DC028093DB0284E0809396
:10210000DD0283E08093DE0287E08093DF0285E0DA
:102110008093E00281E08093E1020895CF93DF9302
:102120000E942B0D0E944B03CBEEDEE00E94D601F5
:102130002097E1F30E94EB0EF9CFCF92DF92EF925E
:10214000FF920F931F93CF93DF937C016B018A0162
:10215000C0E0D0E00FC0D6016D916D01D701ED91C7
:10216000FC910190F081E02DC7010995C80FD91F9E
:10217000015010400115110571F7CE01DF91CF918B
:102180001F910F91FF90EF90DF90CF900895DC01A9
:10219000ED91FC910190F081E02D09950895EF9269
:1021A000FF920F931F938C01DC01ED91FC91019044
:1021B000F081E02D6DE009957C01D801ED91FC9155
:1021C0000190F081E02DC8016AE009959C012E0D77
:1021D0003F1DC9011F910F91FF90EF900895CF937C
:1021E000DF93EC016115710519F420E030E00FC0B8
:1021F000DB010D900020E9F71197A61BB70BE881D2
:10220000F9810280F381E02DAD0109959C01C9019E
:10221000DF91CF9108954F925F927F928F929F921C
:10222000AF92BF92CF92DF92EF92FF920F931F93E4
:10223000DF93CF93CDB7DEB7A1970FB6F894DEBF8B
:102240000FBECDBF2C01742ECB01223008F42AE042
:1022500019A231E2C32ED12CCC0EDD1E822E992480
:10226000AA24BB24672D752FA50194010E9418177D
:1022700079018A01C801B701A50194010E94F916EC
:10228000472D461B0894C108D1084A3014F4405D1C
:1022900001C0495CF6014083E114F1040105110518
:1022A00021F07E2C5F2DC801DDCFC201B6010E9456
:1022B000EF10A1960FB6F894DEBF0FBECDBFCF9141
:1022C000DF911F910F91FF90EF90DF90CF90BF9023
:1022D000AF909F908F907F905F904F900895DC011A
:1022E0002115310541F4ED91FC910190F081E02D33
:1022F000642F099508950E940B110895EF92FF92A3
:102300000F931F939A01E62EFF2400E010E0B8011E
:10231000A7010E946F111F910F91FF90EF900895F8
:10232000CF92DF92EF92FF920F931F93CF93DF93A1
:10233000EC016A017B012115310541F4E881F98145
:102340000190F081E02D642F09951FC02A303105DE
:10235000D1F477FF17C0E881F9810190F081E02D79
:102360006DE209958C0144275527BA014C195D0986
:102370006E097F09CE012AE00E940B119801280FF7
:10238000391F04C02AE00E940B119C01C901DF9192
:10239000CF911F910F91FF90EF90DF90CF90089514
:1023A000CF92DF92EF92FF920F931F936C017B010C
:1023B0009A010027F7FC0095102FB801A7010E9491
:1023C00090118C01C6010E94CF10080F191FC8017F
:1023D0001F910F91FF90EF90DF90CF9008950E9492
:1023E000EF100895EF92FF920F931F937C010E94CC
:1023F000EF108C01C7010E94CF10080F191FC801F0
:102400001F910F91FF90EF900895EF92FF920F931D
:102410001F937B018C01611571058105910529F4DC
:1024200020E030E040E050E00BC00E94E300A80153
:1024300097010E943A17AC01CB01DA019C01AD0172
:10244000B901CA011F910F91FF90EF900895EF928B
:10245000FF920F931F937B018C0162177307840710
:10246000950764F4261B370B480B590BCA01B901B9
:102470000E940512E60EF71E081F191FB701C801BA
:102480001F910F91FF90EF900895FC018481958139
:102490006817790748F40190F081E02D309721F01A
:1024A000E60FF71F8081089580E00895FC01808188
:1024B0009181009729F420E030E040E050E004C032
:1024C0000E94F1009B01AC01B901CA010895CF93AC
:1024D000DF93FC01C081D181209739F409C099278D
:1024E00087FD90950E945B17899388818823B9F7AF
:1024F000DF91CF9108950F931F93CF93DF93FC014A
:102500008B0141155105F9F061157105E1F08481E8
:1025100095812817390718F0FB01108214C041502B
:102520005040EC01C21BD30B4C175D0708F4EA01C5
:1025300060817181620F731FC801AE010E944A0160
:10254000C00FD11F1882DF91CF911F910F91089575
:10255000CF93DF93FC01848195814817590768F474
:10256000C081D181772767FD7095CE01840F951FBB
:102570000E9421019C01009719F42FEF3FEF02C048
:102580002C1B3D0BC901DF91CF91089540E050E035
:102590000E94A8120895DC01FB0114968D919C9174
:1025A0001597892B31F461157105A9F090E08081B0
:1025B00008C00D90BC91A02D6115710529F490E023
:1025C0008C91882349F407C0CD010E942C019C0105
:1025D00090E0232B09F491E0892F0895CF93DF93A6
:1025E0009C01FB01EC01A881B981109729F0608161
:1025F000718161157105D1F4C081D181209759F0A5
:1026000084819581892B39F0888190E022273327B6
:10261000281B390B12C0109771F0F9018481958144
:10262000892B49F08C91282F30E007C0CD010E9402
:102630002C019C0102C020E030E0C901DF91CF9164
:102640000895FC01DB012481358114968D919C91C4
:1026500015972817390711F020E007C0CF010E9415
:10266000EE1220E0892B09F421E0822F0895FC016D
:10267000DB0114962D913C91159784819581821BE5
:10268000930B84179507A0F080819181009781F0CA
:102690006D917C916115710559F0840F951FA90109
:1026A0000E943C019C0180E0232B19F481E00895F5
:1026B00080E00895FC01DB012481358114968D9121
:1026C0009C9115972817390710F480E00895CF01E1
:1026D00040E050E00E94371308950F931F93CF936B
:1026E000DF93EC018B016F5F7F4F888199810E949E
:1026F0001716009711F480E005C0998388831B8327
:102700000A8381E0DF91CF911F910F910895CF93BC
:10271000DF93EC0188819981892B29F08A819B8143
:102720008617970760F4CE010E946D13882341F04D
:102730008C819D81892B19F4E881F981108281E0D7
:10274000DF91CF910895EF92FF920F931F93CF9354
:10275000DF93EC017B016C817D81E114F104C1F018
:102760004115510599F08A01060F171FB8010E9403
:102770008713882369F0888199812C813D81820F9C
:10278000931FB7010E9435011D830C8381E001C0B6
:1027900080E0DF91CF911F910F91FF90EF9008950E
:1027A000DF93CF9300D0CDB7DEB769831A82BE0125
:1027B0006F5F7F4F41E050E00E94A3130F900F9096
:1027C000CF91DF910895CF93DF93EC0188819981B8
:1027D000009711F00E947F15198218821D821C82B9
:1027E0001B821A82DF91CF9108950F931F93182FA8
:1027F000092F6115710561F0DB010D900020E9F7EB
:102800001197A61BB70BAD010E94A313882321F4D7
:10281000812F902F0E94E313812F902F1F910F91F2
:102820000895EF92FF920F931F93CF93DF93EC01E4
:102830007B018A01BA010E948713882321F4CE010B
:102840000E94E31307C01D830C8388819981B7011F
:102850000E943501CE01DF91CF911F910F91FF9022
:10286000EF900895CF93DF93EC01198218821B82B9
:102870001A821D821C826115710551F0DB010D90D9
:102880000020E9F71197A61BB70BAD010E941114A8
:10289000DF91CF9108950F931F93182F092F611582
:1028A000710559F0DB010D900020E9F71197A61B87
:1028B000B70BAD010E94111402C00E94E313812FD7
:1028C000902F1F910F910895BF92CF92DF92EF92B8
:1028D000FF920F931F93CF93DF93082FB92E6B01B5
:1028E0007A01E9012417350710F4EA017901802FF4
:1028F0009B2D6FEA71E00E943214D60114968D91DF
:102900009C9115978E159F05D0F08C179D0708F4A4
:10291000EC01D601ED91FC911197EC0FFD1F108198
:1029200010826D917C916E0D7F1D802F9B2D0E94DA
:102930004B14D601ED91FC91EC0FFD1F1083802FFD
:102940009B2DDF91CF911F910F91FF90EF90DF9022
:10295000CF90BF900895CF93DF93EC01FB018617D2
:10296000970761F0608171816115710529F04481DB
:1029700055810E94111402C00E94E313CE01DF9121
:10298000CF910895FC011182108213821282158268
:1029900014820E94AB140895FC01118210821382EC
:1029A0001282158214820E94AB140895FC0180816A
:1029B00091810E947F150895FC01808191810E9480
:1029C0007F1508950F931F93CF93DF93BC0182303F
:1029D000910510F462E070E0E0916903F0916A0300
:1029E00040E050E0A0E0B0E024C0808191818617F3
:1029F0009707D0F08617970771F48281938110971B
:102A000029F013969C938E9312972CC090936A038F
:102A10008093690327C04115510519F08417950764
:102A200018F48D01AC01EF01DF01828193819C01DB
:102A3000F9013097D1F641155105F9F0CA01861B0D
:102A4000970B8430910580F48A819B8101151105D3
:102A500021F0F8019383828304C090936A038093EA
:102A60006903FE01329645C0FE01E80FF91F61932C
:102A700071930297998388833CC0809167039091FA
:102A80006803892B41F48091C9019091CA01909308
:102A90006803809367034091CB015091CC014115AD
:102AA000510541F44DB75EB78091C7019091C801BF
:102AB000481B590B20916703309168032417350791
:102AC000B0F4CA01821B930B8617970780F0AB0105
:102AD0004E5F5F4F8417950750F0420F531F50937E
:102AE000680340936703F9016193719302C0E0E0CA
:102AF000F0E0CF01DF91CF911F910F910895CF9317
:102B0000DF939C01009709F48FC0EC0122971B8290
:102B10001A826091690370916A036115710581F4ED
:102B200088819981820F931F2091670330916803F8
:102B30002817390739F5D0936803C093670374C029
:102B4000DB0140E050E0AC17BD0708F1BB83AA836E
:102B5000FE0121913191E20FF31FAE17BF0779F407
:102B60008D919C911197280F391F2E5F3F4F39830C
:102B7000288312968D919C9113979B838A8341158C
:102B8000510571F4D0936A03C09369034DC0129646
:102B90008D919C911397AD01009711F0DC01D3CF7B
:102BA000DA011396DC93CE931297FA0121913191B9
:102BB000E20FF31FCE17DF0769F488819981280F90
:102BC000391F2E5F3F4FFA01318320838A819B8119
:102BD00093838283E0E0F0E0DB0112968D919C917B
:102BE0001397009719F0BC01FD01F6CFAB014E5FC2
:102BF0005F4FDB018D919C91840F951F209167039E
:102C0000309168032817390779F4309729F4109226
:102C10006A031092690302C013821282425050402C
:102C20005093680340936703DF91CF9108956F92AB
:102C30007F928F929F92AF92BF92CF92DF92EF924C
:102C4000FF920F931F93CF93DF938C01009729F48A
:102C5000CB010E94E2148C01BBC08EEFE82E8FEFF7
:102C6000F82EE00EF11E4801860E971E8E149F046A
:102C700008F4ACC0D7014D915C91119746175707E6
:102C8000B8F04530510508F4A3C0CA01049786176F
:102C9000970708F49DC042505040461B570BF40163
:102CA000419351936D937C93CF010E947F1590C007
:102CB0005B01A41AB50A3801640E751EA091690360
:102CC000B0916A03E0E0F0E0CC24DD2447C0A61513
:102CD000B705A9F5CD91DC911197CE0102968A1521
:102CE0009B0568F1CE018A199B09029612962C91D8
:102CF000129713963C91059758F0F4012283338381
:102D0000CA19DB09D183C083D7016D937C9309C0B5
:102D10004E5F5F4F4C0F5D1FF70151834083C90128
:102D2000FC01C114D10431F0D6011396FC93EE934B
:102D300012974EC0F0936A03E093690349C08D91E6
:102D40009C911197E817F90708F4FC016D011296A0
:102D50008C91129713969C919C01D901109709F0C0
:102D6000B6CF809167039091680386159705E9F4C3
:102D7000E617F707D0F42091CB013091CC01211553
:102D8000310541F42DB73EB78091C7019091C8013C
:102D9000281B390B82169306C8F490926803809220
:102DA0006703F7017183608313C0CB010E94E214B3
:102DB000EC01009759F0D7014D915C91B8010E9448
:102DC0001801C8010E947F158E0102C000E010E0CA
:102DD000C801DF91CF911F910F91FF90EF90DF908D
:102DE000CF90BF90AF909F908F907F906F900895FD
:102DF0000895629FD001739FF001829FE00DF11D45
:102E0000649FE00DF11D929FF00D839FF00D749F64
:102E1000F00D659FF00D9927729FB00DE11DF91F10
:102E2000639FB00DE11DF91FBD01CF01112408956D
:102E3000A1E21A2EAA1BBB1BFD010DC0AA1FBB1FBE
:102E4000EE1FFF1FA217B307E407F50720F0A21B30
:102E5000B30BE40BF50B661F771F881F991F1A949D
:102E600069F760957095809590959B01AC01BD01C7
:102E7000CF01089597FB092E05260ED057FD04D0EB
:102E8000D7DF0AD0001C38F4509540953095219535
:102E90003F4F4F4F5F4F0895F6F79095809570958F
:102EA00061957F4F8F4F9F4F0895EE0FFF1F059045
:102EB000F491E02D09949111089581548A5108F4F8
:102EC000805E855A08952F923F924F925F926F9243
:102ED0007F928F929F92AF92BF92CF92DF92EF92AA
:102EE000FF920F931F93CF93DF93CDB7DEB7CA1B2B
:102EF000DB0B0FB6F894DEBF0FBECDBF09942A8856
:102F0000398848885F846E847D848C849B84AA84FD
:102F1000B984C884DF80EE80FD800C811B81AA818A
:102F2000B981CE0FD11D0FB6F894DEBF0FBECDBF55
:102F3000ED01089510E0C8ECD0E004C0FE010E944D
:0E2F400057172296CC3CD107C9F7F894FFCF63
:102F4E004552524F52205B4E6F742072656163681A
:102F5E0061626C655D0061742B730009446576696E
:102F6E00636520747970653A5472616E7363656936
:102F7E007665720061742B723D0061742B003D000A
:102F8E000A00002B00200053746172746564000007
:102F9E002B4465766963652049443A0009436861AC
:102FAE006E6E656C3A000950617373776F72643A96
:102FBE00004552524F52004F4B0061742B633D003F
:102FCE0061742B6E3D0061742B7265730061742BFE
:102FDE006D656D69643D0061742B6D656D76616C18
:102FEE003D0061742B6465660061742B703D0000BA
:102FFE0001000000746869734973456E63727970DD
:10300E00744B657900053F80006B030000000000E3
:10301E0000520500000000FC0F9D10B20FCE0FBE37
:04302E000FEC0F0094
:00000001FF
